{"abi":[{"inputs":[{"internalType":"address","name":"_rewardToken","type":"address"}],"stateMutability":"nonpayable","type":"constructor","name":"constructor"},{"anonymous":false,"inputs":[{"indexed":false,"internalType":"address","name":"admin","type":"address"},{"indexed":false,"internalType":"address","name":"token","type":"address"}],"name":"AllowToken","type":"event"},{"anonymous":false,"inputs":[{"indexed":false,"internalType":"address","name":"admin","type":"address"},{"indexed":false,"internalType":"address","name":"token","type":"address"}],"name":"DisallowToken","type":"event"},{"anonymous":false,"inputs":[{"indexed":true,"internalType":"address","name":"previousOwner","type":"address"},{"indexed":true,"internalType":"address","name":"newOwner","type":"address"}],"name":"OwnershipTransferred","type":"event"},{"inputs":[],"name":"APR","outputs":[{"internalType":"uint256","name":"","type":"uint256"}],"stateMutability":"view","type":"function"},{"inputs":[{"internalType":"address","name":"token","type":"address"}],"name":"addAllowedToken","outputs":[],"stateMutability":"nonpayable","type":"function"},{"inputs":[{"internalType":"uint256","name":"","type":"uint256"}],"name":"allowedTokens","outputs":[{"internalType":"address","name":"","type":"address"}],"stateMutability":"view","type":"function"},{"inputs":[{"internalType":"uint256","name":"amount","type":"uint256"},{"internalType":"address","name":"token","type":"address"}],"name":"getTokenFromValue","outputs":[{"internalType":"uint256","name":"","type":"uint256"}],"stateMutability":"view","type":"function"},{"inputs":[{"internalType":"address","name":"token","type":"address"}],"name":"getTokenValue","outputs":[{"internalType":"uint256","name":"","type":"uint256"},{"internalType":"uint256","name":"","type":"uint256"}],"stateMutability":"view","type":"function"},{"inputs":[{"internalType":"address","name":"user","type":"address"}],"name":"getUserAccruedReward","outputs":[{"internalType":"uint256","name":"","type":"uint256"}],"stateMutability":"view","type":"function"},{"inputs":[{"internalType":"address","name":"user","type":"address"}],"name":"getUserTVL","outputs":[{"internalType":"uint256","name":"","type":"uint256"}],"stateMutability":"view","type":"function"},{"inputs":[{"internalType":"uint256","name":"amount","type":"uint256"},{"internalType":"address","name":"token","type":"address"}],"name":"getUserTokenValue","outputs":[{"internalType":"uint256","name":"","type":"uint256"}],"stateMutability":"view","type":"function"},{"inputs":[{"internalType":"address","name":"token","type":"address"}],"name":"isTokenAllowed","outputs":[{"internalType":"bool","name":"","type":"bool"}],"stateMutability":"view","type":"function"},{"inputs":[],"name":"owner","outputs":[{"internalType":"address","name":"","type":"address"}],"stateMutability":"view","type":"function"},{"inputs":[{"internalType":"address","name":"token","type":"address"}],"name":"removeAllowedToken","outputs":[],"stateMutability":"nonpayable","type":"function"},{"inputs":[],"name":"renounceOwnership","outputs":[],"stateMutability":"nonpayable","type":"function"},{"inputs":[],"name":"rewardToken","outputs":[{"internalType":"contract IERC20","name":"","type":"address"}],"stateMutability":"view","type":"function"},{"inputs":[{"internalType":"uint256","name":"newAPR","type":"uint256"}],"name":"setAPR","outputs":[],"stateMutability":"nonpayable","type":"function"},{"inputs":[{"internalType":"address","name":"token","type":"address"},{"internalType":"address","name":"priceFeed","type":"address"}],"name":"setTokenPriceFeed","outputs":[],"stateMutability":"nonpayable","type":"function"},{"inputs":[{"internalType":"uint256","name":"_amount","type":"uint256"},{"internalType":"address","name":"_token","type":"address"}],"name":"stakeTokens","outputs":[],"stateMutability":"nonpayable","type":"function"},{"inputs":[{"internalType":"address","name":"","type":"address"}],"name":"staker_distinctTokenNumber","outputs":[{"internalType":"uint256","name":"","type":"uint256"}],"stateMutability":"view","type":"function"},{"inputs":[{"internalType":"address","name":"","type":"address"},{"internalType":"uint256","name":"","type":"uint256"}],"name":"staker_stakes","outputs":[{"internalType":"address","name":"token","type":"address"},{"internalType":"uint256","name":"amount","type":"uint256"},{"internalType":"uint256","name":"lastWithdrawTime","type":"uint256"}],"stateMutability":"view","type":"function"},{"inputs":[{"internalType":"uint256","name":"","type":"uint256"}],"name":"stakers","outputs":[{"internalType":"address","name":"","type":"address"}],"stateMutability":"view","type":"function"},{"inputs":[{"internalType":"address","name":"","type":"address"}],"name":"token_priceFeed","outputs":[{"internalType":"address","name":"","type":"address"}],"stateMutability":"view","type":"function"},{"inputs":[{"internalType":"address","name":"","type":"address"},{"internalType":"address","name":"","type":"address"}],"name":"token_staker_amount","outputs":[{"internalType":"uint256","name":"","type":"uint256"}],"stateMutability":"view","type":"function"},{"inputs":[{"internalType":"address","name":"newOwner","type":"address"}],"name":"transferOwnership","outputs":[],"stateMutability":"nonpayable","type":"function"},{"inputs":[{"internalType":"address","name":"_token","type":"address"}],"name":"unstakeTokenAndWithdrawMyReward","outputs":[],"stateMutability":"nonpayable","type":"function"},{"inputs":[],"name":"withdrawMyReward","outputs":[],"stateMutability":"nonpayable","type":"function"}],"bytecode":"608060405234801561001057600080fd5b5060405161197738038061197783398101604081905261002f916100b3565b61003833610063565b600380546001600160a01b0319166001600160a01b03929092169190911790556105dc6002556100e3565b600080546001600160a01b038381166001600160a01b0319831681178455604051919092169283917f8be0079c531659141344cd1fd0a4f28419497f9722a3daafe3b4186f6b6457e09190a35050565b6000602082840312156100c557600080fd5b81516001600160a01b03811681146100dc57600080fd5b9392505050565b611885806100f26000396000f3fe608060405234801561001057600080fd5b50600436106101585760003560e01c806384641227116100c3578063ccd6b5e41161007c578063ccd6b5e4146102f9578063f1c5d6c214610331578063f2fde38b14610359578063f7c618c11461036c578063f9eaee0d1461037f578063fd5e6dd1146103a257600080fd5b8063846412271461029e578063854303cf146102a65780638da5cb5b146102b957806390469a9d146102ca578063920a4243146102dd578063bd30558e146102f057600080fd5b80635e5f2e26116101155780635e5f2e261461023757806364c96eef1461024a578063673bca0a1461025d578063674417ae14610270578063715018a61461028357806383a437721461028b57600080fd5b80630bea440d1461015d5780633b25db7d146101725780634178617f1461018557806346db69a714610198578063595cc9f5146101de57806359a3dd5a14610217575b600080fd5b61017061016b3660046114ef565b6103b5565b005b61017061018036600461151b565b6105f1565b61017061019336600461151b565b61078e565b6101c16101a636600461151b565b6008602052600090815260409020546001600160a01b031681565b6040516001600160a01b0390911681526020015b60405180910390f35b6102096101ec36600461153d565b600760209081526000928352604080842090915290825290205481565b6040519081526020016101d5565b61020961022536600461151b565b60066020526000908152604090205481565b6101c1610245366004611567565b6108d2565b61020961025836600461151b565b6108fc565b61020961026b3660046114ef565b6109b8565b61017061027e36600461153d565b6109f5565b610170610a2b565b61020961029936600461151b565b610a3f565b610170610c1f565b6101706102b4366004611567565b610d5a565b6000546001600160a01b03166101c1565b6101706102d836600461151b565b610d67565b6102096102eb3660046114ef565b610f16565b61020960025481565b61030c610307366004611580565b610f3f565b604080516001600160a01b0390941684526020840192909252908201526060016101d5565b61034461033f36600461151b565b610f8b565b604080519283526020830191909152016101d5565b61017061036736600461151b565b61108c565b6003546101c1906001600160a01b031681565b61039261038d36600461151b565b611105565b60405190151581526020016101d5565b6101c16103b0366004611567565b61116f565b600082116104145760405162461bcd60e51b815260206004820152602160248201527f416d6f756e74206d757374206265206d6f7265207468616e203020746f6b656e6044820152607360f81b60648201526084015b60405180910390fd5b61041d81611105565b6104775760405162461bcd60e51b815260206004820152602560248201527f546f6b656e206e6f7420616c6c6f776564206f6e2074686520706c6174666f726044820152641b481e595d60da1b606482015260840161040b565b336000908152600660205260409020546104ce57600480546001810182556000919091527f8a35acfbc15ff81a39ae7d344fd709f28e8600b4aa8c65c6b64bfe7fe36bd19b0180546001600160a01b031916331790555b6104d8338261117f565b604080516060810182526001600160a01b03838116808352602080840187815242858701908152336000818152600585528881208054600180820183559183528683208a5160039092020180546001600160a01b031916919099161788559351938701939093559051600290950194909455918252600781528482209282529190915291822080549192859261056f9084906115c0565b90915550506040516323b872dd60e01b8152336004820152306024820152604481018490526001600160a01b038316906323b872dd906064016020604051808303816000875af11580156105c7573d6000803e3d6000fd5b505050506040513d601f19601f820116820180604052508101906105eb91906115d8565b50505050565b6105fa81611105565b6106575760405162461bcd60e51b815260206004820152602860248201527f546f6b656e20646f65736e277420657869737473206f6e2074686520706c6174604482015267199bdc9b481e595d60c21b606482015260840161040b565b6001600160a01b0381166000908152600760209081526040808320338452909152902054806106c15760405162461bcd60e51b81526020600482015260166024820152755374616b65642062616c616e6365206973207a65726f60501b604482015260640161040b565b60405163a9059cbb60e01b8152336004820152602481018290526001600160a01b0383169063a9059cbb906044016020604051808303816000875af115801561070e573d6000803e3d6000fd5b505050506040513d601f19601f8201168201806040525081019061073291906115d8565b5061073b610c1f565b6001600160a01b0382166000908152600760209081526040808320338452825280832083905560069091528120805491610774836115fa565b9190505550610782826111db565b61078a611313565b5050565b61079661142e565b6000805b6001548110156107f757826001600160a01b0316600182815481106107c1576107c1611611565b6000918252602090912001546001600160a01b031614156107e557600191506107f7565b806107ef81611627565b91505061079a565b5080156108465760405162461bcd60e51b815260206004820152601c60248201527f54686520746f6b656e20697320616c726561647920616c6c6f77656400000000604482015260640161040b565b6001805480820182556000919091527fb10e2d527612073b26eecdfd717e6a320cf44b4afac2b0732d9fcbe2b7fa0cf60180546001600160a01b0319166001600160a01b0384169081179091556040805133815260208101929092527fb255eb80cd9faf1bf370ec9d568e7ddcd76db8329d4665996ac3ff866e93a1a691015b60405180910390a15050565b600181815481106108e257600080fd5b6000918252602090912001546001600160a01b0316905081565b6001600160a01b038116600090815260066020526040812054156109ab576000805b6001548110156109a45760006001828154811061093d5761093d611611565b60009182526020808320909101546001600160a01b03908116808452600783526040808520928a1685529190925290912054909150801561098f5761098281836109b8565b61098c90856115c0565b93505b5050808061099c90611627565b91505061091e565b5092915050565b506000919050565b919050565b60008060006109c684610f8b565b90925090506109d681600a611726565b6109e08387611732565b6109ea9190611751565b925050505b92915050565b6109fd61142e565b6001600160a01b03918216600090815260086020526040902080546001600160a01b03191691909216179055565b610a3361142e565b610a3d6000611488565b565b6001600160a01b038116600090815260066020526040812054156109ab576001600160a01b038216600090815260056020908152604080832080548251818502810185019093528083528493849084015b82821015610ae5576000848152602090819020604080516060810182526003860290920180546001600160a01b0316835260018082015484860152600290910154918301919091529083529092019101610a90565b50505050905060005b8151811015610c16576000806000848481518110610b0e57610b0e611611565b60200260200101516000015190506000858581518110610b3057610b30611611565b60200260200101516020015190506000868681518110610b5257610b52611611565b60200260200101516040015190506000610b6c83856109b8565b905061271060025482610b7f9190611732565b610b899190611751565b95506301e133806000610b9c8442611773565b9050600082610baf83633b9aca00611732565b610bb99190611751565b9050633b9aca00610bca828b611732565b610bd49190611751565b600354909850610bee9089906001600160a01b0316610f16565b610bf8908d6115c0565b9b505050505050505050508080610c0e90611627565b915050610aee565b50909392505050565b6000610c2a33610a3f565b905060008111610c8c5760405162461bcd60e51b815260206004820152602760248201527f596f752068617665206e6f74206163637275656420656e6f756768742052574460448201526620746f6b656e7360c81b606482015260840161040b565b60035460405163a9059cbb60e01b8152336004820152602481018390526001600160a01b039091169063a9059cbb906044016020604051808303816000875af1158015610cdd573d6000803e3d6000fd5b505050506040513d601f19601f82011682018060405250810190610d0191906115d8565b50336000908152600560205260408120905b8154811015610d555742828281548110610d2f57610d2f611611565b600091825260209091206002600390920201015580610d4d81611627565b915050610d13565b505050565b610d6261142e565b600255565b610d6f61142e565b60015460005b600154811015610dd157826001600160a01b031660018281548110610d9c57610d9c611611565b6000918252602090912001546001600160a01b03161415610dbf57809150610dd1565b80610dc981611627565b915050610d75565b506001548110610e235760405162461bcd60e51b815260206004820152601e60248201527f54686520746f6b656e20697320616c726561647920756e616c6c6f7765640000604482015260640161040b565b60018054610e32908290611773565b81548110610e4257610e42611611565b600091825260209091200154600180546001600160a01b039092169183908110610e6e57610e6e611611565b9060005260206000200160006101000a8154816001600160a01b0302191690836001600160a01b031602179055506001805480610ead57610ead61178a565b600082815260209020810160001990810180546001600160a01b03191690550190556040517f564b89698f7ed468cc4fd744742e329fddd973ba260c976968aeb4acfe78b733906108c690339085906001600160a01b0392831681529116602082015260400190565b6000806000610f2484610f8b565b909250905081610f3582600a611726565b6109e09087611732565b60056020528160005260406000208181548110610f5b57600080fd5b60009182526020909120600390910201805460018201546002909201546001600160a01b03909116935090915083565b6001600160a01b03808216600090815260086020526040808220548151633fabe5a360e21b815291519293849391169182918491839163feaf968c9160048082019260a0929091908290030181865afa158015610fec573d6000803e3d6000fd5b505050506040513d601f19601f8201168201806040525081019061101091906117ba565b5050509150506000826001600160a01b031663313ce5676040518163ffffffff1660e01b8152600401602060405180830381865afa158015611056573d6000803e3d6000fd5b505050506040513d601f19601f8201168201806040525081019061107a919061180a565b919760ff909216965090945050505050565b61109461142e565b6001600160a01b0381166110f95760405162461bcd60e51b815260206004820152602660248201527f4f776e61626c653a206e6577206f776e657220697320746865207a65726f206160448201526564647265737360d01b606482015260840161040b565b61110281611488565b50565b6000805b60015481101561116657826001600160a01b03166001828154811061113057611130611611565b6000918252602090912001546001600160a01b031614156111545750600192915050565b8061115e81611627565b915050611109565b50600092915050565b600481815481106108e257600080fd5b6001600160a01b0380821660009081526007602090815260408083209386168352929052205461078a576001600160a01b03821660009081526006602052604081208054600192906111d29084906115c0565b90915550505050565b336000908152600560205260408120905b815461ffff82161015610d5557826001600160a01b0316828261ffff168154811061121957611219611611565b60009182526020909120600390910201546001600160a01b03161415611301578154829061124990600190611773565b8154811061125957611259611611565b9060005260206000209060030201828261ffff168154811061127d5761127d611611565b60009182526020909120825460039092020180546001600160a01b0319166001600160a01b039092169190911781556001808301549082015560029182015491015581548290806112d0576112d061178a565b60008281526020812060036000199093019283020180546001600160a01b0319168155600181018290556002015590555b8061130b8161182d565b9150506111ec565b33600090815260066020526040902054610a3d5760005b60045481101561110257336001600160a01b03166004828154811061135157611351611611565b6000918252602090912001546001600160a01b0316141561141c576004805461137c90600190611773565b8154811061138c5761138c611611565b600091825260209091200154600480546001600160a01b0390921691839081106113b8576113b8611611565b9060005260206000200160006101000a8154816001600160a01b0302191690836001600160a01b0316021790555060048054806113f7576113f761178a565b600082815260209020810160001990810180546001600160a01b031916905501905550565b8061142681611627565b91505061132a565b6000546001600160a01b03163314610a3d5760405162461bcd60e51b815260206004820181905260248201527f4f776e61626c653a2063616c6c6572206973206e6f7420746865206f776e6572604482015260640161040b565b600080546001600160a01b038381166001600160a01b0319831681178455604051919092169283917f8be0079c531659141344cd1fd0a4f28419497f9722a3daafe3b4186f6b6457e09190a35050565b80356001600160a01b03811681146109b357600080fd5b6000806040838503121561150257600080fd5b82359150611512602084016114d8565b90509250929050565b60006020828403121561152d57600080fd5b611536826114d8565b9392505050565b6000806040838503121561155057600080fd5b611559836114d8565b9150611512602084016114d8565b60006020828403121561157957600080fd5b5035919050565b6000806040838503121561159357600080fd5b61159c836114d8565b946020939093013593505050565b634e487b7160e01b600052601160045260246000fd5b600082198211156115d3576115d36115aa565b500190565b6000602082840312156115ea57600080fd5b8151801515811461153657600080fd5b600081611609576116096115aa565b506000190190565b634e487b7160e01b600052603260045260246000fd5b600060001982141561163b5761163b6115aa565b5060010190565b600181815b8085111561167d578160001904821115611663576116636115aa565b8085161561167057918102915b93841c9390800290611647565b509250929050565b600082611694575060016109ef565b816116a1575060006109ef565b81600181146116b757600281146116c1576116dd565b60019150506109ef565b60ff8411156116d2576116d26115aa565b50506001821b6109ef565b5060208310610133831016604e8410600b8410161715611700575081810a6109ef565b61170a8383611642565b806000190482111561171e5761171e6115aa565b029392505050565b60006115368383611685565b600081600019048311821515161561174c5761174c6115aa565b500290565b60008261176e57634e487b7160e01b600052601260045260246000fd5b500490565b600082821015611785576117856115aa565b500390565b634e487b7160e01b600052603160045260246000fd5b805169ffffffffffffffffffff811681146109b357600080fd5b600080600080600060a086880312156117d257600080fd5b6117db866117a0565b94506020860151935060408601519250606086015191506117fe608087016117a0565b90509295509295909350565b60006020828403121561181c57600080fd5b815160ff8116811461153657600080fd5b600061ffff80831681811415611845576118456115aa565b600101939250505056fea264697066735822122077d979ea6647c4beee3da4d567e3d4c0f692a7d4d693be693bbf9d1b33d616af64736f6c634300080c0033","bytecodeSha1":"941db063d0f998da831c1019d474569b18252b57","compiler":{"evm_version":"istanbul","optimizer":{"enabled":true,"runs":200},"version":"0.8.12+commit.f00d7308"},"contractName":"TokenFarm","language":"Solidity","natspec":{"kind":"dev","methods":{"owner()":{"details":"Returns the address of the current owner."},"renounceOwnership()":{"details":"Leaves the contract without owner. It will not be possible to call `onlyOwner` functions anymore. Can only be called by the current owner. NOTE: Renouncing ownership will leave the contract without an owner, thereby removing any functionality that is only available to the owner."},"transferOwnership(address)":{"details":"Transfers ownership of the contract to a new account (`newOwner`). Can only be called by the current owner."}},"version":1},"opcodes":"PUSH1 0x80 PUSH1 0x40 MSTORE CALLVALUE DUP1 ISZERO PUSH2 0x10 JUMPI PUSH1 0x0 DUP1 REVERT JUMPDEST POP PUSH1 0x4 CALLDATASIZE LT PUSH2 0x158 JUMPI PUSH1 0x0 CALLDATALOAD PUSH1 0xE0 SHR DUP1 PUSH4 0x84641227 GT PUSH2 0xC3 JUMPI DUP1 PUSH4 0xCCD6B5E4 GT PUSH2 0x7C JUMPI DUP1 PUSH4 0xCCD6B5E4 EQ PUSH2 0x2F9 JUMPI DUP1 PUSH4 0xF1C5D6C2 EQ PUSH2 0x331 JUMPI DUP1 PUSH4 0xF2FDE38B EQ PUSH2 0x359 JUMPI DUP1 PUSH4 0xF7C618C1 EQ PUSH2 0x36C JUMPI DUP1 PUSH4 0xF9EAEE0D EQ PUSH2 0x37F JUMPI DUP1 PUSH4 0xFD5E6DD1 EQ PUSH2 0x3A2 JUMPI PUSH1 0x0 DUP1 REVERT JUMPDEST DUP1 PUSH4 0x84641227 EQ PUSH2 0x29E JUMPI DUP1 PUSH4 0x854303CF EQ PUSH2 0x2A6 JUMPI DUP1 PUSH4 0x8DA5CB5B EQ PUSH2 0x2B9 JUMPI DUP1 PUSH4 0x90469A9D EQ PUSH2 0x2CA JUMPI DUP1 PUSH4 0x920A4243 EQ PUSH2 0x2DD JUMPI DUP1 PUSH4 0xBD30558E EQ PUSH2 0x2F0 JUMPI PUSH1 0x0 DUP1 REVERT JUMPDEST DUP1 PUSH4 0x5E5F2E26 GT PUSH2 0x115 JUMPI DUP1 PUSH4 0x5E5F2E26 EQ PUSH2 0x237 JUMPI DUP1 PUSH4 0x64C96EEF EQ PUSH2 0x24A JUMPI DUP1 PUSH4 0x673BCA0A EQ PUSH2 0x25D JUMPI DUP1 PUSH4 0x674417AE EQ PUSH2 0x270 JUMPI DUP1 PUSH4 0x715018A6 EQ PUSH2 0x283 JUMPI DUP1 PUSH4 0x83A43772 EQ PUSH2 0x28B JUMPI PUSH1 0x0 DUP1 REVERT JUMPDEST DUP1 PUSH4 0xBEA440D EQ PUSH2 0x15D JUMPI DUP1 PUSH4 0x3B25DB7D EQ PUSH2 0x172 JUMPI DUP1 PUSH4 0x4178617F EQ PUSH2 0x185 JUMPI DUP1 PUSH4 0x46DB69A7 EQ PUSH2 0x198 JUMPI DUP1 PUSH4 0x595CC9F5 EQ PUSH2 0x1DE JUMPI DUP1 PUSH4 0x59A3DD5A EQ PUSH2 0x217 JUMPI JUMPDEST PUSH1 0x0 DUP1 REVERT JUMPDEST PUSH2 0x170 PUSH2 0x16B CALLDATASIZE PUSH1 0x4 PUSH2 0x14EF JUMP JUMPDEST PUSH2 0x3B5 JUMP JUMPDEST STOP JUMPDEST PUSH2 0x170 PUSH2 0x180 CALLDATASIZE PUSH1 0x4 PUSH2 0x151B JUMP JUMPDEST PUSH2 0x5F1 JUMP JUMPDEST PUSH2 0x170 PUSH2 0x193 CALLDATASIZE PUSH1 0x4 PUSH2 0x151B JUMP JUMPDEST PUSH2 0x78E JUMP JUMPDEST PUSH2 0x1C1 PUSH2 0x1A6 CALLDATASIZE PUSH1 0x4 PUSH2 0x151B JUMP JUMPDEST PUSH1 0x8 PUSH1 0x20 MSTORE PUSH1 0x0 SWAP1 DUP2 MSTORE PUSH1 0x40 SWAP1 KECCAK256 SLOAD PUSH1 0x1 PUSH1 0x1 PUSH1 0xA0 SHL SUB AND DUP2 JUMP JUMPDEST PUSH1 0x40 MLOAD PUSH1 0x1 PUSH1 0x1 PUSH1 0xA0 SHL SUB SWAP1 SWAP2 AND DUP2 MSTORE PUSH1 0x20 ADD JUMPDEST PUSH1 0x40 MLOAD DUP1 SWAP2 SUB SWAP1 RETURN JUMPDEST PUSH2 0x209 PUSH2 0x1EC CALLDATASIZE PUSH1 0x4 PUSH2 0x153D JUMP JUMPDEST PUSH1 0x7 PUSH1 0x20 SWAP1 DUP2 MSTORE PUSH1 0x0 SWAP3 DUP4 MSTORE PUSH1 0x40 DUP1 DUP5 KECCAK256 SWAP1 SWAP2 MSTORE SWAP1 DUP3 MSTORE SWAP1 KECCAK256 SLOAD DUP2 JUMP JUMPDEST PUSH1 0x40 MLOAD SWAP1 DUP2 MSTORE PUSH1 0x20 ADD PUSH2 0x1D5 JUMP JUMPDEST PUSH2 0x209 PUSH2 0x225 CALLDATASIZE PUSH1 0x4 PUSH2 0x151B JUMP JUMPDEST PUSH1 0x6 PUSH1 0x20 MSTORE PUSH1 0x0 SWAP1 DUP2 MSTORE PUSH1 0x40 SWAP1 KECCAK256 SLOAD DUP2 JUMP JUMPDEST PUSH2 0x1C1 PUSH2 0x245 CALLDATASIZE PUSH1 0x4 PUSH2 0x1567 JUMP JUMPDEST PUSH2 0x8D2 JUMP JUMPDEST PUSH2 0x209 PUSH2 0x258 CALLDATASIZE PUSH1 0x4 PUSH2 0x151B JUMP JUMPDEST PUSH2 0x8FC JUMP JUMPDEST PUSH2 0x209 PUSH2 0x26B CALLDATASIZE PUSH1 0x4 PUSH2 0x14EF JUMP JUMPDEST PUSH2 0x9B8 JUMP JUMPDEST PUSH2 0x170 PUSH2 0x27E CALLDATASIZE PUSH1 0x4 PUSH2 0x153D JUMP JUMPDEST PUSH2 0x9F5 JUMP JUMPDEST PUSH2 0x170 PUSH2 0xA2B JUMP JUMPDEST PUSH2 0x209 PUSH2 0x299 CALLDATASIZE PUSH1 0x4 PUSH2 0x151B JUMP JUMPDEST PUSH2 0xA3F JUMP JUMPDEST PUSH2 0x170 PUSH2 0xC1F JUMP JUMPDEST PUSH2 0x170 PUSH2 0x2B4 CALLDATASIZE PUSH1 0x4 PUSH2 0x1567 JUMP JUMPDEST PUSH2 0xD5A JUMP JUMPDEST PUSH1 0x0 SLOAD PUSH1 0x1 PUSH1 0x1 PUSH1 0xA0 SHL SUB AND PUSH2 0x1C1 JUMP JUMPDEST PUSH2 0x170 PUSH2 0x2D8 CALLDATASIZE PUSH1 0x4 PUSH2 0x151B JUMP JUMPDEST PUSH2 0xD67 JUMP JUMPDEST PUSH2 0x209 PUSH2 0x2EB CALLDATASIZE PUSH1 0x4 PUSH2 0x14EF JUMP JUMPDEST PUSH2 0xF16 JUMP JUMPDEST PUSH2 0x209 PUSH1 0x2 SLOAD DUP2 JUMP JUMPDEST PUSH2 0x30C PUSH2 0x307 CALLDATASIZE PUSH1 0x4 PUSH2 0x1580 JUMP JUMPDEST PUSH2 0xF3F JUMP JUMPDEST PUSH1 0x40 DUP1 MLOAD PUSH1 0x1 PUSH1 0x1 PUSH1 0xA0 SHL SUB SWAP1 SWAP5 AND DUP5 MSTORE PUSH1 0x20 DUP5 ADD SWAP3 SWAP1 SWAP3 MSTORE SWAP1 DUP3 ADD MSTORE PUSH1 0x60 ADD PUSH2 0x1D5 JUMP JUMPDEST PUSH2 0x344 PUSH2 0x33F CALLDATASIZE PUSH1 0x4 PUSH2 0x151B JUMP JUMPDEST PUSH2 0xF8B JUMP JUMPDEST PUSH1 0x40 DUP1 MLOAD SWAP3 DUP4 MSTORE PUSH1 0x20 DUP4 ADD SWAP2 SWAP1 SWAP2 MSTORE ADD PUSH2 0x1D5 JUMP JUMPDEST PUSH2 0x170 PUSH2 0x367 CALLDATASIZE PUSH1 0x4 PUSH2 0x151B JUMP JUMPDEST PUSH2 0x108C JUMP JUMPDEST PUSH1 0x3 SLOAD PUSH2 0x1C1 SWAP1 PUSH1 0x1 PUSH1 0x1 PUSH1 0xA0 SHL SUB AND DUP2 JUMP JUMPDEST PUSH2 0x392 PUSH2 0x38D CALLDATASIZE PUSH1 0x4 PUSH2 0x151B JUMP JUMPDEST PUSH2 0x1105 JUMP JUMPDEST PUSH1 0x40 MLOAD SWAP1 ISZERO ISZERO DUP2 MSTORE PUSH1 0x20 ADD PUSH2 0x1D5 JUMP JUMPDEST PUSH2 0x1C1 PUSH2 0x3B0 CALLDATASIZE PUSH1 0x4 PUSH2 0x1567 JUMP JUMPDEST PUSH2 0x116F JUMP JUMPDEST PUSH1 0x0 DUP3 GT PUSH2 0x414 JUMPI PUSH1 0x40 MLOAD PUSH3 0x461BCD PUSH1 0xE5 SHL DUP2 MSTORE PUSH1 0x20 PUSH1 0x4 DUP3 ADD MSTORE PUSH1 0x21 PUSH1 0x24 DUP3 ADD MSTORE PUSH32 0x416D6F756E74206D757374206265206D6F7265207468616E203020746F6B656E PUSH1 0x44 DUP3 ADD MSTORE PUSH1 0x73 PUSH1 0xF8 SHL PUSH1 0x64 DUP3 ADD MSTORE PUSH1 0x84 ADD JUMPDEST PUSH1 0x40 MLOAD DUP1 SWAP2 SUB SWAP1 REVERT JUMPDEST PUSH2 0x41D DUP2 PUSH2 0x1105 JUMP JUMPDEST PUSH2 0x477 JUMPI PUSH1 0x40 MLOAD PUSH3 0x461BCD PUSH1 0xE5 SHL DUP2 MSTORE PUSH1 0x20 PUSH1 0x4 DUP3 ADD MSTORE PUSH1 0x25 PUSH1 0x24 DUP3 ADD MSTORE PUSH32 0x546F6B656E206E6F7420616C6C6F776564206F6E2074686520706C6174666F72 PUSH1 0x44 DUP3 ADD MSTORE PUSH5 0x1B481E595D PUSH1 0xDA SHL PUSH1 0x64 DUP3 ADD MSTORE PUSH1 0x84 ADD PUSH2 0x40B JUMP JUMPDEST CALLER PUSH1 0x0 SWAP1 DUP2 MSTORE PUSH1 0x6 PUSH1 0x20 MSTORE PUSH1 0x40 SWAP1 KECCAK256 SLOAD PUSH2 0x4CE JUMPI PUSH1 0x4 DUP1 SLOAD PUSH1 0x1 DUP2 ADD DUP3 SSTORE PUSH1 0x0 SWAP2 SWAP1 SWAP2 MSTORE PUSH32 0x8A35ACFBC15FF81A39AE7D344FD709F28E8600B4AA8C65C6B64BFE7FE36BD19B ADD DUP1 SLOAD PUSH1 0x1 PUSH1 0x1 PUSH1 0xA0 SHL SUB NOT AND CALLER OR SWAP1 SSTORE JUMPDEST PUSH2 0x4D8 CALLER DUP3 PUSH2 0x117F JUMP JUMPDEST PUSH1 0x40 DUP1 MLOAD PUSH1 0x60 DUP2 ADD DUP3 MSTORE PUSH1 0x1 PUSH1 0x1 PUSH1 0xA0 SHL SUB DUP4 DUP2 AND DUP1 DUP4 MSTORE PUSH1 0x20 DUP1 DUP5 ADD DUP8 DUP2 MSTORE TIMESTAMP DUP6 DUP8 ADD SWAP1 DUP2 MSTORE CALLER PUSH1 0x0 DUP2 DUP2 MSTORE PUSH1 0x5 DUP6 MSTORE DUP9 DUP2 KECCAK256 DUP1 SLOAD PUSH1 0x1 DUP1 DUP3 ADD DUP4 SSTORE SWAP2 DUP4 MSTORE DUP7 DUP4 KECCAK256 DUP11 MLOAD PUSH1 0x3 SWAP1 SWAP3 MUL ADD DUP1 SLOAD PUSH1 0x1 PUSH1 0x1 PUSH1 0xA0 SHL SUB NOT AND SWAP2 SWAP1 SWAP10 AND OR DUP9 SSTORE SWAP4 MLOAD SWAP4 DUP8 ADD SWAP4 SWAP1 SWAP4 SSTORE SWAP1 MLOAD PUSH1 0x2 SWAP1 SWAP6 ADD SWAP5 SWAP1 SWAP5 SSTORE SWAP2 DUP3 MSTORE PUSH1 0x7 DUP2 MSTORE DUP5 DUP3 KECCAK256 SWAP3 DUP3 MSTORE SWAP2 SWAP1 SWAP2 MSTORE SWAP2 DUP3 KECCAK256 DUP1 SLOAD SWAP2 SWAP3 DUP6 SWAP3 PUSH2 0x56F SWAP1 DUP5 SWAP1 PUSH2 0x15C0 JUMP JUMPDEST SWAP1 SWAP2 SSTORE POP POP PUSH1 0x40 MLOAD PUSH4 0x23B872DD PUSH1 0xE0 SHL DUP2 MSTORE CALLER PUSH1 0x4 DUP3 ADD MSTORE ADDRESS PUSH1 0x24 DUP3 ADD MSTORE PUSH1 0x44 DUP2 ADD DUP5 SWAP1 MSTORE PUSH1 0x1 PUSH1 0x1 PUSH1 0xA0 SHL SUB DUP4 AND SWAP1 PUSH4 0x23B872DD SWAP1 PUSH1 0x64 ADD PUSH1 0x20 PUSH1 0x40 MLOAD DUP1 DUP4 SUB DUP2 PUSH1 0x0 DUP8 GAS CALL ISZERO DUP1 ISZERO PUSH2 0x5C7 JUMPI RETURNDATASIZE PUSH1 0x0 DUP1 RETURNDATACOPY RETURNDATASIZE PUSH1 0x0 REVERT JUMPDEST POP POP POP POP PUSH1 0x40 MLOAD RETURNDATASIZE PUSH1 0x1F NOT PUSH1 0x1F DUP3 ADD AND DUP3 ADD DUP1 PUSH1 0x40 MSTORE POP DUP2 ADD SWAP1 PUSH2 0x5EB SWAP2 SWAP1 PUSH2 0x15D8 JUMP JUMPDEST POP POP POP POP JUMP JUMPDEST PUSH2 0x5FA DUP2 PUSH2 0x1105 JUMP JUMPDEST PUSH2 0x657 JUMPI PUSH1 0x40 MLOAD PUSH3 0x461BCD PUSH1 0xE5 SHL DUP2 MSTORE PUSH1 0x20 PUSH1 0x4 DUP3 ADD MSTORE PUSH1 0x28 PUSH1 0x24 DUP3 ADD MSTORE PUSH32 0x546F6B656E20646F65736E277420657869737473206F6E2074686520706C6174 PUSH1 0x44 DUP3 ADD MSTORE PUSH8 0x199BDC9B481E595D PUSH1 0xC2 SHL PUSH1 0x64 DUP3 ADD MSTORE PUSH1 0x84 ADD PUSH2 0x40B JUMP JUMPDEST PUSH1 0x1 PUSH1 0x1 PUSH1 0xA0 SHL SUB DUP2 AND PUSH1 0x0 SWAP1 DUP2 MSTORE PUSH1 0x7 PUSH1 0x20 SWAP1 DUP2 MSTORE PUSH1 0x40 DUP1 DUP4 KECCAK256 CALLER DUP5 MSTORE SWAP1 SWAP2 MSTORE SWAP1 KECCAK256 SLOAD DUP1 PUSH2 0x6C1 JUMPI PUSH1 0x40 MLOAD PUSH3 0x461BCD PUSH1 0xE5 SHL DUP2 MSTORE PUSH1 0x20 PUSH1 0x4 DUP3 ADD MSTORE PUSH1 0x16 PUSH1 0x24 DUP3 ADD MSTORE PUSH22 0x5374616B65642062616C616E6365206973207A65726F PUSH1 0x50 SHL PUSH1 0x44 DUP3 ADD MSTORE PUSH1 0x64 ADD PUSH2 0x40B JUMP JUMPDEST PUSH1 0x40 MLOAD PUSH4 0xA9059CBB PUSH1 0xE0 SHL DUP2 MSTORE CALLER PUSH1 0x4 DUP3 ADD MSTORE PUSH1 0x24 DUP2 ADD DUP3 SWAP1 MSTORE PUSH1 0x1 PUSH1 0x1 PUSH1 0xA0 SHL SUB DUP4 AND SWAP1 PUSH4 0xA9059CBB SWAP1 PUSH1 0x44 ADD PUSH1 0x20 PUSH1 0x40 MLOAD DUP1 DUP4 SUB DUP2 PUSH1 0x0 DUP8 GAS CALL ISZERO DUP1 ISZERO PUSH2 0x70E JUMPI RETURNDATASIZE PUSH1 0x0 DUP1 RETURNDATACOPY RETURNDATASIZE PUSH1 0x0 REVERT JUMPDEST POP POP POP POP PUSH1 0x40 MLOAD RETURNDATASIZE PUSH1 0x1F NOT PUSH1 0x1F DUP3 ADD AND DUP3 ADD DUP1 PUSH1 0x40 MSTORE POP DUP2 ADD SWAP1 PUSH2 0x732 SWAP2 SWAP1 PUSH2 0x15D8 JUMP JUMPDEST POP PUSH2 0x73B PUSH2 0xC1F JUMP JUMPDEST PUSH1 0x1 PUSH1 0x1 PUSH1 0xA0 SHL SUB DUP3 AND PUSH1 0x0 SWAP1 DUP2 MSTORE PUSH1 0x7 PUSH1 0x20 SWAP1 DUP2 MSTORE PUSH1 0x40 DUP1 DUP4 KECCAK256 CALLER DUP5 MSTORE DUP3 MSTORE DUP1 DUP4 KECCAK256 DUP4 SWAP1 SSTORE PUSH1 0x6 SWAP1 SWAP2 MSTORE DUP2 KECCAK256 DUP1 SLOAD SWAP2 PUSH2 0x774 DUP4 PUSH2 0x15FA JUMP JUMPDEST SWAP2 SWAP1 POP SSTORE POP PUSH2 0x782 DUP3 PUSH2 0x11DB JUMP JUMPDEST PUSH2 0x78A PUSH2 0x1313 JUMP JUMPDEST POP POP JUMP JUMPDEST PUSH2 0x796 PUSH2 0x142E JUMP JUMPDEST PUSH1 0x0 DUP1 JUMPDEST PUSH1 0x1 SLOAD DUP2 LT ISZERO PUSH2 0x7F7 JUMPI DUP3 PUSH1 0x1 PUSH1 0x1 PUSH1 0xA0 SHL SUB AND PUSH1 0x1 DUP3 DUP2 SLOAD DUP2 LT PUSH2 0x7C1 JUMPI PUSH2 0x7C1 PUSH2 0x1611 JUMP JUMPDEST PUSH1 0x0 SWAP2 DUP3 MSTORE PUSH1 0x20 SWAP1 SWAP2 KECCAK256 ADD SLOAD PUSH1 0x1 PUSH1 0x1 PUSH1 0xA0 SHL SUB AND EQ ISZERO PUSH2 0x7E5 JUMPI PUSH1 0x1 SWAP2 POP PUSH2 0x7F7 JUMP JUMPDEST DUP1 PUSH2 0x7EF DUP2 PUSH2 0x1627 JUMP JUMPDEST SWAP2 POP POP PUSH2 0x79A JUMP JUMPDEST POP DUP1 ISZERO PUSH2 0x846 JUMPI PUSH1 0x40 MLOAD PUSH3 0x461BCD PUSH1 0xE5 SHL DUP2 MSTORE PUSH1 0x20 PUSH1 0x4 DUP3 ADD MSTORE PUSH1 0x1C PUSH1 0x24 DUP3 ADD MSTORE PUSH32 0x54686520746F6B656E20697320616C726561647920616C6C6F77656400000000 PUSH1 0x44 DUP3 ADD MSTORE PUSH1 0x64 ADD PUSH2 0x40B JUMP JUMPDEST PUSH1 0x1 DUP1 SLOAD DUP1 DUP3 ADD DUP3 SSTORE PUSH1 0x0 SWAP2 SWAP1 SWAP2 MSTORE PUSH32 0xB10E2D527612073B26EECDFD717E6A320CF44B4AFAC2B0732D9FCBE2B7FA0CF6 ADD DUP1 SLOAD PUSH1 0x1 PUSH1 0x1 PUSH1 0xA0 SHL SUB NOT AND PUSH1 0x1 PUSH1 0x1 PUSH1 0xA0 SHL SUB DUP5 AND SWAP1 DUP2 OR SWAP1 SWAP2 SSTORE PUSH1 0x40 DUP1 MLOAD CALLER DUP2 MSTORE PUSH1 0x20 DUP2 ADD SWAP3 SWAP1 SWAP3 MSTORE PUSH32 0xB255EB80CD9FAF1BF370EC9D568E7DDCD76DB8329D4665996AC3FF866E93A1A6 SWAP2 ADD JUMPDEST PUSH1 0x40 MLOAD DUP1 SWAP2 SUB SWAP1 LOG1 POP POP JUMP JUMPDEST PUSH1 0x1 DUP2 DUP2 SLOAD DUP2 LT PUSH2 0x8E2 JUMPI PUSH1 0x0 DUP1 REVERT JUMPDEST PUSH1 0x0 SWAP2 DUP3 MSTORE PUSH1 0x20 SWAP1 SWAP2 KECCAK256 ADD SLOAD PUSH1 0x1 PUSH1 0x1 PUSH1 0xA0 SHL SUB AND SWAP1 POP DUP2 JUMP JUMPDEST PUSH1 0x1 PUSH1 0x1 PUSH1 0xA0 SHL SUB DUP2 AND PUSH1 0x0 SWAP1 DUP2 MSTORE PUSH1 0x6 PUSH1 0x20 MSTORE PUSH1 0x40 DUP2 KECCAK256 SLOAD ISZERO PUSH2 0x9AB JUMPI PUSH1 0x0 DUP1 JUMPDEST PUSH1 0x1 SLOAD DUP2 LT ISZERO PUSH2 0x9A4 JUMPI PUSH1 0x0 PUSH1 0x1 DUP3 DUP2 SLOAD DUP2 LT PUSH2 0x93D JUMPI PUSH2 0x93D PUSH2 0x1611 JUMP JUMPDEST PUSH1 0x0 SWAP2 DUP3 MSTORE PUSH1 0x20 DUP1 DUP4 KECCAK256 SWAP1 SWAP2 ADD SLOAD PUSH1 0x1 PUSH1 0x1 PUSH1 0xA0 SHL SUB SWAP1 DUP2 AND DUP1 DUP5 MSTORE PUSH1 0x7 DUP4 MSTORE PUSH1 0x40 DUP1 DUP6 KECCAK256 SWAP3 DUP11 AND DUP6 MSTORE SWAP2 SWAP1 SWAP3 MSTORE SWAP1 SWAP2 KECCAK256 SLOAD SWAP1 SWAP2 POP DUP1 ISZERO PUSH2 0x98F JUMPI PUSH2 0x982 DUP2 DUP4 PUSH2 0x9B8 JUMP JUMPDEST PUSH2 0x98C SWAP1 DUP6 PUSH2 0x15C0 JUMP JUMPDEST SWAP4 POP JUMPDEST POP POP DUP1 DUP1 PUSH2 0x99C SWAP1 PUSH2 0x1627 JUMP JUMPDEST SWAP2 POP POP PUSH2 0x91E JUMP JUMPDEST POP SWAP3 SWAP2 POP POP JUMP JUMPDEST POP PUSH1 0x0 SWAP2 SWAP1 POP JUMP JUMPDEST SWAP2 SWAP1 POP JUMP JUMPDEST PUSH1 0x0 DUP1 PUSH1 0x0 PUSH2 0x9C6 DUP5 PUSH2 0xF8B JUMP JUMPDEST SWAP1 SWAP3 POP SWAP1 POP PUSH2 0x9D6 DUP2 PUSH1 0xA PUSH2 0x1726 JUMP JUMPDEST PUSH2 0x9E0 DUP4 DUP8 PUSH2 0x1732 JUMP JUMPDEST PUSH2 0x9EA SWAP2 SWAP1 PUSH2 0x1751 JUMP JUMPDEST SWAP3 POP POP POP JUMPDEST SWAP3 SWAP2 POP POP JUMP JUMPDEST PUSH2 0x9FD PUSH2 0x142E JUMP JUMPDEST PUSH1 0x1 PUSH1 0x1 PUSH1 0xA0 SHL SUB SWAP2 DUP3 AND PUSH1 0x0 SWAP1 DUP2 MSTORE PUSH1 0x8 PUSH1 0x20 MSTORE PUSH1 0x40 SWAP1 KECCAK256 DUP1 SLOAD PUSH1 0x1 PUSH1 0x1 PUSH1 0xA0 SHL SUB NOT AND SWAP2 SWAP1 SWAP3 AND OR SWAP1 SSTORE JUMP JUMPDEST PUSH2 0xA33 PUSH2 0x142E JUMP JUMPDEST PUSH2 0xA3D PUSH1 0x0 PUSH2 0x1488 JUMP JUMPDEST JUMP JUMPDEST PUSH1 0x1 PUSH1 0x1 PUSH1 0xA0 SHL SUB DUP2 AND PUSH1 0x0 SWAP1 DUP2 MSTORE PUSH1 0x6 PUSH1 0x20 MSTORE PUSH1 0x40 DUP2 KECCAK256 SLOAD ISZERO PUSH2 0x9AB JUMPI PUSH1 0x1 PUSH1 0x1 PUSH1 0xA0 SHL SUB DUP3 AND PUSH1 0x0 SWAP1 DUP2 MSTORE PUSH1 0x5 PUSH1 0x20 SWAP1 DUP2 MSTORE PUSH1 0x40 DUP1 DUP4 KECCAK256 DUP1 SLOAD DUP3 MLOAD DUP2 DUP6 MUL DUP2 ADD DUP6 ADD SWAP1 SWAP4 MSTORE DUP1 DUP4 MSTORE DUP5 SWAP4 DUP5 SWAP1 DUP5 ADD JUMPDEST DUP3 DUP3 LT ISZERO PUSH2 0xAE5 JUMPI PUSH1 0x0 DUP5 DUP2 MSTORE PUSH1 0x20 SWAP1 DUP2 SWAP1 KECCAK256 PUSH1 0x40 DUP1 MLOAD PUSH1 0x60 DUP2 ADD DUP3 MSTORE PUSH1 0x3 DUP7 MUL SWAP1 SWAP3 ADD DUP1 SLOAD PUSH1 0x1 PUSH1 0x1 PUSH1 0xA0 SHL SUB AND DUP4 MSTORE PUSH1 0x1 DUP1 DUP3 ADD SLOAD DUP5 DUP7 ADD MSTORE PUSH1 0x2 SWAP1 SWAP2 ADD SLOAD SWAP2 DUP4 ADD SWAP2 SWAP1 SWAP2 MSTORE SWAP1 DUP4 MSTORE SWAP1 SWAP3 ADD SWAP2 ADD PUSH2 0xA90 JUMP JUMPDEST POP POP POP POP SWAP1 POP PUSH1 0x0 JUMPDEST DUP2 MLOAD DUP2 LT ISZERO PUSH2 0xC16 JUMPI PUSH1 0x0 DUP1 PUSH1 0x0 DUP5 DUP5 DUP2 MLOAD DUP2 LT PUSH2 0xB0E JUMPI PUSH2 0xB0E PUSH2 0x1611 JUMP JUMPDEST PUSH1 0x20 MUL PUSH1 0x20 ADD ADD MLOAD PUSH1 0x0 ADD MLOAD SWAP1 POP PUSH1 0x0 DUP6 DUP6 DUP2 MLOAD DUP2 LT PUSH2 0xB30 JUMPI PUSH2 0xB30 PUSH2 0x1611 JUMP JUMPDEST PUSH1 0x20 MUL PUSH1 0x20 ADD ADD MLOAD PUSH1 0x20 ADD MLOAD SWAP1 POP PUSH1 0x0 DUP7 DUP7 DUP2 MLOAD DUP2 LT PUSH2 0xB52 JUMPI PUSH2 0xB52 PUSH2 0x1611 JUMP JUMPDEST PUSH1 0x20 MUL PUSH1 0x20 ADD ADD MLOAD PUSH1 0x40 ADD MLOAD SWAP1 POP PUSH1 0x0 PUSH2 0xB6C DUP4 DUP6 PUSH2 0x9B8 JUMP JUMPDEST SWAP1 POP PUSH2 0x2710 PUSH1 0x2 SLOAD DUP3 PUSH2 0xB7F SWAP2 SWAP1 PUSH2 0x1732 JUMP JUMPDEST PUSH2 0xB89 SWAP2 SWAP1 PUSH2 0x1751 JUMP JUMPDEST SWAP6 POP PUSH4 0x1E13380 PUSH1 0x0 PUSH2 0xB9C DUP5 TIMESTAMP PUSH2 0x1773 JUMP JUMPDEST SWAP1 POP PUSH1 0x0 DUP3 PUSH2 0xBAF DUP4 PUSH4 0x3B9ACA00 PUSH2 0x1732 JUMP JUMPDEST PUSH2 0xBB9 SWAP2 SWAP1 PUSH2 0x1751 JUMP JUMPDEST SWAP1 POP PUSH4 0x3B9ACA00 PUSH2 0xBCA DUP3 DUP12 PUSH2 0x1732 JUMP JUMPDEST PUSH2 0xBD4 SWAP2 SWAP1 PUSH2 0x1751 JUMP JUMPDEST PUSH1 0x3 SLOAD SWAP1 SWAP9 POP PUSH2 0xBEE SWAP1 DUP10 SWAP1 PUSH1 0x1 PUSH1 0x1 PUSH1 0xA0 SHL SUB AND PUSH2 0xF16 JUMP JUMPDEST PUSH2 0xBF8 SWAP1 DUP14 PUSH2 0x15C0 JUMP JUMPDEST SWAP12 POP POP POP POP POP POP POP POP POP POP DUP1 DUP1 PUSH2 0xC0E SWAP1 PUSH2 0x1627 JUMP JUMPDEST SWAP2 POP POP PUSH2 0xAEE JUMP JUMPDEST POP SWAP1 SWAP4 SWAP3 POP POP POP JUMP JUMPDEST PUSH1 0x0 PUSH2 0xC2A CALLER PUSH2 0xA3F JUMP JUMPDEST SWAP1 POP PUSH1 0x0 DUP2 GT PUSH2 0xC8C JUMPI PUSH1 0x40 MLOAD PUSH3 0x461BCD PUSH1 0xE5 SHL DUP2 MSTORE PUSH1 0x20 PUSH1 0x4 DUP3 ADD MSTORE PUSH1 0x27 PUSH1 0x24 DUP3 ADD MSTORE PUSH32 0x596F752068617665206E6F74206163637275656420656E6F7567687420525744 PUSH1 0x44 DUP3 ADD MSTORE PUSH7 0x20746F6B656E73 PUSH1 0xC8 SHL PUSH1 0x64 DUP3 ADD MSTORE PUSH1 0x84 ADD PUSH2 0x40B JUMP JUMPDEST PUSH1 0x3 SLOAD PUSH1 0x40 MLOAD PUSH4 0xA9059CBB PUSH1 0xE0 SHL DUP2 MSTORE CALLER PUSH1 0x4 DUP3 ADD MSTORE PUSH1 0x24 DUP2 ADD DUP4 SWAP1 MSTORE PUSH1 0x1 PUSH1 0x1 PUSH1 0xA0 SHL SUB SWAP1 SWAP2 AND SWAP1 PUSH4 0xA9059CBB SWAP1 PUSH1 0x44 ADD PUSH1 0x20 PUSH1 0x40 MLOAD DUP1 DUP4 SUB DUP2 PUSH1 0x0 DUP8 GAS CALL ISZERO DUP1 ISZERO PUSH2 0xCDD JUMPI RETURNDATASIZE PUSH1 0x0 DUP1 RETURNDATACOPY RETURNDATASIZE PUSH1 0x0 REVERT JUMPDEST POP POP POP POP PUSH1 0x40 MLOAD RETURNDATASIZE PUSH1 0x1F NOT PUSH1 0x1F DUP3 ADD AND DUP3 ADD DUP1 PUSH1 0x40 MSTORE POP DUP2 ADD SWAP1 PUSH2 0xD01 SWAP2 SWAP1 PUSH2 0x15D8 JUMP JUMPDEST POP CALLER PUSH1 0x0 SWAP1 DUP2 MSTORE PUSH1 0x5 PUSH1 0x20 MSTORE PUSH1 0x40 DUP2 KECCAK256 SWAP1 JUMPDEST DUP2 SLOAD DUP2 LT ISZERO PUSH2 0xD55 JUMPI TIMESTAMP DUP3 DUP3 DUP2 SLOAD DUP2 LT PUSH2 0xD2F JUMPI PUSH2 0xD2F PUSH2 0x1611 JUMP JUMPDEST PUSH1 0x0 SWAP2 DUP3 MSTORE PUSH1 0x20 SWAP1 SWAP2 KECCAK256 PUSH1 0x2 PUSH1 0x3 SWAP1 SWAP3 MUL ADD ADD SSTORE DUP1 PUSH2 0xD4D DUP2 PUSH2 0x1627 JUMP JUMPDEST SWAP2 POP POP PUSH2 0xD13 JUMP JUMPDEST POP POP POP JUMP JUMPDEST PUSH2 0xD62 PUSH2 0x142E JUMP JUMPDEST PUSH1 0x2 SSTORE JUMP JUMPDEST PUSH2 0xD6F PUSH2 0x142E JUMP JUMPDEST PUSH1 0x1 SLOAD PUSH1 0x0 JUMPDEST PUSH1 0x1 SLOAD DUP2 LT ISZERO PUSH2 0xDD1 JUMPI DUP3 PUSH1 0x1 PUSH1 0x1 PUSH1 0xA0 SHL SUB AND PUSH1 0x1 DUP3 DUP2 SLOAD DUP2 LT PUSH2 0xD9C JUMPI PUSH2 0xD9C PUSH2 0x1611 JUMP JUMPDEST PUSH1 0x0 SWAP2 DUP3 MSTORE PUSH1 0x20 SWAP1 SWAP2 KECCAK256 ADD SLOAD PUSH1 0x1 PUSH1 0x1 PUSH1 0xA0 SHL SUB AND EQ ISZERO PUSH2 0xDBF JUMPI DUP1 SWAP2 POP PUSH2 0xDD1 JUMP JUMPDEST DUP1 PUSH2 0xDC9 DUP2 PUSH2 0x1627 JUMP JUMPDEST SWAP2 POP POP PUSH2 0xD75 JUMP JUMPDEST POP PUSH1 0x1 SLOAD DUP2 LT PUSH2 0xE23 JUMPI PUSH1 0x40 MLOAD PUSH3 0x461BCD PUSH1 0xE5 SHL DUP2 MSTORE PUSH1 0x20 PUSH1 0x4 DUP3 ADD MSTORE PUSH1 0x1E PUSH1 0x24 DUP3 ADD MSTORE PUSH32 0x54686520746F6B656E20697320616C726561647920756E616C6C6F7765640000 PUSH1 0x44 DUP3 ADD MSTORE PUSH1 0x64 ADD PUSH2 0x40B JUMP JUMPDEST PUSH1 0x1 DUP1 SLOAD PUSH2 0xE32 SWAP1 DUP3 SWAP1 PUSH2 0x1773 JUMP JUMPDEST DUP2 SLOAD DUP2 LT PUSH2 0xE42 JUMPI PUSH2 0xE42 PUSH2 0x1611 JUMP JUMPDEST PUSH1 0x0 SWAP2 DUP3 MSTORE PUSH1 0x20 SWAP1 SWAP2 KECCAK256 ADD SLOAD PUSH1 0x1 DUP1 SLOAD PUSH1 0x1 PUSH1 0x1 PUSH1 0xA0 SHL SUB SWAP1 SWAP3 AND SWAP2 DUP4 SWAP1 DUP2 LT PUSH2 0xE6E JUMPI PUSH2 0xE6E PUSH2 0x1611 JUMP JUMPDEST SWAP1 PUSH1 0x0 MSTORE PUSH1 0x20 PUSH1 0x0 KECCAK256 ADD PUSH1 0x0 PUSH2 0x100 EXP DUP2 SLOAD DUP2 PUSH1 0x1 PUSH1 0x1 PUSH1 0xA0 SHL SUB MUL NOT AND SWAP1 DUP4 PUSH1 0x1 PUSH1 0x1 PUSH1 0xA0 SHL SUB AND MUL OR SWAP1 SSTORE POP PUSH1 0x1 DUP1 SLOAD DUP1 PUSH2 0xEAD JUMPI PUSH2 0xEAD PUSH2 0x178A JUMP JUMPDEST PUSH1 0x0 DUP3 DUP2 MSTORE PUSH1 0x20 SWAP1 KECCAK256 DUP2 ADD PUSH1 0x0 NOT SWAP1 DUP2 ADD DUP1 SLOAD PUSH1 0x1 PUSH1 0x1 PUSH1 0xA0 SHL SUB NOT AND SWAP1 SSTORE ADD SWAP1 SSTORE PUSH1 0x40 MLOAD PUSH32 0x564B89698F7ED468CC4FD744742E329FDDD973BA260C976968AEB4ACFE78B733 SWAP1 PUSH2 0x8C6 SWAP1 CALLER SWAP1 DUP6 SWAP1 PUSH1 0x1 PUSH1 0x1 PUSH1 0xA0 SHL SUB SWAP3 DUP4 AND DUP2 MSTORE SWAP2 AND PUSH1 0x20 DUP3 ADD MSTORE PUSH1 0x40 ADD SWAP1 JUMP JUMPDEST PUSH1 0x0 DUP1 PUSH1 0x0 PUSH2 0xF24 DUP5 PUSH2 0xF8B JUMP JUMPDEST SWAP1 SWAP3 POP SWAP1 POP DUP2 PUSH2 0xF35 DUP3 PUSH1 0xA PUSH2 0x1726 JUMP JUMPDEST PUSH2 0x9E0 SWAP1 DUP8 PUSH2 0x1732 JUMP JUMPDEST PUSH1 0x5 PUSH1 0x20 MSTORE DUP2 PUSH1 0x0 MSTORE PUSH1 0x40 PUSH1 0x0 KECCAK256 DUP2 DUP2 SLOAD DUP2 LT PUSH2 0xF5B JUMPI PUSH1 0x0 DUP1 REVERT JUMPDEST PUSH1 0x0 SWAP2 DUP3 MSTORE PUSH1 0x20 SWAP1 SWAP2 KECCAK256 PUSH1 0x3 SWAP1 SWAP2 MUL ADD DUP1 SLOAD PUSH1 0x1 DUP3 ADD SLOAD PUSH1 0x2 SWAP1 SWAP3 ADD SLOAD PUSH1 0x1 PUSH1 0x1 PUSH1 0xA0 SHL SUB SWAP1 SWAP2 AND SWAP4 POP SWAP1 SWAP2 POP DUP4 JUMP JUMPDEST PUSH1 0x1 PUSH1 0x1 PUSH1 0xA0 SHL SUB DUP1 DUP3 AND PUSH1 0x0 SWAP1 DUP2 MSTORE PUSH1 0x8 PUSH1 0x20 MSTORE PUSH1 0x40 DUP1 DUP3 KECCAK256 SLOAD DUP2 MLOAD PUSH4 0x3FABE5A3 PUSH1 0xE2 SHL DUP2 MSTORE SWAP2 MLOAD SWAP3 SWAP4 DUP5 SWAP4 SWAP2 AND SWAP2 DUP3 SWAP2 DUP5 SWAP2 DUP4 SWAP2 PUSH4 0xFEAF968C SWAP2 PUSH1 0x4 DUP1 DUP3 ADD SWAP3 PUSH1 0xA0 SWAP3 SWAP1 SWAP2 SWAP1 DUP3 SWAP1 SUB ADD DUP2 DUP7 GAS STATICCALL ISZERO DUP1 ISZERO PUSH2 0xFEC JUMPI RETURNDATASIZE PUSH1 0x0 DUP1 RETURNDATACOPY RETURNDATASIZE PUSH1 0x0 REVERT JUMPDEST POP POP POP POP PUSH1 0x40 MLOAD RETURNDATASIZE PUSH1 0x1F NOT PUSH1 0x1F DUP3 ADD AND DUP3 ADD DUP1 PUSH1 0x40 MSTORE POP DUP2 ADD SWAP1 PUSH2 0x1010 SWAP2 SWAP1 PUSH2 0x17BA JUMP JUMPDEST POP POP POP SWAP2 POP POP PUSH1 0x0 DUP3 PUSH1 0x1 PUSH1 0x1 PUSH1 0xA0 SHL SUB AND PUSH4 0x313CE567 PUSH1 0x40 MLOAD DUP2 PUSH4 0xFFFFFFFF AND PUSH1 0xE0 SHL DUP2 MSTORE PUSH1 0x4 ADD PUSH1 0x20 PUSH1 0x40 MLOAD DUP1 DUP4 SUB DUP2 DUP7 GAS STATICCALL ISZERO DUP1 ISZERO PUSH2 0x1056 JUMPI RETURNDATASIZE PUSH1 0x0 DUP1 RETURNDATACOPY RETURNDATASIZE PUSH1 0x0 REVERT JUMPDEST POP POP POP POP PUSH1 0x40 MLOAD RETURNDATASIZE PUSH1 0x1F NOT PUSH1 0x1F DUP3 ADD AND DUP3 ADD DUP1 PUSH1 0x40 MSTORE POP DUP2 ADD SWAP1 PUSH2 0x107A SWAP2 SWAP1 PUSH2 0x180A JUMP JUMPDEST SWAP2 SWAP8 PUSH1 0xFF SWAP1 SWAP3 AND SWAP7 POP SWAP1 SWAP5 POP POP POP POP POP JUMP JUMPDEST PUSH2 0x1094 PUSH2 0x142E JUMP JUMPDEST PUSH1 0x1 PUSH1 0x1 PUSH1 0xA0 SHL SUB DUP2 AND PUSH2 0x10F9 JUMPI PUSH1 0x40 MLOAD PUSH3 0x461BCD PUSH1 0xE5 SHL DUP2 MSTORE PUSH1 0x20 PUSH1 0x4 DUP3 ADD MSTORE PUSH1 0x26 PUSH1 0x24 DUP3 ADD MSTORE PUSH32 0x4F776E61626C653A206E6577206F776E657220697320746865207A65726F2061 PUSH1 0x44 DUP3 ADD MSTORE PUSH6 0x646472657373 PUSH1 0xD0 SHL PUSH1 0x64 DUP3 ADD MSTORE PUSH1 0x84 ADD PUSH2 0x40B JUMP JUMPDEST PUSH2 0x1102 DUP2 PUSH2 0x1488 JUMP JUMPDEST POP JUMP JUMPDEST PUSH1 0x0 DUP1 JUMPDEST PUSH1 0x1 SLOAD DUP2 LT ISZERO PUSH2 0x1166 JUMPI DUP3 PUSH1 0x1 PUSH1 0x1 PUSH1 0xA0 SHL SUB AND PUSH1 0x1 DUP3 DUP2 SLOAD DUP2 LT PUSH2 0x1130 JUMPI PUSH2 0x1130 PUSH2 0x1611 JUMP JUMPDEST PUSH1 0x0 SWAP2 DUP3 MSTORE PUSH1 0x20 SWAP1 SWAP2 KECCAK256 ADD SLOAD PUSH1 0x1 PUSH1 0x1 PUSH1 0xA0 SHL SUB AND EQ ISZERO PUSH2 0x1154 JUMPI POP PUSH1 0x1 SWAP3 SWAP2 POP POP JUMP JUMPDEST DUP1 PUSH2 0x115E DUP2 PUSH2 0x1627 JUMP JUMPDEST SWAP2 POP POP PUSH2 0x1109 JUMP JUMPDEST POP PUSH1 0x0 SWAP3 SWAP2 POP POP JUMP JUMPDEST PUSH1 0x4 DUP2 DUP2 SLOAD DUP2 LT PUSH2 0x8E2 JUMPI PUSH1 0x0 DUP1 REVERT JUMPDEST PUSH1 0x1 PUSH1 0x1 PUSH1 0xA0 SHL SUB DUP1 DUP3 AND PUSH1 0x0 SWAP1 DUP2 MSTORE PUSH1 0x7 PUSH1 0x20 SWAP1 DUP2 MSTORE PUSH1 0x40 DUP1 DUP4 KECCAK256 SWAP4 DUP7 AND DUP4 MSTORE SWAP3 SWAP1 MSTORE KECCAK256 SLOAD PUSH2 0x78A JUMPI PUSH1 0x1 PUSH1 0x1 PUSH1 0xA0 SHL SUB DUP3 AND PUSH1 0x0 SWAP1 DUP2 MSTORE PUSH1 0x6 PUSH1 0x20 MSTORE PUSH1 0x40 DUP2 KECCAK256 DUP1 SLOAD PUSH1 0x1 SWAP3 SWAP1 PUSH2 0x11D2 SWAP1 DUP5 SWAP1 PUSH2 0x15C0 JUMP JUMPDEST SWAP1 SWAP2 SSTORE POP POP POP POP JUMP JUMPDEST CALLER PUSH1 0x0 SWAP1 DUP2 MSTORE PUSH1 0x5 PUSH1 0x20 MSTORE PUSH1 0x40 DUP2 KECCAK256 SWAP1 JUMPDEST DUP2 SLOAD PUSH2 0xFFFF DUP3 AND LT ISZERO PUSH2 0xD55 JUMPI DUP3 PUSH1 0x1 PUSH1 0x1 PUSH1 0xA0 SHL SUB AND DUP3 DUP3 PUSH2 0xFFFF AND DUP2 SLOAD DUP2 LT PUSH2 0x1219 JUMPI PUSH2 0x1219 PUSH2 0x1611 JUMP JUMPDEST PUSH1 0x0 SWAP2 DUP3 MSTORE PUSH1 0x20 SWAP1 SWAP2 KECCAK256 PUSH1 0x3 SWAP1 SWAP2 MUL ADD SLOAD PUSH1 0x1 PUSH1 0x1 PUSH1 0xA0 SHL SUB AND EQ ISZERO PUSH2 0x1301 JUMPI DUP2 SLOAD DUP3 SWAP1 PUSH2 0x1249 SWAP1 PUSH1 0x1 SWAP1 PUSH2 0x1773 JUMP JUMPDEST DUP2 SLOAD DUP2 LT PUSH2 0x1259 JUMPI PUSH2 0x1259 PUSH2 0x1611 JUMP JUMPDEST SWAP1 PUSH1 0x0 MSTORE PUSH1 0x20 PUSH1 0x0 KECCAK256 SWAP1 PUSH1 0x3 MUL ADD DUP3 DUP3 PUSH2 0xFFFF AND DUP2 SLOAD DUP2 LT PUSH2 0x127D JUMPI PUSH2 0x127D PUSH2 0x1611 JUMP JUMPDEST PUSH1 0x0 SWAP2 DUP3 MSTORE PUSH1 0x20 SWAP1 SWAP2 KECCAK256 DUP3 SLOAD PUSH1 0x3 SWAP1 SWAP3 MUL ADD DUP1 SLOAD PUSH1 0x1 PUSH1 0x1 PUSH1 0xA0 SHL SUB NOT AND PUSH1 0x1 PUSH1 0x1 PUSH1 0xA0 SHL SUB SWAP1 SWAP3 AND SWAP2 SWAP1 SWAP2 OR DUP2 SSTORE PUSH1 0x1 DUP1 DUP4 ADD SLOAD SWAP1 DUP3 ADD SSTORE PUSH1 0x2 SWAP2 DUP3 ADD SLOAD SWAP2 ADD SSTORE DUP2 SLOAD DUP3 SWAP1 DUP1 PUSH2 0x12D0 JUMPI PUSH2 0x12D0 PUSH2 0x178A JUMP JUMPDEST PUSH1 0x0 DUP3 DUP2 MSTORE PUSH1 0x20 DUP2 KECCAK256 PUSH1 0x3 PUSH1 0x0 NOT SWAP1 SWAP4 ADD SWAP3 DUP4 MUL ADD DUP1 SLOAD PUSH1 0x1 PUSH1 0x1 PUSH1 0xA0 SHL SUB NOT AND DUP2 SSTORE PUSH1 0x1 DUP2 ADD DUP3 SWAP1 SSTORE PUSH1 0x2 ADD SSTORE SWAP1 SSTORE JUMPDEST DUP1 PUSH2 0x130B DUP2 PUSH2 0x182D JUMP JUMPDEST SWAP2 POP POP PUSH2 0x11EC JUMP JUMPDEST CALLER PUSH1 0x0 SWAP1 DUP2 MSTORE PUSH1 0x6 PUSH1 0x20 MSTORE PUSH1 0x40 SWAP1 KECCAK256 SLOAD PUSH2 0xA3D JUMPI PUSH1 0x0 JUMPDEST PUSH1 0x4 SLOAD DUP2 LT ISZERO PUSH2 0x1102 JUMPI CALLER PUSH1 0x1 PUSH1 0x1 PUSH1 0xA0 SHL SUB AND PUSH1 0x4 DUP3 DUP2 SLOAD DUP2 LT PUSH2 0x1351 JUMPI PUSH2 0x1351 PUSH2 0x1611 JUMP JUMPDEST PUSH1 0x0 SWAP2 DUP3 MSTORE PUSH1 0x20 SWAP1 SWAP2 KECCAK256 ADD SLOAD PUSH1 0x1 PUSH1 0x1 PUSH1 0xA0 SHL SUB AND EQ ISZERO PUSH2 0x141C JUMPI PUSH1 0x4 DUP1 SLOAD PUSH2 0x137C SWAP1 PUSH1 0x1 SWAP1 PUSH2 0x1773 JUMP JUMPDEST DUP2 SLOAD DUP2 LT PUSH2 0x138C JUMPI PUSH2 0x138C PUSH2 0x1611 JUMP JUMPDEST PUSH1 0x0 SWAP2 DUP3 MSTORE PUSH1 0x20 SWAP1 SWAP2 KECCAK256 ADD SLOAD PUSH1 0x4 DUP1 SLOAD PUSH1 0x1 PUSH1 0x1 PUSH1 0xA0 SHL SUB SWAP1 SWAP3 AND SWAP2 DUP4 SWAP1 DUP2 LT PUSH2 0x13B8 JUMPI PUSH2 0x13B8 PUSH2 0x1611 JUMP JUMPDEST SWAP1 PUSH1 0x0 MSTORE PUSH1 0x20 PUSH1 0x0 KECCAK256 ADD PUSH1 0x0 PUSH2 0x100 EXP DUP2 SLOAD DUP2 PUSH1 0x1 PUSH1 0x1 PUSH1 0xA0 SHL SUB MUL NOT AND SWAP1 DUP4 PUSH1 0x1 PUSH1 0x1 PUSH1 0xA0 SHL SUB AND MUL OR SWAP1 SSTORE POP PUSH1 0x4 DUP1 SLOAD DUP1 PUSH2 0x13F7 JUMPI PUSH2 0x13F7 PUSH2 0x178A JUMP JUMPDEST PUSH1 0x0 DUP3 DUP2 MSTORE PUSH1 0x20 SWAP1 KECCAK256 DUP2 ADD PUSH1 0x0 NOT SWAP1 DUP2 ADD DUP1 SLOAD PUSH1 0x1 PUSH1 0x1 PUSH1 0xA0 SHL SUB NOT AND SWAP1 SSTORE ADD SWAP1 SSTORE POP JUMP JUMPDEST DUP1 PUSH2 0x1426 DUP2 PUSH2 0x1627 JUMP JUMPDEST SWAP2 POP POP PUSH2 0x132A JUMP JUMPDEST PUSH1 0x0 SLOAD PUSH1 0x1 PUSH1 0x1 PUSH1 0xA0 SHL SUB AND CALLER EQ PUSH2 0xA3D JUMPI PUSH1 0x40 MLOAD PUSH3 0x461BCD PUSH1 0xE5 SHL DUP2 MSTORE PUSH1 0x20 PUSH1 0x4 DUP3 ADD DUP2 SWAP1 MSTORE PUSH1 0x24 DUP3 ADD MSTORE PUSH32 0x4F776E61626C653A2063616C6C6572206973206E6F7420746865206F776E6572 PUSH1 0x44 DUP3 ADD MSTORE PUSH1 0x64 ADD PUSH2 0x40B JUMP JUMPDEST PUSH1 0x0 DUP1 SLOAD PUSH1 0x1 PUSH1 0x1 PUSH1 0xA0 SHL SUB DUP4 DUP2 AND PUSH1 0x1 PUSH1 0x1 PUSH1 0xA0 SHL SUB NOT DUP4 AND DUP2 OR DUP5 SSTORE PUSH1 0x40 MLOAD SWAP2 SWAP1 SWAP3 AND SWAP3 DUP4 SWAP2 PUSH32 0x8BE0079C531659141344CD1FD0A4F28419497F9722A3DAAFE3B4186F6B6457E0 SWAP2 SWAP1 LOG3 POP POP JUMP JUMPDEST DUP1 CALLDATALOAD PUSH1 0x1 PUSH1 0x1 PUSH1 0xA0 SHL SUB DUP2 AND DUP2 EQ PUSH2 0x9B3 JUMPI PUSH1 0x0 DUP1 REVERT JUMPDEST PUSH1 0x0 DUP1 PUSH1 0x40 DUP4 DUP6 SUB SLT ISZERO PUSH2 0x1502 JUMPI PUSH1 0x0 DUP1 REVERT JUMPDEST DUP3 CALLDATALOAD SWAP2 POP PUSH2 0x1512 PUSH1 0x20 DUP5 ADD PUSH2 0x14D8 JUMP JUMPDEST SWAP1 POP SWAP3 POP SWAP3 SWAP1 POP JUMP JUMPDEST PUSH1 0x0 PUSH1 0x20 DUP3 DUP5 SUB SLT ISZERO PUSH2 0x152D JUMPI PUSH1 0x0 DUP1 REVERT JUMPDEST PUSH2 0x1536 DUP3 PUSH2 0x14D8 JUMP JUMPDEST SWAP4 SWAP3 POP POP POP JUMP JUMPDEST PUSH1 0x0 DUP1 PUSH1 0x40 DUP4 DUP6 SUB SLT ISZERO PUSH2 0x1550 JUMPI PUSH1 0x0 DUP1 REVERT JUMPDEST PUSH2 0x1559 DUP4 PUSH2 0x14D8 JUMP JUMPDEST SWAP2 POP PUSH2 0x1512 PUSH1 0x20 DUP5 ADD PUSH2 0x14D8 JUMP JUMPDEST PUSH1 0x0 PUSH1 0x20 DUP3 DUP5 SUB SLT ISZERO PUSH2 0x1579 JUMPI PUSH1 0x0 DUP1 REVERT JUMPDEST POP CALLDATALOAD SWAP2 SWAP1 POP JUMP JUMPDEST PUSH1 0x0 DUP1 PUSH1 0x40 DUP4 DUP6 SUB SLT ISZERO PUSH2 0x1593 JUMPI PUSH1 0x0 DUP1 REVERT JUMPDEST PUSH2 0x159C DUP4 PUSH2 0x14D8 JUMP JUMPDEST SWAP5 PUSH1 0x20 SWAP4 SWAP1 SWAP4 ADD CALLDATALOAD SWAP4 POP POP POP JUMP JUMPDEST PUSH4 0x4E487B71 PUSH1 0xE0 SHL PUSH1 0x0 MSTORE PUSH1 0x11 PUSH1 0x4 MSTORE PUSH1 0x24 PUSH1 0x0 REVERT JUMPDEST PUSH1 0x0 DUP3 NOT DUP3 GT ISZERO PUSH2 0x15D3 JUMPI PUSH2 0x15D3 PUSH2 0x15AA JUMP JUMPDEST POP ADD SWAP1 JUMP JUMPDEST PUSH1 0x0 PUSH1 0x20 DUP3 DUP5 SUB SLT ISZERO PUSH2 0x15EA JUMPI PUSH1 0x0 DUP1 REVERT JUMPDEST DUP2 MLOAD DUP1 ISZERO ISZERO DUP2 EQ PUSH2 0x1536 JUMPI PUSH1 0x0 DUP1 REVERT JUMPDEST PUSH1 0x0 DUP2 PUSH2 0x1609 JUMPI PUSH2 0x1609 PUSH2 0x15AA JUMP JUMPDEST POP PUSH1 0x0 NOT ADD SWAP1 JUMP JUMPDEST PUSH4 0x4E487B71 PUSH1 0xE0 SHL PUSH1 0x0 MSTORE PUSH1 0x32 PUSH1 0x4 MSTORE PUSH1 0x24 PUSH1 0x0 REVERT JUMPDEST PUSH1 0x0 PUSH1 0x0 NOT DUP3 EQ ISZERO PUSH2 0x163B JUMPI PUSH2 0x163B PUSH2 0x15AA JUMP JUMPDEST POP PUSH1 0x1 ADD SWAP1 JUMP JUMPDEST PUSH1 0x1 DUP2 DUP2 JUMPDEST DUP1 DUP6 GT ISZERO PUSH2 0x167D JUMPI DUP2 PUSH1 0x0 NOT DIV DUP3 GT ISZERO PUSH2 0x1663 JUMPI PUSH2 0x1663 PUSH2 0x15AA JUMP JUMPDEST DUP1 DUP6 AND ISZERO PUSH2 0x1670 JUMPI SWAP2 DUP2 MUL SWAP2 JUMPDEST SWAP4 DUP5 SHR SWAP4 SWAP1 DUP1 MUL SWAP1 PUSH2 0x1647 JUMP JUMPDEST POP SWAP3 POP SWAP3 SWAP1 POP JUMP JUMPDEST PUSH1 0x0 DUP3 PUSH2 0x1694 JUMPI POP PUSH1 0x1 PUSH2 0x9EF JUMP JUMPDEST DUP2 PUSH2 0x16A1 JUMPI POP PUSH1 0x0 PUSH2 0x9EF JUMP JUMPDEST DUP2 PUSH1 0x1 DUP2 EQ PUSH2 0x16B7 JUMPI PUSH1 0x2 DUP2 EQ PUSH2 0x16C1 JUMPI PUSH2 0x16DD JUMP JUMPDEST PUSH1 0x1 SWAP2 POP POP PUSH2 0x9EF JUMP JUMPDEST PUSH1 0xFF DUP5 GT ISZERO PUSH2 0x16D2 JUMPI PUSH2 0x16D2 PUSH2 0x15AA JUMP JUMPDEST POP POP PUSH1 0x1 DUP3 SHL PUSH2 0x9EF JUMP JUMPDEST POP PUSH1 0x20 DUP4 LT PUSH2 0x133 DUP4 LT AND PUSH1 0x4E DUP5 LT PUSH1 0xB DUP5 LT AND OR ISZERO PUSH2 0x1700 JUMPI POP DUP2 DUP2 EXP PUSH2 0x9EF JUMP JUMPDEST PUSH2 0x170A DUP4 DUP4 PUSH2 0x1642 JUMP JUMPDEST DUP1 PUSH1 0x0 NOT DIV DUP3 GT ISZERO PUSH2 0x171E JUMPI PUSH2 0x171E PUSH2 0x15AA JUMP JUMPDEST MUL SWAP4 SWAP3 POP POP POP JUMP JUMPDEST PUSH1 0x0 PUSH2 0x1536 DUP4 DUP4 PUSH2 0x1685 JUMP JUMPDEST PUSH1 0x0 DUP2 PUSH1 0x0 NOT DIV DUP4 GT DUP3 ISZERO ISZERO AND ISZERO PUSH2 0x174C JUMPI PUSH2 0x174C PUSH2 0x15AA JUMP JUMPDEST POP MUL SWAP1 JUMP JUMPDEST PUSH1 0x0 DUP3 PUSH2 0x176E JUMPI PUSH4 0x4E487B71 PUSH1 0xE0 SHL PUSH1 0x0 MSTORE PUSH1 0x12 PUSH1 0x4 MSTORE PUSH1 0x24 PUSH1 0x0 REVERT JUMPDEST POP DIV SWAP1 JUMP JUMPDEST PUSH1 0x0 DUP3 DUP3 LT ISZERO PUSH2 0x1785 JUMPI PUSH2 0x1785 PUSH2 0x15AA JUMP JUMPDEST POP SUB SWAP1 JUMP JUMPDEST PUSH4 0x4E487B71 PUSH1 0xE0 SHL PUSH1 0x0 MSTORE PUSH1 0x31 PUSH1 0x4 MSTORE PUSH1 0x24 PUSH1 0x0 REVERT JUMPDEST DUP1 MLOAD PUSH10 0xFFFFFFFFFFFFFFFFFFFF DUP2 AND DUP2 EQ PUSH2 0x9B3 JUMPI PUSH1 0x0 DUP1 REVERT JUMPDEST PUSH1 0x0 DUP1 PUSH1 0x0 DUP1 PUSH1 0x0 PUSH1 0xA0 DUP7 DUP9 SUB SLT ISZERO PUSH2 0x17D2 JUMPI PUSH1 0x0 DUP1 REVERT JUMPDEST PUSH2 0x17DB DUP7 PUSH2 0x17A0 JUMP JUMPDEST SWAP5 POP PUSH1 0x20 DUP7 ADD MLOAD SWAP4 POP PUSH1 0x40 DUP7 ADD MLOAD SWAP3 POP PUSH1 0x60 DUP7 ADD MLOAD SWAP2 POP PUSH2 0x17FE PUSH1 0x80 DUP8 ADD PUSH2 0x17A0 JUMP JUMPDEST SWAP1 POP SWAP3 SWAP6 POP SWAP3 SWAP6 SWAP1 SWAP4 POP JUMP JUMPDEST PUSH1 0x0 PUSH1 0x20 DUP3 DUP5 SUB SLT ISZERO PUSH2 0x181C JUMPI PUSH1 0x0 DUP1 REVERT JUMPDEST DUP2 MLOAD PUSH1 0xFF DUP2 AND DUP2 EQ PUSH2 0x1536 JUMPI PUSH1 0x0 DUP1 REVERT JUMPDEST PUSH1 0x0 PUSH2 0xFFFF DUP1 DUP4 AND DUP2 DUP2 EQ ISZERO PUSH2 0x1845 JUMPI PUSH2 0x1845 PUSH2 0x15AA JUMP JUMPDEST PUSH1 0x1 ADD SWAP4 SWAP3 POP POP POP JUMP INVALID LOG2 PUSH5 0x6970667358 0x22 SLT KECCAK256 PUSH24 0xD979EA6647C4BEEE3DA4D567E3D4C0F692A7D4D693BE693B 0xBF SWAP14 SHL CALLER 0xD6 AND 0xAF PUSH5 0x736F6C6343 STOP ADDMOD 0xC STOP CALLER ","sha1":"349957797214848ac999f4350e32d2583aae9387","source":"// SPDX-License-Identifier: MIT\npragma solidity ^0.8.0;\n\nimport \"@openzeppelin/contracts/access/Ownable.sol\";\nimport \"@openzeppelin/contracts/token/ERC20/IERC20.sol\";\nimport \"@chainlink/contracts/src/v0.8/interfaces/AggregatorV3Interface.sol\";\nimport \"./AllowTokens.sol\";\n\ncontract TokenFarm is AllowTokens {\n    struct Stake {\n        address token;\n        uint256 amount;\n        uint256 lastWithdrawTime;\n    }\n\n    // info APR expressed with 2 decimals\n    // es: 17,81% -> 1781\n    uint256 public APR;\n    IERC20 public rewardToken;\n    address[] public stakers;\n    mapping(address => Stake[]) public staker_stakes;\n    mapping(address => uint256) public staker_distinctTokenNumber;\n    mapping(address => mapping(address => uint256)) public token_staker_amount;\n    mapping(address => address) public token_priceFeed;\n\n    constructor(address _rewardToken) {\n        rewardToken = IERC20(_rewardToken);\n        APR = 1500; // 15%\n    }\n\n    function stakeTokens(uint256 _amount, address _token) public {\n        require(_amount > 0, \"Amount must be more than 0 tokens\");\n        require(\n            isTokenAllowed(_token),\n            \"Token not allowed on the platform yet\"\n        );\n\n        if (staker_distinctTokenNumber[msg.sender] == 0) {\n            stakers.push(msg.sender);\n        }\n        updatedistinctTokensStaked(msg.sender, _token);\n        Stake memory stake = Stake(_token, _amount, block.timestamp);\n        staker_stakes[msg.sender].push(stake);\n        token_staker_amount[_token][msg.sender] += _amount;\n\n        IERC20(_token).transferFrom(msg.sender, address(this), _amount);\n    }\n\n    function unstakeTokenAndWithdrawMyReward(address _token) public {\n        // security is vulnerable to reentrancy attacks?\n        require(\n            isTokenAllowed(_token),\n            \"Token doesn't exists on the platform yet\"\n        );\n        uint256 balance = token_staker_amount[_token][msg.sender];\n        require(balance > 0, \"Staked balance is zero\");\n\n        IERC20(_token).transfer(msg.sender, balance);\n        withdrawMyReward();\n\n        token_staker_amount[_token][msg.sender] = 0;\n        staker_distinctTokenNumber[msg.sender]--;\n\n        deleteMyTokenStake(_token);\n\n        maybeRemoveMeFromStakers();\n    }\n\n    function withdrawMyReward() public {\n        uint256 myReward = getUserAccruedReward(msg.sender);\n        require(myReward > 0, \"You have not accrued enought RWD tokens\");\n        rewardToken.transfer(msg.sender, myReward);\n\n        Stake[] storage myStakes = staker_stakes[msg.sender];\n        for (uint256 i = 0; i < myStakes.length; i++) {\n            myStakes[i].lastWithdrawTime = block.timestamp;\n        }\n\n        //todo update APR dynamically\n        //remainingRWD = rewardToken.balance(address(this));\n        //previousRWD = remainingRWD + myReward;\n    }\n\n    function setTokenPriceFeed(address token, address priceFeed)\n        public\n        onlyOwner\n    {\n        token_priceFeed[token] = priceFeed;\n    }\n\n    function setAPR(uint256 newAPR) public onlyOwner {\n        APR = newAPR;\n    }\n\n    function getUserTVL(address user) public view returns (uint256) {\n        if (staker_distinctTokenNumber[user] > 0) {\n            uint256 totalValue = 0;\n\n            for (uint256 i = 0; i < allowedTokens.length; i++) {\n                address token = allowedTokens[i];\n                uint256 amount = token_staker_amount[token][user];\n                if (amount > 0) {\n                    totalValue += getUserTokenValue(amount, token);\n                }\n            }\n            return totalValue;\n        } else return 0;\n    }\n\n    function getUserAccruedReward(address user) public view returns (uint256) {\n        if (staker_distinctTokenNumber[user] > 0) {\n            uint256 totalReward = 0;\n\n            Stake[] memory myStake = staker_stakes[user];\n            for (uint256 i = 0; i < myStake.length; i++) {\n                uint256 stakeAnnualValue = 0;\n                uint256 accruedValue = 0;\n                address token = myStake[i].token;\n                uint256 amount = myStake[i].amount;\n                uint256 stakeTime = myStake[i].lastWithdrawTime;\n\n                uint256 tvlStake = getUserTokenValue(amount, token);\n                stakeAnnualValue = (tvlStake * APR) / 10**4;\n\n                uint256 year = 365 days;\n                uint256 timeSinceStake = block.timestamp - stakeTime;\n                uint256 accruedSoFarPercent = (timeSinceStake * 10**9) / year;\n\n                accruedValue = (stakeAnnualValue * accruedSoFarPercent) / 10**9;\n                totalReward += getTokenFromValue(\n                    accruedValue,\n                    address(rewardToken)\n                );\n            }\n            return totalReward;\n        } else return 0;\n    }\n\n    function getUserTokenValue(uint256 amount, address token)\n        public\n        view\n        returns (uint256)\n    {\n        (uint256 price, uint256 decimals) = getTokenValue(token);\n        return (amount * price) / 10**(decimals);\n    }\n\n    function getTokenFromValue(uint256 amount, address token)\n        public\n        view\n        returns (uint256)\n    {\n        (uint256 price, uint256 decimals) = getTokenValue(token);\n        return (amount * 10**decimals) / price;\n    }\n\n    function getTokenValue(address token)\n        public\n        view\n        returns (uint256, uint256)\n    {\n        address tokenPriceFeed = token_priceFeed[token];\n        AggregatorV3Interface priceFeed = AggregatorV3Interface(tokenPriceFeed);\n\n        (, int256 price, , , ) = priceFeed.latestRoundData();\n        uint256 decimals = priceFeed.decimals();\n\n        return (uint256(price), decimals);\n    }\n\n    function updatedistinctTokensStaked(address user, address token) internal {\n        if (token_staker_amount[token][user] <= 0) {\n            staker_distinctTokenNumber[user] += 1;\n        }\n    }\n\n    function deleteMyTokenStake(address _token) internal {\n        Stake[] storage myStakes = staker_stakes[msg.sender];\n        for (uint16 i = 0; i < myStakes.length; i++) {\n            if (myStakes[i].token == _token) {\n                myStakes[i] = myStakes[myStakes.length - 1];\n                myStakes.pop();\n            }\n        }\n    }\n\n    function maybeRemoveMeFromStakers() internal {\n        if (staker_distinctTokenNumber[msg.sender] == 0) {\n            for (uint256 i = 0; i < stakers.length; i++) {\n                if (stakers[i] == msg.sender) {\n                    stakers[i] = stakers[stakers.length - 1];\n                    stakers.pop();\n                    break;\n                }\n            }\n        }\n    }\n}\n","sourcePath":"contracts/TokenFarm.sol","type":"contract","deployment":{"address":"0xFE84F4Fd9B354912E9CCE82801e6d4E9217749bb","chainid":"5","blockHeight":8300010}}