{
  "abi": [
    {
      "inputs": [
        {
          "internalType": "uint256",
          "name": "initialSupply",
          "type": "uint256"
        }
      ],
      "stateMutability": "nonpayable",
      "type": "constructor"
    },
    {
      "anonymous": false,
      "inputs": [
        {
          "indexed": false,
          "internalType": "address",
          "name": "admin",
          "type": "address"
        },
        {
          "indexed": false,
          "internalType": "address",
          "name": "token",
          "type": "address"
        },
        {
          "indexed": false,
          "internalType": "address",
          "name": "priceFeed",
          "type": "address"
        }
      ],
      "name": "AddedPriceFeed",
      "type": "event"
    },
    {
      "anonymous": false,
      "inputs": [
        {
          "indexed": false,
          "internalType": "address",
          "name": "admin",
          "type": "address"
        },
        {
          "indexed": false,
          "internalType": "address",
          "name": "token",
          "type": "address"
        }
      ],
      "name": "AllowToken",
      "type": "event"
    },
    {
      "anonymous": false,
      "inputs": [
        {
          "indexed": true,
          "internalType": "address",
          "name": "owner",
          "type": "address"
        },
        {
          "indexed": true,
          "internalType": "address",
          "name": "spender",
          "type": "address"
        },
        {
          "indexed": false,
          "internalType": "uint256",
          "name": "value",
          "type": "uint256"
        }
      ],
      "name": "Approval",
      "type": "event"
    },
    {
      "anonymous": false,
      "inputs": [
        {
          "indexed": false,
          "internalType": "address",
          "name": "admin",
          "type": "address"
        }
      ],
      "name": "CashOut",
      "type": "event"
    },
    {
      "anonymous": false,
      "inputs": [
        {
          "indexed": false,
          "internalType": "address",
          "name": "admin",
          "type": "address"
        },
        {
          "indexed": false,
          "internalType": "address",
          "name": "token",
          "type": "address"
        }
      ],
      "name": "DisallowToken",
      "type": "event"
    },
    {
      "anonymous": false,
      "inputs": [
        {
          "indexed": false,
          "internalType": "address",
          "name": "from",
          "type": "address"
        },
        {
          "indexed": false,
          "internalType": "address",
          "name": "exchangeToken",
          "type": "address"
        },
        {
          "indexed": false,
          "internalType": "uint256",
          "name": "amountIn",
          "type": "uint256"
        },
        {
          "indexed": false,
          "internalType": "uint256",
          "name": "amountRwdOut",
          "type": "uint256"
        }
      ],
      "name": "Exchange",
      "type": "event"
    },
    {
      "anonymous": false,
      "inputs": [
        {
          "indexed": true,
          "internalType": "address",
          "name": "previousOwner",
          "type": "address"
        },
        {
          "indexed": true,
          "internalType": "address",
          "name": "newOwner",
          "type": "address"
        }
      ],
      "name": "OwnershipTransferred",
      "type": "event"
    },
    {
      "anonymous": false,
      "inputs": [
        {
          "indexed": false,
          "internalType": "address",
          "name": "admin",
          "type": "address"
        },
        {
          "indexed": false,
          "internalType": "address",
          "name": "token",
          "type": "address"
        }
      ],
      "name": "RemovedPriceFeed",
      "type": "event"
    },
    {
      "anonymous": false,
      "inputs": [
        {
          "indexed": true,
          "internalType": "address",
          "name": "from",
          "type": "address"
        },
        {
          "indexed": true,
          "internalType": "address",
          "name": "to",
          "type": "address"
        },
        {
          "indexed": false,
          "internalType": "uint256",
          "name": "value",
          "type": "uint256"
        }
      ],
      "name": "Transfer",
      "type": "event"
    },
    {
      "inputs": [
        {
          "internalType": "address",
          "name": "token",
          "type": "address"
        }
      ],
      "name": "addAllowedToken",
      "outputs": [],
      "stateMutability": "nonpayable",
      "type": "function"
    },
    {
      "inputs": [
        {
          "internalType": "address",
          "name": "owner",
          "type": "address"
        },
        {
          "internalType": "address",
          "name": "spender",
          "type": "address"
        }
      ],
      "name": "allowance",
      "outputs": [
        {
          "internalType": "uint256",
          "name": "",
          "type": "uint256"
        }
      ],
      "stateMutability": "view",
      "type": "function"
    },
    {
      "inputs": [
        {
          "internalType": "uint256",
          "name": "",
          "type": "uint256"
        }
      ],
      "name": "allowedTokens",
      "outputs": [
        {
          "internalType": "address",
          "name": "",
          "type": "address"
        }
      ],
      "stateMutability": "view",
      "type": "function"
    },
    {
      "inputs": [
        {
          "internalType": "address",
          "name": "spender",
          "type": "address"
        },
        {
          "internalType": "uint256",
          "name": "amount",
          "type": "uint256"
        }
      ],
      "name": "approve",
      "outputs": [
        {
          "internalType": "bool",
          "name": "",
          "type": "bool"
        }
      ],
      "stateMutability": "nonpayable",
      "type": "function"
    },
    {
      "inputs": [
        {
          "internalType": "address",
          "name": "account",
          "type": "address"
        }
      ],
      "name": "balanceOf",
      "outputs": [
        {
          "internalType": "uint256",
          "name": "",
          "type": "uint256"
        }
      ],
      "stateMutability": "view",
      "type": "function"
    },
    {
      "inputs": [
        {
          "internalType": "uint256",
          "name": "amount",
          "type": "uint256"
        },
        {
          "internalType": "address",
          "name": "exchangeToken",
          "type": "address"
        }
      ],
      "name": "buy",
      "outputs": [],
      "stateMutability": "nonpayable",
      "type": "function"
    },
    {
      "inputs": [],
      "name": "buyableRWD",
      "outputs": [
        {
          "internalType": "uint256",
          "name": "",
          "type": "uint256"
        }
      ],
      "stateMutability": "view",
      "type": "function"
    },
    {
      "inputs": [],
      "name": "cashOut",
      "outputs": [],
      "stateMutability": "nonpayable",
      "type": "function"
    },
    {
      "inputs": [],
      "name": "decimals",
      "outputs": [
        {
          "internalType": "uint8",
          "name": "",
          "type": "uint8"
        }
      ],
      "stateMutability": "view",
      "type": "function"
    },
    {
      "inputs": [
        {
          "internalType": "address",
          "name": "spender",
          "type": "address"
        },
        {
          "internalType": "uint256",
          "name": "subtractedValue",
          "type": "uint256"
        }
      ],
      "name": "decreaseAllowance",
      "outputs": [
        {
          "internalType": "bool",
          "name": "",
          "type": "bool"
        }
      ],
      "stateMutability": "nonpayable",
      "type": "function"
    },
    {
      "inputs": [
        {
          "internalType": "uint256",
          "name": "amount",
          "type": "uint256"
        },
        {
          "internalType": "address",
          "name": "token",
          "type": "address"
        }
      ],
      "name": "getTokenFromValue",
      "outputs": [
        {
          "internalType": "uint256",
          "name": "",
          "type": "uint256"
        }
      ],
      "stateMutability": "view",
      "type": "function"
    },
    {
      "inputs": [
        {
          "internalType": "address",
          "name": "token",
          "type": "address"
        }
      ],
      "name": "getTokenValue",
      "outputs": [
        {
          "internalType": "uint256",
          "name": "",
          "type": "uint256"
        },
        {
          "internalType": "uint256",
          "name": "",
          "type": "uint256"
        }
      ],
      "stateMutability": "view",
      "type": "function"
    },
    {
      "inputs": [
        {
          "internalType": "uint256",
          "name": "amount",
          "type": "uint256"
        },
        {
          "internalType": "address",
          "name": "token",
          "type": "address"
        }
      ],
      "name": "getValueFromToken",
      "outputs": [
        {
          "internalType": "uint256",
          "name": "",
          "type": "uint256"
        }
      ],
      "stateMutability": "view",
      "type": "function"
    },
    {
      "inputs": [
        {
          "internalType": "address",
          "name": "spender",
          "type": "address"
        },
        {
          "internalType": "uint256",
          "name": "addedValue",
          "type": "uint256"
        }
      ],
      "name": "increaseAllowance",
      "outputs": [
        {
          "internalType": "bool",
          "name": "",
          "type": "bool"
        }
      ],
      "stateMutability": "nonpayable",
      "type": "function"
    },
    {
      "inputs": [
        {
          "internalType": "address",
          "name": "token",
          "type": "address"
        }
      ],
      "name": "isTokenAllowed",
      "outputs": [
        {
          "internalType": "bool",
          "name": "",
          "type": "bool"
        }
      ],
      "stateMutability": "view",
      "type": "function"
    },
    {
      "inputs": [],
      "name": "name",
      "outputs": [
        {
          "internalType": "string",
          "name": "",
          "type": "string"
        }
      ],
      "stateMutability": "view",
      "type": "function"
    },
    {
      "inputs": [],
      "name": "owner",
      "outputs": [
        {
          "internalType": "address",
          "name": "",
          "type": "address"
        }
      ],
      "stateMutability": "view",
      "type": "function"
    },
    {
      "inputs": [
        {
          "internalType": "address",
          "name": "token",
          "type": "address"
        }
      ],
      "name": "removeAllowedToken",
      "outputs": [],
      "stateMutability": "nonpayable",
      "type": "function"
    },
    {
      "inputs": [
        {
          "internalType": "address",
          "name": "token",
          "type": "address"
        }
      ],
      "name": "removeTokenPriceFeed",
      "outputs": [],
      "stateMutability": "nonpayable",
      "type": "function"
    },
    {
      "inputs": [],
      "name": "renounceOwnership",
      "outputs": [],
      "stateMutability": "nonpayable",
      "type": "function"
    },
    {
      "inputs": [
        {
          "internalType": "address",
          "name": "token",
          "type": "address"
        },
        {
          "internalType": "address",
          "name": "priceFeed",
          "type": "address"
        }
      ],
      "name": "setTokenPriceFeed",
      "outputs": [],
      "stateMutability": "nonpayable",
      "type": "function"
    },
    {
      "inputs": [],
      "name": "symbol",
      "outputs": [
        {
          "internalType": "string",
          "name": "",
          "type": "string"
        }
      ],
      "stateMutability": "view",
      "type": "function"
    },
    {
      "inputs": [
        {
          "internalType": "uint256",
          "name": "",
          "type": "uint256"
        }
      ],
      "name": "tokenWithDeposits",
      "outputs": [
        {
          "internalType": "address",
          "name": "",
          "type": "address"
        }
      ],
      "stateMutability": "view",
      "type": "function"
    },
    {
      "inputs": [
        {
          "internalType": "address",
          "name": "",
          "type": "address"
        }
      ],
      "name": "token_deposit",
      "outputs": [
        {
          "internalType": "uint256",
          "name": "",
          "type": "uint256"
        }
      ],
      "stateMutability": "view",
      "type": "function"
    },
    {
      "inputs": [
        {
          "internalType": "address",
          "name": "",
          "type": "address"
        }
      ],
      "name": "token_priceFeed",
      "outputs": [
        {
          "internalType": "address",
          "name": "",
          "type": "address"
        }
      ],
      "stateMutability": "view",
      "type": "function"
    },
    {
      "inputs": [],
      "name": "totalSupply",
      "outputs": [
        {
          "internalType": "uint256",
          "name": "",
          "type": "uint256"
        }
      ],
      "stateMutability": "view",
      "type": "function"
    },
    {
      "inputs": [
        {
          "internalType": "address",
          "name": "to",
          "type": "address"
        },
        {
          "internalType": "uint256",
          "name": "amount",
          "type": "uint256"
        }
      ],
      "name": "transfer",
      "outputs": [
        {
          "internalType": "bool",
          "name": "",
          "type": "bool"
        }
      ],
      "stateMutability": "nonpayable",
      "type": "function"
    },
    {
      "inputs": [
        {
          "internalType": "address",
          "name": "from",
          "type": "address"
        },
        {
          "internalType": "address",
          "name": "to",
          "type": "address"
        },
        {
          "internalType": "uint256",
          "name": "amount",
          "type": "uint256"
        }
      ],
      "name": "transferFrom",
      "outputs": [
        {
          "internalType": "bool",
          "name": "",
          "type": "bool"
        }
      ],
      "stateMutability": "nonpayable",
      "type": "function"
    },
    {
      "inputs": [
        {
          "internalType": "address",
          "name": "newOwner",
          "type": "address"
        }
      ],
      "name": "transferOwnership",
      "outputs": [],
      "stateMutability": "nonpayable",
      "type": "function"
    }
  ],
  "bytecode": "60806040523480156200001157600080fd5b5060405162001c5f38038062001c5f8339810160408190526200003491620002df565b6040518060400160405280600681526020016514995dd85c9960d21b815250604051806040016040528060038152602001621495d160ea1b81525081600390805190602001906200008792919062000239565b5080516200009d90600490602084019062000239565b505050620000ba620000b4620000fb60201b60201c565b620000ff565b620000c76002826200030f565b6008819055620000d990309062000151565b620000f43360085483620000ee919062000332565b62000151565b50620003a4565b3390565b600580546001600160a01b038381166001600160a01b0319831681179093556040519116919082907f8be0079c531659141344cd1fd0a4f28419497f9722a3daafe3b4186f6b6457e090600090a35050565b6001600160a01b038216620001ac5760405162461bcd60e51b815260206004820152601f60248201527f45524332303a206d696e7420746f20746865207a65726f206164647265737300604482015260640160405180910390fd5b8060026000828254620001c091906200034c565b90915550506001600160a01b03821660009081526020819052604081208054839290620001ef9084906200034c565b90915550506040518181526001600160a01b038316906000907fddf252ad1be2c89b69c2b068fc378daa952ba7f163c4a11628f55a4df523b3ef9060200160405180910390a35050565b828054620002479062000367565b90600052602060002090601f0160209004810192826200026b5760008555620002b6565b82601f106200028657805160ff1916838001178555620002b6565b82800160010185558215620002b6579182015b82811115620002b657825182559160200191906001019062000299565b50620002c4929150620002c8565b5090565b5b80821115620002c45760008155600101620002c9565b600060208284031215620002f257600080fd5b5051919050565b634e487b7160e01b600052601160045260246000fd5b6000826200032d57634e487b7160e01b600052601260045260246000fd5b500490565b600082821015620003475762000347620002f9565b500390565b60008219821115620003625762000362620002f9565b500190565b600181811c908216806200037c57607f821691505b602082108114156200039e57634e487b7160e01b600052602260045260246000fd5b50919050565b6118ab80620003b46000396000f3fe608060405234801561001057600080fd5b50600436106101cf5760003560e01c8063715018a611610104578063a457c2d7116100a2578063ee39cab511610071578063ee39cab5146103ef578063f1c5d6c214610402578063f2fde38b1461042a578063f9eaee0d1461043d57600080fd5b8063a457c2d7146103a3578063a9059cbb146103b6578063ce2ff6aa146103c9578063dd62ed3e146103dc57600080fd5b80638da5cb5b116100de5780638da5cb5b1461036457806390469a9d14610375578063920a42431461038857806395d89b411461039b57600080fd5b8063715018a614610341578063793cd71e146103495780637deb60251461035157600080fd5b80634178617f11610171578063608191681161014b57806360819168146102e9578063674417ae146102fc5780636b180d411461030f57806370a082311461031857600080fd5b80634178617f1461028057806346db69a7146102955780635e5f2e26146102d657600080fd5b806318160ddd116101ad57806318160ddd1461024357806323b872dd1461024b578063313ce5671461025e578063395093511461026d57600080fd5b806306fdde03146101d4578063095ea7b3146101f257806313d6f4b414610215575b600080fd5b6101dc610450565b6040516101e99190611466565b60405180910390f35b6102056102003660046114d7565b6104e2565b60405190151581526020016101e9565b610235610223366004611501565b600a6020526000908152604090205481565b6040519081526020016101e9565b600254610235565b610205610259366004611523565b6104fc565b604051601281526020016101e9565b61020561027b3660046114d7565b610520565b61029361028e366004611501565b610542565b005b6102be6102a3366004611501565b6007602052600090815260409020546001600160a01b031681565b6040516001600160a01b0390911681526020016101e9565b6102be6102e436600461155f565b61068c565b6102356102f7366004611578565b6106b6565b61029361030a3660046115a4565b6106f1565b61023560085481565b610235610326366004611501565b6001600160a01b031660009081526020819052604090205490565b610293610707565b61029361071b565b61029361035f366004611578565b6108a8565b6005546001600160a01b03166102be565b610293610383366004611501565b610abb565b610235610396366004611578565b610c6b565b6101dc610c94565b6102056103b13660046114d7565b610ca3565b6102056103c43660046114d7565b610d1e565b6102936103d7366004611501565b610d2c565b6102356103ea3660046115a4565b610d90565b6102be6103fd36600461155f565b610dbb565b610415610410366004611501565b610dcb565b604080519283526020830191909152016101e9565b610293610438366004611501565b610ecc565b61020561044b366004611501565b610f45565b60606003805461045f906115ce565b80601f016020809104026020016040519081016040528092919081815260200182805461048b906115ce565b80156104d85780601f106104ad576101008083540402835291602001916104d8565b820191906000526020600020905b8154815290600101906020018083116104bb57829003601f168201915b5050505050905090565b6000336104f0818585610faf565b60019150505b92915050565b60003361050a8582856110d3565b61051585858561114d565b506001949350505050565b6000336104f08185856105338383610d90565b61053d919061161f565b610faf565b61054a61131b565b6000805b6006548110156105ab57826001600160a01b03166006828154811061057557610575611637565b6000918252602090912001546001600160a01b0316141561059957600191506105ab565b806105a38161164d565b91505061054e565b5080156105ff5760405162461bcd60e51b815260206004820152601c60248201527f54686520746f6b656e20697320616c726561647920616c6c6f7765640000000060448201526064015b60405180910390fd5b600680546001810182556000919091527ff652222313e28459528d920b65115c16c04f3efc82aaedc97be59f3f377c0d3f0180546001600160a01b0319166001600160a01b0384169081179091556040805133815260208101929092527fb255eb80cd9faf1bf370ec9d568e7ddcd76db8329d4665996ac3ff866e93a1a691015b60405180910390a15050565b6006818154811061069c57600080fd5b6000918252602090912001546001600160a01b0316905081565b60008060006106c484610dcb565b90925090506106d481600a61174c565b6106de8387611758565b6106e89190611777565b95945050505050565b6106f961131b565b6107038282611375565b5050565b61070f61131b565b61071960006113e2565b565b61072361131b565b60005b600954811015610867576009818154811061074357610743611637565b6000918252602090912001546001600160a01b031663a9059cbb61076f6005546001600160a01b031690565b600a60006009868154811061078657610786611637565b6000918252602080832091909101546001600160a01b039081168452908301939093526040918201902054905160e085901b6001600160e01b031916815292909116600483015260248201526044016020604051808303816000875af11580156107f4573d6000803e3d6000fd5b505050506040513d601f19601f820116820180604052508101906108189190611799565b50600a60006009838154811061083057610830611637565b60009182526020808320909101546001600160a01b031683528201929092526040018120558061085f8161164d565b915050610726565b5061087460096000611434565b6040513381527e10c32246c8e33bffe9bae9a9a52bfb8b0737a17ff2b7e89ec9e4f4744c48a19060200160405180910390a1565b6108b181610f45565b6108fd5760405162461bcd60e51b815260206004820152601e60248201527f43616e6e6f7420627579205257442077697468207468697320746f6b656e000060448201526064016105f6565b600082116109575760405162461bcd60e51b815260206004820152602160248201527f416d6f756e74206d757374206265206d6f7265207468616e203020746f6b656e6044820152607360f81b60648201526084016105f6565b6040516323b872dd60e01b8152336004820152306024820152604481018390526001600160a01b038216906323b872dd906064016020604051808303816000875af11580156109aa573d6000803e3d6000fd5b505050506040513d601f19601f820116820180604052508101906109ce9190611799565b5060098054600181019091557f6e1540171b6c0c960b71a7020d9f60077f6af931a8bbf590da0223dacf75c7af0180546001600160a01b0319166001600160a01b0383169081179091556000908152600a60205260408120839055610a3383836106b6565b90506000610a418230610c6b565b9050610a4e30338361114d565b8060086000828254610a6091906117bb565b9091555050604080513381526001600160a01b0385166020820152908101859052606081018290527f405426d39d8e779e767431271111e0c0410a44f0775f32656a11194427cfbeeb9060800160405180910390a150505050565b610ac361131b565b60065460005b600654811015610b2557826001600160a01b031660068281548110610af057610af0611637565b6000918252602090912001546001600160a01b03161415610b1357809150610b25565b80610b1d8161164d565b915050610ac9565b506006548110610b775760405162461bcd60e51b815260206004820152601e60248201527f54686520746f6b656e20697320616c726561647920756e616c6c6f776564000060448201526064016105f6565b60068054610b87906001906117bb565b81548110610b9757610b97611637565b600091825260209091200154600680546001600160a01b039092169183908110610bc357610bc3611637565b9060005260206000200160006101000a8154816001600160a01b0302191690836001600160a01b031602179055506006805480610c0257610c026117d2565b600082815260209020810160001990810180546001600160a01b03191690550190556040517f564b89698f7ed468cc4fd744742e329fddd973ba260c976968aeb4acfe78b7339061068090339085906001600160a01b0392831681529116602082015260400190565b6000806000610c7984610dcb565b909250905081610c8a82600a61174c565b6106de9087611758565b60606004805461045f906115ce565b60003381610cb18286610d90565b905083811015610d115760405162461bcd60e51b815260206004820152602560248201527f45524332303a2064656372656173656420616c6c6f77616e63652062656c6f77604482015264207a65726f60d81b60648201526084016105f6565b6105158286868403610faf565b6000336104f081858561114d565b6001600160a01b03811660008181526007602090815260409182902080546001600160a01b03191690558151338152908101929092527f98e8580445f1a29f2f0fe34378d51b3eccb66acec25df96a0e2e69ebb1f43ec7910160405180910390a150565b6001600160a01b03918216600090815260016020908152604080832093909416825291909152205490565b6009818154811061069c57600080fd5b6001600160a01b03808216600090815260076020526040808220548151633fabe5a360e21b815291519293849391169182918491839163feaf968c9160048082019260a0929091908290030181865afa158015610e2c573d6000803e3d6000fd5b505050506040513d601f19601f82011682018060405250810190610e509190611802565b5050509150506000826001600160a01b031663313ce5676040518163ffffffff1660e01b8152600401602060405180830381865afa158015610e96573d6000803e3d6000fd5b505050506040513d601f19601f82011682018060405250810190610eba9190611852565b919760ff909216965090945050505050565b610ed461131b565b6001600160a01b038116610f395760405162461bcd60e51b815260206004820152602660248201527f4f776e61626c653a206e6577206f776e657220697320746865207a65726f206160448201526564647265737360d01b60648201526084016105f6565b610f42816113e2565b50565b6000805b600654811015610fa657826001600160a01b031660068281548110610f7057610f70611637565b6000918252602090912001546001600160a01b03161415610f945750600192915050565b80610f9e8161164d565b915050610f49565b50600092915050565b6001600160a01b0383166110115760405162461bcd60e51b8152602060048201526024808201527f45524332303a20617070726f76652066726f6d20746865207a65726f206164646044820152637265737360e01b60648201526084016105f6565b6001600160a01b0382166110725760405162461bcd60e51b815260206004820152602260248201527f45524332303a20617070726f766520746f20746865207a65726f206164647265604482015261737360f01b60648201526084016105f6565b6001600160a01b0383811660008181526001602090815260408083209487168084529482529182902085905590518481527f8c5be1e5ebec7d5bd14f71427d1e84f3dd0314c0f7b2291e5b200ac8c7c3b925910160405180910390a3505050565b60006110df8484610d90565b90506000198114611147578181101561113a5760405162461bcd60e51b815260206004820152601d60248201527f45524332303a20696e73756666696369656e7420616c6c6f77616e636500000060448201526064016105f6565b6111478484848403610faf565b50505050565b6001600160a01b0383166111b15760405162461bcd60e51b815260206004820152602560248201527f45524332303a207472616e736665722066726f6d20746865207a65726f206164604482015264647265737360d81b60648201526084016105f6565b6001600160a01b0382166112135760405162461bcd60e51b815260206004820152602360248201527f45524332303a207472616e7366657220746f20746865207a65726f206164647260448201526265737360e81b60648201526084016105f6565b6001600160a01b0383166000908152602081905260409020548181101561128b5760405162461bcd60e51b815260206004820152602660248201527f45524332303a207472616e7366657220616d6f756e7420657863656564732062604482015265616c616e636560d01b60648201526084016105f6565b6001600160a01b038085166000908152602081905260408082208585039055918516815290812080548492906112c290849061161f565b92505081905550826001600160a01b0316846001600160a01b03167fddf252ad1be2c89b69c2b068fc378daa952ba7f163c4a11628f55a4df523b3ef8460405161130e91815260200190565b60405180910390a3611147565b6005546001600160a01b031633146107195760405162461bcd60e51b815260206004820181905260248201527f4f776e61626c653a2063616c6c6572206973206e6f7420746865206f776e657260448201526064016105f6565b6001600160a01b0382811660008181526007602090815260409182902080546001600160a01b03191694861694851790558151338152908101929092528101919091527f1c753af13d78bc810497abd3aa7d5895df193f107a47a4ed4c08940f0ac39ce390606001610680565b600580546001600160a01b038381166001600160a01b0319831681179093556040519116919082907f8be0079c531659141344cd1fd0a4f28419497f9722a3daafe3b4186f6b6457e090600090a35050565b5080546000825590600052602060002090810190610f4291905b80821115611462576000815560010161144e565b5090565b600060208083528351808285015260005b8181101561149357858101830151858201604001528201611477565b818111156114a5576000604083870101525b50601f01601f1916929092016040019392505050565b80356001600160a01b03811681146114d257600080fd5b919050565b600080604083850312156114ea57600080fd5b6114f3836114bb565b946020939093013593505050565b60006020828403121561151357600080fd5b61151c826114bb565b9392505050565b60008060006060848603121561153857600080fd5b611541846114bb565b925061154f602085016114bb565b9150604084013590509250925092565b60006020828403121561157157600080fd5b5035919050565b6000806040838503121561158b57600080fd5b8235915061159b602084016114bb565b90509250929050565b600080604083850312156115b757600080fd5b6115c0836114bb565b915061159b602084016114bb565b600181811c908216806115e257607f821691505b6020821081141561160357634e487b7160e01b600052602260045260246000fd5b50919050565b634e487b7160e01b600052601160045260246000fd5b6000821982111561163257611632611609565b500190565b634e487b7160e01b600052603260045260246000fd5b600060001982141561166157611661611609565b5060010190565b600181815b808511156116a357816000190482111561168957611689611609565b8085161561169657918102915b93841c939080029061166d565b509250929050565b6000826116ba575060016104f6565b816116c7575060006104f6565b81600181146116dd57600281146116e757611703565b60019150506104f6565b60ff8411156116f8576116f8611609565b50506001821b6104f6565b5060208310610133831016604e8410600b8410161715611726575081810a6104f6565b6117308383611668565b806000190482111561174457611744611609565b029392505050565b600061151c83836116ab565b600081600019048311821515161561177257611772611609565b500290565b60008261179457634e487b7160e01b600052601260045260246000fd5b500490565b6000602082840312156117ab57600080fd5b8151801515811461151c57600080fd5b6000828210156117cd576117cd611609565b500390565b634e487b7160e01b600052603160045260246000fd5b805169ffffffffffffffffffff811681146114d257600080fd5b600080600080600060a0868803121561181a57600080fd5b611823866117e8565b9450602086015193506040860151925060608601519150611846608087016117e8565b90509295509295909350565b60006020828403121561186457600080fd5b815160ff8116811461151c57600080fdfea2646970667358221220793c90c8e12b0e7cccd8a3ac0e7f13e408ac0e921a08b5e43a6940e42bf7165064736f6c634300080c0033",
  "bytecodeSha1": "4264667543926f671cad141495ec72de1225ed58",
  "compiler": {
    "evm_version": "istanbul",
    "optimizer": {
      "enabled": true,
      "runs": 200
    },
    "version": "0.8.12+commit.f00d7308"
  },
  "contractName": "RewardToken",
  "language": "Solidity",
  "natspec": {
    "kind": "dev",
    "methods": {
      "allowance(address,address)": {
        "details": "See {IERC20-allowance}."
      },
      "approve(address,uint256)": {
        "details": "See {IERC20-approve}. NOTE: If `amount` is the maximum `uint256`, the allowance is not updated on `transferFrom`. This is semantically equivalent to an infinite approval. Requirements: - `spender` cannot be the zero address."
      },
      "balanceOf(address)": {
        "details": "See {IERC20-balanceOf}."
      },
      "decimals()": {
        "details": "Returns the number of decimals used to get its user representation. For example, if `decimals` equals `2`, a balance of `505` tokens should be displayed to a user as `5.05` (`505 / 10 ** 2`). Tokens usually opt for a value of 18, imitating the relationship between Ether and Wei. This is the value {ERC20} uses, unless this function is overridden; NOTE: This information is only used for _display_ purposes: it in no way affects any of the arithmetic of the contract, including {IERC20-balanceOf} and {IERC20-transfer}."
      },
      "decreaseAllowance(address,uint256)": {
        "details": "Atomically decreases the allowance granted to `spender` by the caller. This is an alternative to {approve} that can be used as a mitigation for problems described in {IERC20-approve}. Emits an {Approval} event indicating the updated allowance. Requirements: - `spender` cannot be the zero address. - `spender` must have allowance for the caller of at least `subtractedValue`."
      },
      "increaseAllowance(address,uint256)": {
        "details": "Atomically increases the allowance granted to `spender` by the caller. This is an alternative to {approve} that can be used as a mitigation for problems described in {IERC20-approve}. Emits an {Approval} event indicating the updated allowance. Requirements: - `spender` cannot be the zero address."
      },
      "name()": {
        "details": "Returns the name of the token."
      },
      "owner()": {
        "details": "Returns the address of the current owner."
      },
      "renounceOwnership()": {
        "details": "Leaves the contract without owner. It will not be possible to call `onlyOwner` functions anymore. Can only be called by the current owner. NOTE: Renouncing ownership will leave the contract without an owner, thereby removing any functionality that is only available to the owner."
      },
      "symbol()": {
        "details": "Returns the symbol of the token, usually a shorter version of the name."
      },
      "totalSupply()": {
        "details": "See {IERC20-totalSupply}."
      },
      "transfer(address,uint256)": {
        "details": "See {IERC20-transfer}. Requirements: - `to` cannot be the zero address. - the caller must have a balance of at least `amount`."
      },
      "transferFrom(address,address,uint256)": {
        "details": "See {IERC20-transferFrom}. Emits an {Approval} event indicating the updated allowance. This is not required by the EIP. See the note at the beginning of {ERC20}. NOTE: Does not update the allowance if the current allowance is the maximum `uint256`. Requirements: - `from` and `to` cannot be the zero address. - `from` must have a balance of at least `amount`. - the caller must have allowance for ``from``'s tokens of at least `amount`."
      },
      "transferOwnership(address)": {
        "details": "Transfers ownership of the contract to a new account (`newOwner`). Can only be called by the current owner."
      }
    },
    "version": 1
  },
  "opcodes": "PUSH1 0x80 PUSH1 0x40 MSTORE CALLVALUE DUP1 ISZERO PUSH2 0x10 JUMPI PUSH1 0x0 DUP1 REVERT JUMPDEST POP PUSH1 0x4 CALLDATASIZE LT PUSH2 0x1CF JUMPI PUSH1 0x0 CALLDATALOAD PUSH1 0xE0 SHR DUP1 PUSH4 0x715018A6 GT PUSH2 0x104 JUMPI DUP1 PUSH4 0xA457C2D7 GT PUSH2 0xA2 JUMPI DUP1 PUSH4 0xEE39CAB5 GT PUSH2 0x71 JUMPI DUP1 PUSH4 0xEE39CAB5 EQ PUSH2 0x3EF JUMPI DUP1 PUSH4 0xF1C5D6C2 EQ PUSH2 0x402 JUMPI DUP1 PUSH4 0xF2FDE38B EQ PUSH2 0x42A JUMPI DUP1 PUSH4 0xF9EAEE0D EQ PUSH2 0x43D JUMPI PUSH1 0x0 DUP1 REVERT JUMPDEST DUP1 PUSH4 0xA457C2D7 EQ PUSH2 0x3A3 JUMPI DUP1 PUSH4 0xA9059CBB EQ PUSH2 0x3B6 JUMPI DUP1 PUSH4 0xCE2FF6AA EQ PUSH2 0x3C9 JUMPI DUP1 PUSH4 0xDD62ED3E EQ PUSH2 0x3DC JUMPI PUSH1 0x0 DUP1 REVERT JUMPDEST DUP1 PUSH4 0x8DA5CB5B GT PUSH2 0xDE JUMPI DUP1 PUSH4 0x8DA5CB5B EQ PUSH2 0x364 JUMPI DUP1 PUSH4 0x90469A9D EQ PUSH2 0x375 JUMPI DUP1 PUSH4 0x920A4243 EQ PUSH2 0x388 JUMPI DUP1 PUSH4 0x95D89B41 EQ PUSH2 0x39B JUMPI PUSH1 0x0 DUP1 REVERT JUMPDEST DUP1 PUSH4 0x715018A6 EQ PUSH2 0x341 JUMPI DUP1 PUSH4 0x793CD71E EQ PUSH2 0x349 JUMPI DUP1 PUSH4 0x7DEB6025 EQ PUSH2 0x351 JUMPI PUSH1 0x0 DUP1 REVERT JUMPDEST DUP1 PUSH4 0x4178617F GT PUSH2 0x171 JUMPI DUP1 PUSH4 0x60819168 GT PUSH2 0x14B JUMPI DUP1 PUSH4 0x60819168 EQ PUSH2 0x2E9 JUMPI DUP1 PUSH4 0x674417AE EQ PUSH2 0x2FC JUMPI DUP1 PUSH4 0x6B180D41 EQ PUSH2 0x30F JUMPI DUP1 PUSH4 0x70A08231 EQ PUSH2 0x318 JUMPI PUSH1 0x0 DUP1 REVERT JUMPDEST DUP1 PUSH4 0x4178617F EQ PUSH2 0x280 JUMPI DUP1 PUSH4 0x46DB69A7 EQ PUSH2 0x295 JUMPI DUP1 PUSH4 0x5E5F2E26 EQ PUSH2 0x2D6 JUMPI PUSH1 0x0 DUP1 REVERT JUMPDEST DUP1 PUSH4 0x18160DDD GT PUSH2 0x1AD JUMPI DUP1 PUSH4 0x18160DDD EQ PUSH2 0x243 JUMPI DUP1 PUSH4 0x23B872DD EQ PUSH2 0x24B JUMPI DUP1 PUSH4 0x313CE567 EQ PUSH2 0x25E JUMPI DUP1 PUSH4 0x39509351 EQ PUSH2 0x26D JUMPI PUSH1 0x0 DUP1 REVERT JUMPDEST DUP1 PUSH4 0x6FDDE03 EQ PUSH2 0x1D4 JUMPI DUP1 PUSH4 0x95EA7B3 EQ PUSH2 0x1F2 JUMPI DUP1 PUSH4 0x13D6F4B4 EQ PUSH2 0x215 JUMPI JUMPDEST PUSH1 0x0 DUP1 REVERT JUMPDEST PUSH2 0x1DC PUSH2 0x450 JUMP JUMPDEST PUSH1 0x40 MLOAD PUSH2 0x1E9 SWAP2 SWAP1 PUSH2 0x1466 JUMP JUMPDEST PUSH1 0x40 MLOAD DUP1 SWAP2 SUB SWAP1 RETURN JUMPDEST PUSH2 0x205 PUSH2 0x200 CALLDATASIZE PUSH1 0x4 PUSH2 0x14D7 JUMP JUMPDEST PUSH2 0x4E2 JUMP JUMPDEST PUSH1 0x40 MLOAD SWAP1 ISZERO ISZERO DUP2 MSTORE PUSH1 0x20 ADD PUSH2 0x1E9 JUMP JUMPDEST PUSH2 0x235 PUSH2 0x223 CALLDATASIZE PUSH1 0x4 PUSH2 0x1501 JUMP JUMPDEST PUSH1 0xA PUSH1 0x20 MSTORE PUSH1 0x0 SWAP1 DUP2 MSTORE PUSH1 0x40 SWAP1 KECCAK256 SLOAD DUP2 JUMP JUMPDEST PUSH1 0x40 MLOAD SWAP1 DUP2 MSTORE PUSH1 0x20 ADD PUSH2 0x1E9 JUMP JUMPDEST PUSH1 0x2 SLOAD PUSH2 0x235 JUMP JUMPDEST PUSH2 0x205 PUSH2 0x259 CALLDATASIZE PUSH1 0x4 PUSH2 0x1523 JUMP JUMPDEST PUSH2 0x4FC JUMP JUMPDEST PUSH1 0x40 MLOAD PUSH1 0x12 DUP2 MSTORE PUSH1 0x20 ADD PUSH2 0x1E9 JUMP JUMPDEST PUSH2 0x205 PUSH2 0x27B CALLDATASIZE PUSH1 0x4 PUSH2 0x14D7 JUMP JUMPDEST PUSH2 0x520 JUMP JUMPDEST PUSH2 0x293 PUSH2 0x28E CALLDATASIZE PUSH1 0x4 PUSH2 0x1501 JUMP JUMPDEST PUSH2 0x542 JUMP JUMPDEST STOP JUMPDEST PUSH2 0x2BE PUSH2 0x2A3 CALLDATASIZE PUSH1 0x4 PUSH2 0x1501 JUMP JUMPDEST PUSH1 0x7 PUSH1 0x20 MSTORE PUSH1 0x0 SWAP1 DUP2 MSTORE PUSH1 0x40 SWAP1 KECCAK256 SLOAD PUSH1 0x1 PUSH1 0x1 PUSH1 0xA0 SHL SUB AND DUP2 JUMP JUMPDEST PUSH1 0x40 MLOAD PUSH1 0x1 PUSH1 0x1 PUSH1 0xA0 SHL SUB SWAP1 SWAP2 AND DUP2 MSTORE PUSH1 0x20 ADD PUSH2 0x1E9 JUMP JUMPDEST PUSH2 0x2BE PUSH2 0x2E4 CALLDATASIZE PUSH1 0x4 PUSH2 0x155F JUMP JUMPDEST PUSH2 0x68C JUMP JUMPDEST PUSH2 0x235 PUSH2 0x2F7 CALLDATASIZE PUSH1 0x4 PUSH2 0x1578 JUMP JUMPDEST PUSH2 0x6B6 JUMP JUMPDEST PUSH2 0x293 PUSH2 0x30A CALLDATASIZE PUSH1 0x4 PUSH2 0x15A4 JUMP JUMPDEST PUSH2 0x6F1 JUMP JUMPDEST PUSH2 0x235 PUSH1 0x8 SLOAD DUP2 JUMP JUMPDEST PUSH2 0x235 PUSH2 0x326 CALLDATASIZE PUSH1 0x4 PUSH2 0x1501 JUMP JUMPDEST PUSH1 0x1 PUSH1 0x1 PUSH1 0xA0 SHL SUB AND PUSH1 0x0 SWAP1 DUP2 MSTORE PUSH1 0x20 DUP2 SWAP1 MSTORE PUSH1 0x40 SWAP1 KECCAK256 SLOAD SWAP1 JUMP JUMPDEST PUSH2 0x293 PUSH2 0x707 JUMP JUMPDEST PUSH2 0x293 PUSH2 0x71B JUMP JUMPDEST PUSH2 0x293 PUSH2 0x35F CALLDATASIZE PUSH1 0x4 PUSH2 0x1578 JUMP JUMPDEST PUSH2 0x8A8 JUMP JUMPDEST PUSH1 0x5 SLOAD PUSH1 0x1 PUSH1 0x1 PUSH1 0xA0 SHL SUB AND PUSH2 0x2BE JUMP JUMPDEST PUSH2 0x293 PUSH2 0x383 CALLDATASIZE PUSH1 0x4 PUSH2 0x1501 JUMP JUMPDEST PUSH2 0xABB JUMP JUMPDEST PUSH2 0x235 PUSH2 0x396 CALLDATASIZE PUSH1 0x4 PUSH2 0x1578 JUMP JUMPDEST PUSH2 0xC6B JUMP JUMPDEST PUSH2 0x1DC PUSH2 0xC94 JUMP JUMPDEST PUSH2 0x205 PUSH2 0x3B1 CALLDATASIZE PUSH1 0x4 PUSH2 0x14D7 JUMP JUMPDEST PUSH2 0xCA3 JUMP JUMPDEST PUSH2 0x205 PUSH2 0x3C4 CALLDATASIZE PUSH1 0x4 PUSH2 0x14D7 JUMP JUMPDEST PUSH2 0xD1E JUMP JUMPDEST PUSH2 0x293 PUSH2 0x3D7 CALLDATASIZE PUSH1 0x4 PUSH2 0x1501 JUMP JUMPDEST PUSH2 0xD2C JUMP JUMPDEST PUSH2 0x235 PUSH2 0x3EA CALLDATASIZE PUSH1 0x4 PUSH2 0x15A4 JUMP JUMPDEST PUSH2 0xD90 JUMP JUMPDEST PUSH2 0x2BE PUSH2 0x3FD CALLDATASIZE PUSH1 0x4 PUSH2 0x155F JUMP JUMPDEST PUSH2 0xDBB JUMP JUMPDEST PUSH2 0x415 PUSH2 0x410 CALLDATASIZE PUSH1 0x4 PUSH2 0x1501 JUMP JUMPDEST PUSH2 0xDCB JUMP JUMPDEST PUSH1 0x40 DUP1 MLOAD SWAP3 DUP4 MSTORE PUSH1 0x20 DUP4 ADD SWAP2 SWAP1 SWAP2 MSTORE ADD PUSH2 0x1E9 JUMP JUMPDEST PUSH2 0x293 PUSH2 0x438 CALLDATASIZE PUSH1 0x4 PUSH2 0x1501 JUMP JUMPDEST PUSH2 0xECC JUMP JUMPDEST PUSH2 0x205 PUSH2 0x44B CALLDATASIZE PUSH1 0x4 PUSH2 0x1501 JUMP JUMPDEST PUSH2 0xF45 JUMP JUMPDEST PUSH1 0x60 PUSH1 0x3 DUP1 SLOAD PUSH2 0x45F SWAP1 PUSH2 0x15CE JUMP JUMPDEST DUP1 PUSH1 0x1F ADD PUSH1 0x20 DUP1 SWAP2 DIV MUL PUSH1 0x20 ADD PUSH1 0x40 MLOAD SWAP1 DUP2 ADD PUSH1 0x40 MSTORE DUP1 SWAP3 SWAP2 SWAP1 DUP2 DUP2 MSTORE PUSH1 0x20 ADD DUP3 DUP1 SLOAD PUSH2 0x48B SWAP1 PUSH2 0x15CE JUMP JUMPDEST DUP1 ISZERO PUSH2 0x4D8 JUMPI DUP1 PUSH1 0x1F LT PUSH2 0x4AD JUMPI PUSH2 0x100 DUP1 DUP4 SLOAD DIV MUL DUP4 MSTORE SWAP2 PUSH1 0x20 ADD SWAP2 PUSH2 0x4D8 JUMP JUMPDEST DUP3 ADD SWAP2 SWAP1 PUSH1 0x0 MSTORE PUSH1 0x20 PUSH1 0x0 KECCAK256 SWAP1 JUMPDEST DUP2 SLOAD DUP2 MSTORE SWAP1 PUSH1 0x1 ADD SWAP1 PUSH1 0x20 ADD DUP1 DUP4 GT PUSH2 0x4BB JUMPI DUP3 SWAP1 SUB PUSH1 0x1F AND DUP3 ADD SWAP2 JUMPDEST POP POP POP POP POP SWAP1 POP SWAP1 JUMP JUMPDEST PUSH1 0x0 CALLER PUSH2 0x4F0 DUP2 DUP6 DUP6 PUSH2 0xFAF JUMP JUMPDEST PUSH1 0x1 SWAP2 POP POP JUMPDEST SWAP3 SWAP2 POP POP JUMP JUMPDEST PUSH1 0x0 CALLER PUSH2 0x50A DUP6 DUP3 DUP6 PUSH2 0x10D3 JUMP JUMPDEST PUSH2 0x515 DUP6 DUP6 DUP6 PUSH2 0x114D JUMP JUMPDEST POP PUSH1 0x1 SWAP5 SWAP4 POP POP POP POP JUMP JUMPDEST PUSH1 0x0 CALLER PUSH2 0x4F0 DUP2 DUP6 DUP6 PUSH2 0x533 DUP4 DUP4 PUSH2 0xD90 JUMP JUMPDEST PUSH2 0x53D SWAP2 SWAP1 PUSH2 0x161F JUMP JUMPDEST PUSH2 0xFAF JUMP JUMPDEST PUSH2 0x54A PUSH2 0x131B JUMP JUMPDEST PUSH1 0x0 DUP1 JUMPDEST PUSH1 0x6 SLOAD DUP2 LT ISZERO PUSH2 0x5AB JUMPI DUP3 PUSH1 0x1 PUSH1 0x1 PUSH1 0xA0 SHL SUB AND PUSH1 0x6 DUP3 DUP2 SLOAD DUP2 LT PUSH2 0x575 JUMPI PUSH2 0x575 PUSH2 0x1637 JUMP JUMPDEST PUSH1 0x0 SWAP2 DUP3 MSTORE PUSH1 0x20 SWAP1 SWAP2 KECCAK256 ADD SLOAD PUSH1 0x1 PUSH1 0x1 PUSH1 0xA0 SHL SUB AND EQ ISZERO PUSH2 0x599 JUMPI PUSH1 0x1 SWAP2 POP PUSH2 0x5AB JUMP JUMPDEST DUP1 PUSH2 0x5A3 DUP2 PUSH2 0x164D JUMP JUMPDEST SWAP2 POP POP PUSH2 0x54E JUMP JUMPDEST POP DUP1 ISZERO PUSH2 0x5FF JUMPI PUSH1 0x40 MLOAD PUSH3 0x461BCD PUSH1 0xE5 SHL DUP2 MSTORE PUSH1 0x20 PUSH1 0x4 DUP3 ADD MSTORE PUSH1 0x1C PUSH1 0x24 DUP3 ADD MSTORE PUSH32 0x54686520746F6B656E20697320616C726561647920616C6C6F77656400000000 PUSH1 0x44 DUP3 ADD MSTORE PUSH1 0x64 ADD JUMPDEST PUSH1 0x40 MLOAD DUP1 SWAP2 SUB SWAP1 REVERT JUMPDEST PUSH1 0x6 DUP1 SLOAD PUSH1 0x1 DUP2 ADD DUP3 SSTORE PUSH1 0x0 SWAP2 SWAP1 SWAP2 MSTORE PUSH32 0xF652222313E28459528D920B65115C16C04F3EFC82AAEDC97BE59F3F377C0D3F ADD DUP1 SLOAD PUSH1 0x1 PUSH1 0x1 PUSH1 0xA0 SHL SUB NOT AND PUSH1 0x1 PUSH1 0x1 PUSH1 0xA0 SHL SUB DUP5 AND SWAP1 DUP2 OR SWAP1 SWAP2 SSTORE PUSH1 0x40 DUP1 MLOAD CALLER DUP2 MSTORE PUSH1 0x20 DUP2 ADD SWAP3 SWAP1 SWAP3 MSTORE PUSH32 0xB255EB80CD9FAF1BF370EC9D568E7DDCD76DB8329D4665996AC3FF866E93A1A6 SWAP2 ADD JUMPDEST PUSH1 0x40 MLOAD DUP1 SWAP2 SUB SWAP1 LOG1 POP POP JUMP JUMPDEST PUSH1 0x6 DUP2 DUP2 SLOAD DUP2 LT PUSH2 0x69C JUMPI PUSH1 0x0 DUP1 REVERT JUMPDEST PUSH1 0x0 SWAP2 DUP3 MSTORE PUSH1 0x20 SWAP1 SWAP2 KECCAK256 ADD SLOAD PUSH1 0x1 PUSH1 0x1 PUSH1 0xA0 SHL SUB AND SWAP1 POP DUP2 JUMP JUMPDEST PUSH1 0x0 DUP1 PUSH1 0x0 PUSH2 0x6C4 DUP5 PUSH2 0xDCB JUMP JUMPDEST SWAP1 SWAP3 POP SWAP1 POP PUSH2 0x6D4 DUP2 PUSH1 0xA PUSH2 0x174C JUMP JUMPDEST PUSH2 0x6DE DUP4 DUP8 PUSH2 0x1758 JUMP JUMPDEST PUSH2 0x6E8 SWAP2 SWAP1 PUSH2 0x1777 JUMP JUMPDEST SWAP6 SWAP5 POP POP POP POP POP JUMP JUMPDEST PUSH2 0x6F9 PUSH2 0x131B JUMP JUMPDEST PUSH2 0x703 DUP3 DUP3 PUSH2 0x1375 JUMP JUMPDEST POP POP JUMP JUMPDEST PUSH2 0x70F PUSH2 0x131B JUMP JUMPDEST PUSH2 0x719 PUSH1 0x0 PUSH2 0x13E2 JUMP JUMPDEST JUMP JUMPDEST PUSH2 0x723 PUSH2 0x131B JUMP JUMPDEST PUSH1 0x0 JUMPDEST PUSH1 0x9 SLOAD DUP2 LT ISZERO PUSH2 0x867 JUMPI PUSH1 0x9 DUP2 DUP2 SLOAD DUP2 LT PUSH2 0x743 JUMPI PUSH2 0x743 PUSH2 0x1637 JUMP JUMPDEST PUSH1 0x0 SWAP2 DUP3 MSTORE PUSH1 0x20 SWAP1 SWAP2 KECCAK256 ADD SLOAD PUSH1 0x1 PUSH1 0x1 PUSH1 0xA0 SHL SUB AND PUSH4 0xA9059CBB PUSH2 0x76F PUSH1 0x5 SLOAD PUSH1 0x1 PUSH1 0x1 PUSH1 0xA0 SHL SUB AND SWAP1 JUMP JUMPDEST PUSH1 0xA PUSH1 0x0 PUSH1 0x9 DUP7 DUP2 SLOAD DUP2 LT PUSH2 0x786 JUMPI PUSH2 0x786 PUSH2 0x1637 JUMP JUMPDEST PUSH1 0x0 SWAP2 DUP3 MSTORE PUSH1 0x20 DUP1 DUP4 KECCAK256 SWAP2 SWAP1 SWAP2 ADD SLOAD PUSH1 0x1 PUSH1 0x1 PUSH1 0xA0 SHL SUB SWAP1 DUP2 AND DUP5 MSTORE SWAP1 DUP4 ADD SWAP4 SWAP1 SWAP4 MSTORE PUSH1 0x40 SWAP2 DUP3 ADD SWAP1 KECCAK256 SLOAD SWAP1 MLOAD PUSH1 0xE0 DUP6 SWAP1 SHL PUSH1 0x1 PUSH1 0x1 PUSH1 0xE0 SHL SUB NOT AND DUP2 MSTORE SWAP3 SWAP1 SWAP2 AND PUSH1 0x4 DUP4 ADD MSTORE PUSH1 0x24 DUP3 ADD MSTORE PUSH1 0x44 ADD PUSH1 0x20 PUSH1 0x40 MLOAD DUP1 DUP4 SUB DUP2 PUSH1 0x0 DUP8 GAS CALL ISZERO DUP1 ISZERO PUSH2 0x7F4 JUMPI RETURNDATASIZE PUSH1 0x0 DUP1 RETURNDATACOPY RETURNDATASIZE PUSH1 0x0 REVERT JUMPDEST POP POP POP POP PUSH1 0x40 MLOAD RETURNDATASIZE PUSH1 0x1F NOT PUSH1 0x1F DUP3 ADD AND DUP3 ADD DUP1 PUSH1 0x40 MSTORE POP DUP2 ADD SWAP1 PUSH2 0x818 SWAP2 SWAP1 PUSH2 0x1799 JUMP JUMPDEST POP PUSH1 0xA PUSH1 0x0 PUSH1 0x9 DUP4 DUP2 SLOAD DUP2 LT PUSH2 0x830 JUMPI PUSH2 0x830 PUSH2 0x1637 JUMP JUMPDEST PUSH1 0x0 SWAP2 DUP3 MSTORE PUSH1 0x20 DUP1 DUP4 KECCAK256 SWAP1 SWAP2 ADD SLOAD PUSH1 0x1 PUSH1 0x1 PUSH1 0xA0 SHL SUB AND DUP4 MSTORE DUP3 ADD SWAP3 SWAP1 SWAP3 MSTORE PUSH1 0x40 ADD DUP2 KECCAK256 SSTORE DUP1 PUSH2 0x85F DUP2 PUSH2 0x164D JUMP JUMPDEST SWAP2 POP POP PUSH2 0x726 JUMP JUMPDEST POP PUSH2 0x874 PUSH1 0x9 PUSH1 0x0 PUSH2 0x1434 JUMP JUMPDEST PUSH1 0x40 MLOAD CALLER DUP2 MSTORE PUSH31 0x10C32246C8E33BFFE9BAE9A9A52BFB8B0737A17FF2B7E89EC9E4F4744C48A1 SWAP1 PUSH1 0x20 ADD PUSH1 0x40 MLOAD DUP1 SWAP2 SUB SWAP1 LOG1 JUMP JUMPDEST PUSH2 0x8B1 DUP2 PUSH2 0xF45 JUMP JUMPDEST PUSH2 0x8FD JUMPI PUSH1 0x40 MLOAD PUSH3 0x461BCD PUSH1 0xE5 SHL DUP2 MSTORE PUSH1 0x20 PUSH1 0x4 DUP3 ADD MSTORE PUSH1 0x1E PUSH1 0x24 DUP3 ADD MSTORE PUSH32 0x43616E6E6F7420627579205257442077697468207468697320746F6B656E0000 PUSH1 0x44 DUP3 ADD MSTORE PUSH1 0x64 ADD PUSH2 0x5F6 JUMP JUMPDEST PUSH1 0x0 DUP3 GT PUSH2 0x957 JUMPI PUSH1 0x40 MLOAD PUSH3 0x461BCD PUSH1 0xE5 SHL DUP2 MSTORE PUSH1 0x20 PUSH1 0x4 DUP3 ADD MSTORE PUSH1 0x21 PUSH1 0x24 DUP3 ADD MSTORE PUSH32 0x416D6F756E74206D757374206265206D6F7265207468616E203020746F6B656E PUSH1 0x44 DUP3 ADD MSTORE PUSH1 0x73 PUSH1 0xF8 SHL PUSH1 0x64 DUP3 ADD MSTORE PUSH1 0x84 ADD PUSH2 0x5F6 JUMP JUMPDEST PUSH1 0x40 MLOAD PUSH4 0x23B872DD PUSH1 0xE0 SHL DUP2 MSTORE CALLER PUSH1 0x4 DUP3 ADD MSTORE ADDRESS PUSH1 0x24 DUP3 ADD MSTORE PUSH1 0x44 DUP2 ADD DUP4 SWAP1 MSTORE PUSH1 0x1 PUSH1 0x1 PUSH1 0xA0 SHL SUB DUP3 AND SWAP1 PUSH4 0x23B872DD SWAP1 PUSH1 0x64 ADD PUSH1 0x20 PUSH1 0x40 MLOAD DUP1 DUP4 SUB DUP2 PUSH1 0x0 DUP8 GAS CALL ISZERO DUP1 ISZERO PUSH2 0x9AA JUMPI RETURNDATASIZE PUSH1 0x0 DUP1 RETURNDATACOPY RETURNDATASIZE PUSH1 0x0 REVERT JUMPDEST POP POP POP POP PUSH1 0x40 MLOAD RETURNDATASIZE PUSH1 0x1F NOT PUSH1 0x1F DUP3 ADD AND DUP3 ADD DUP1 PUSH1 0x40 MSTORE POP DUP2 ADD SWAP1 PUSH2 0x9CE SWAP2 SWAP1 PUSH2 0x1799 JUMP JUMPDEST POP PUSH1 0x9 DUP1 SLOAD PUSH1 0x1 DUP2 ADD SWAP1 SWAP2 SSTORE PUSH32 0x6E1540171B6C0C960B71A7020D9F60077F6AF931A8BBF590DA0223DACF75C7AF ADD DUP1 SLOAD PUSH1 0x1 PUSH1 0x1 PUSH1 0xA0 SHL SUB NOT AND PUSH1 0x1 PUSH1 0x1 PUSH1 0xA0 SHL SUB DUP4 AND SWAP1 DUP2 OR SWAP1 SWAP2 SSTORE PUSH1 0x0 SWAP1 DUP2 MSTORE PUSH1 0xA PUSH1 0x20 MSTORE PUSH1 0x40 DUP2 KECCAK256 DUP4 SWAP1 SSTORE PUSH2 0xA33 DUP4 DUP4 PUSH2 0x6B6 JUMP JUMPDEST SWAP1 POP PUSH1 0x0 PUSH2 0xA41 DUP3 ADDRESS PUSH2 0xC6B JUMP JUMPDEST SWAP1 POP PUSH2 0xA4E ADDRESS CALLER DUP4 PUSH2 0x114D JUMP JUMPDEST DUP1 PUSH1 0x8 PUSH1 0x0 DUP3 DUP3 SLOAD PUSH2 0xA60 SWAP2 SWAP1 PUSH2 0x17BB JUMP JUMPDEST SWAP1 SWAP2 SSTORE POP POP PUSH1 0x40 DUP1 MLOAD CALLER DUP2 MSTORE PUSH1 0x1 PUSH1 0x1 PUSH1 0xA0 SHL SUB DUP6 AND PUSH1 0x20 DUP3 ADD MSTORE SWAP1 DUP2 ADD DUP6 SWAP1 MSTORE PUSH1 0x60 DUP2 ADD DUP3 SWAP1 MSTORE PUSH32 0x405426D39D8E779E767431271111E0C0410A44F0775F32656A11194427CFBEEB SWAP1 PUSH1 0x80 ADD PUSH1 0x40 MLOAD DUP1 SWAP2 SUB SWAP1 LOG1 POP POP POP POP JUMP JUMPDEST PUSH2 0xAC3 PUSH2 0x131B JUMP JUMPDEST PUSH1 0x6 SLOAD PUSH1 0x0 JUMPDEST PUSH1 0x6 SLOAD DUP2 LT ISZERO PUSH2 0xB25 JUMPI DUP3 PUSH1 0x1 PUSH1 0x1 PUSH1 0xA0 SHL SUB AND PUSH1 0x6 DUP3 DUP2 SLOAD DUP2 LT PUSH2 0xAF0 JUMPI PUSH2 0xAF0 PUSH2 0x1637 JUMP JUMPDEST PUSH1 0x0 SWAP2 DUP3 MSTORE PUSH1 0x20 SWAP1 SWAP2 KECCAK256 ADD SLOAD PUSH1 0x1 PUSH1 0x1 PUSH1 0xA0 SHL SUB AND EQ ISZERO PUSH2 0xB13 JUMPI DUP1 SWAP2 POP PUSH2 0xB25 JUMP JUMPDEST DUP1 PUSH2 0xB1D DUP2 PUSH2 0x164D JUMP JUMPDEST SWAP2 POP POP PUSH2 0xAC9 JUMP JUMPDEST POP PUSH1 0x6 SLOAD DUP2 LT PUSH2 0xB77 JUMPI PUSH1 0x40 MLOAD PUSH3 0x461BCD PUSH1 0xE5 SHL DUP2 MSTORE PUSH1 0x20 PUSH1 0x4 DUP3 ADD MSTORE PUSH1 0x1E PUSH1 0x24 DUP3 ADD MSTORE PUSH32 0x54686520746F6B656E20697320616C726561647920756E616C6C6F7765640000 PUSH1 0x44 DUP3 ADD MSTORE PUSH1 0x64 ADD PUSH2 0x5F6 JUMP JUMPDEST PUSH1 0x6 DUP1 SLOAD PUSH2 0xB87 SWAP1 PUSH1 0x1 SWAP1 PUSH2 0x17BB JUMP JUMPDEST DUP2 SLOAD DUP2 LT PUSH2 0xB97 JUMPI PUSH2 0xB97 PUSH2 0x1637 JUMP JUMPDEST PUSH1 0x0 SWAP2 DUP3 MSTORE PUSH1 0x20 SWAP1 SWAP2 KECCAK256 ADD SLOAD PUSH1 0x6 DUP1 SLOAD PUSH1 0x1 PUSH1 0x1 PUSH1 0xA0 SHL SUB SWAP1 SWAP3 AND SWAP2 DUP4 SWAP1 DUP2 LT PUSH2 0xBC3 JUMPI PUSH2 0xBC3 PUSH2 0x1637 JUMP JUMPDEST SWAP1 PUSH1 0x0 MSTORE PUSH1 0x20 PUSH1 0x0 KECCAK256 ADD PUSH1 0x0 PUSH2 0x100 EXP DUP2 SLOAD DUP2 PUSH1 0x1 PUSH1 0x1 PUSH1 0xA0 SHL SUB MUL NOT AND SWAP1 DUP4 PUSH1 0x1 PUSH1 0x1 PUSH1 0xA0 SHL SUB AND MUL OR SWAP1 SSTORE POP PUSH1 0x6 DUP1 SLOAD DUP1 PUSH2 0xC02 JUMPI PUSH2 0xC02 PUSH2 0x17D2 JUMP JUMPDEST PUSH1 0x0 DUP3 DUP2 MSTORE PUSH1 0x20 SWAP1 KECCAK256 DUP2 ADD PUSH1 0x0 NOT SWAP1 DUP2 ADD DUP1 SLOAD PUSH1 0x1 PUSH1 0x1 PUSH1 0xA0 SHL SUB NOT AND SWAP1 SSTORE ADD SWAP1 SSTORE PUSH1 0x40 MLOAD PUSH32 0x564B89698F7ED468CC4FD744742E329FDDD973BA260C976968AEB4ACFE78B733 SWAP1 PUSH2 0x680 SWAP1 CALLER SWAP1 DUP6 SWAP1 PUSH1 0x1 PUSH1 0x1 PUSH1 0xA0 SHL SUB SWAP3 DUP4 AND DUP2 MSTORE SWAP2 AND PUSH1 0x20 DUP3 ADD MSTORE PUSH1 0x40 ADD SWAP1 JUMP JUMPDEST PUSH1 0x0 DUP1 PUSH1 0x0 PUSH2 0xC79 DUP5 PUSH2 0xDCB JUMP JUMPDEST SWAP1 SWAP3 POP SWAP1 POP DUP2 PUSH2 0xC8A DUP3 PUSH1 0xA PUSH2 0x174C JUMP JUMPDEST PUSH2 0x6DE SWAP1 DUP8 PUSH2 0x1758 JUMP JUMPDEST PUSH1 0x60 PUSH1 0x4 DUP1 SLOAD PUSH2 0x45F SWAP1 PUSH2 0x15CE JUMP JUMPDEST PUSH1 0x0 CALLER DUP2 PUSH2 0xCB1 DUP3 DUP7 PUSH2 0xD90 JUMP JUMPDEST SWAP1 POP DUP4 DUP2 LT ISZERO PUSH2 0xD11 JUMPI PUSH1 0x40 MLOAD PUSH3 0x461BCD PUSH1 0xE5 SHL DUP2 MSTORE PUSH1 0x20 PUSH1 0x4 DUP3 ADD MSTORE PUSH1 0x25 PUSH1 0x24 DUP3 ADD MSTORE PUSH32 0x45524332303A2064656372656173656420616C6C6F77616E63652062656C6F77 PUSH1 0x44 DUP3 ADD MSTORE PUSH5 0x207A65726F PUSH1 0xD8 SHL PUSH1 0x64 DUP3 ADD MSTORE PUSH1 0x84 ADD PUSH2 0x5F6 JUMP JUMPDEST PUSH2 0x515 DUP3 DUP7 DUP7 DUP5 SUB PUSH2 0xFAF JUMP JUMPDEST PUSH1 0x0 CALLER PUSH2 0x4F0 DUP2 DUP6 DUP6 PUSH2 0x114D JUMP JUMPDEST PUSH1 0x1 PUSH1 0x1 PUSH1 0xA0 SHL SUB DUP2 AND PUSH1 0x0 DUP2 DUP2 MSTORE PUSH1 0x7 PUSH1 0x20 SWAP1 DUP2 MSTORE PUSH1 0x40 SWAP2 DUP3 SWAP1 KECCAK256 DUP1 SLOAD PUSH1 0x1 PUSH1 0x1 PUSH1 0xA0 SHL SUB NOT AND SWAP1 SSTORE DUP2 MLOAD CALLER DUP2 MSTORE SWAP1 DUP2 ADD SWAP3 SWAP1 SWAP3 MSTORE PUSH32 0x98E8580445F1A29F2F0FE34378D51B3ECCB66ACEC25DF96A0E2E69EBB1F43EC7 SWAP2 ADD PUSH1 0x40 MLOAD DUP1 SWAP2 SUB SWAP1 LOG1 POP JUMP JUMPDEST PUSH1 0x1 PUSH1 0x1 PUSH1 0xA0 SHL SUB SWAP2 DUP3 AND PUSH1 0x0 SWAP1 DUP2 MSTORE PUSH1 0x1 PUSH1 0x20 SWAP1 DUP2 MSTORE PUSH1 0x40 DUP1 DUP4 KECCAK256 SWAP4 SWAP1 SWAP5 AND DUP3 MSTORE SWAP2 SWAP1 SWAP2 MSTORE KECCAK256 SLOAD SWAP1 JUMP JUMPDEST PUSH1 0x9 DUP2 DUP2 SLOAD DUP2 LT PUSH2 0x69C JUMPI PUSH1 0x0 DUP1 REVERT JUMPDEST PUSH1 0x1 PUSH1 0x1 PUSH1 0xA0 SHL SUB DUP1 DUP3 AND PUSH1 0x0 SWAP1 DUP2 MSTORE PUSH1 0x7 PUSH1 0x20 MSTORE PUSH1 0x40 DUP1 DUP3 KECCAK256 SLOAD DUP2 MLOAD PUSH4 0x3FABE5A3 PUSH1 0xE2 SHL DUP2 MSTORE SWAP2 MLOAD SWAP3 SWAP4 DUP5 SWAP4 SWAP2 AND SWAP2 DUP3 SWAP2 DUP5 SWAP2 DUP4 SWAP2 PUSH4 0xFEAF968C SWAP2 PUSH1 0x4 DUP1 DUP3 ADD SWAP3 PUSH1 0xA0 SWAP3 SWAP1 SWAP2 SWAP1 DUP3 SWAP1 SUB ADD DUP2 DUP7 GAS STATICCALL ISZERO DUP1 ISZERO PUSH2 0xE2C JUMPI RETURNDATASIZE PUSH1 0x0 DUP1 RETURNDATACOPY RETURNDATASIZE PUSH1 0x0 REVERT JUMPDEST POP POP POP POP PUSH1 0x40 MLOAD RETURNDATASIZE PUSH1 0x1F NOT PUSH1 0x1F DUP3 ADD AND DUP3 ADD DUP1 PUSH1 0x40 MSTORE POP DUP2 ADD SWAP1 PUSH2 0xE50 SWAP2 SWAP1 PUSH2 0x1802 JUMP JUMPDEST POP POP POP SWAP2 POP POP PUSH1 0x0 DUP3 PUSH1 0x1 PUSH1 0x1 PUSH1 0xA0 SHL SUB AND PUSH4 0x313CE567 PUSH1 0x40 MLOAD DUP2 PUSH4 0xFFFFFFFF AND PUSH1 0xE0 SHL DUP2 MSTORE PUSH1 0x4 ADD PUSH1 0x20 PUSH1 0x40 MLOAD DUP1 DUP4 SUB DUP2 DUP7 GAS STATICCALL ISZERO DUP1 ISZERO PUSH2 0xE96 JUMPI RETURNDATASIZE PUSH1 0x0 DUP1 RETURNDATACOPY RETURNDATASIZE PUSH1 0x0 REVERT JUMPDEST POP POP POP POP PUSH1 0x40 MLOAD RETURNDATASIZE PUSH1 0x1F NOT PUSH1 0x1F DUP3 ADD AND DUP3 ADD DUP1 PUSH1 0x40 MSTORE POP DUP2 ADD SWAP1 PUSH2 0xEBA SWAP2 SWAP1 PUSH2 0x1852 JUMP JUMPDEST SWAP2 SWAP8 PUSH1 0xFF SWAP1 SWAP3 AND SWAP7 POP SWAP1 SWAP5 POP POP POP POP POP JUMP JUMPDEST PUSH2 0xED4 PUSH2 0x131B JUMP JUMPDEST PUSH1 0x1 PUSH1 0x1 PUSH1 0xA0 SHL SUB DUP2 AND PUSH2 0xF39 JUMPI PUSH1 0x40 MLOAD PUSH3 0x461BCD PUSH1 0xE5 SHL DUP2 MSTORE PUSH1 0x20 PUSH1 0x4 DUP3 ADD MSTORE PUSH1 0x26 PUSH1 0x24 DUP3 ADD MSTORE PUSH32 0x4F776E61626C653A206E6577206F776E657220697320746865207A65726F2061 PUSH1 0x44 DUP3 ADD MSTORE PUSH6 0x646472657373 PUSH1 0xD0 SHL PUSH1 0x64 DUP3 ADD MSTORE PUSH1 0x84 ADD PUSH2 0x5F6 JUMP JUMPDEST PUSH2 0xF42 DUP2 PUSH2 0x13E2 JUMP JUMPDEST POP JUMP JUMPDEST PUSH1 0x0 DUP1 JUMPDEST PUSH1 0x6 SLOAD DUP2 LT ISZERO PUSH2 0xFA6 JUMPI DUP3 PUSH1 0x1 PUSH1 0x1 PUSH1 0xA0 SHL SUB AND PUSH1 0x6 DUP3 DUP2 SLOAD DUP2 LT PUSH2 0xF70 JUMPI PUSH2 0xF70 PUSH2 0x1637 JUMP JUMPDEST PUSH1 0x0 SWAP2 DUP3 MSTORE PUSH1 0x20 SWAP1 SWAP2 KECCAK256 ADD SLOAD PUSH1 0x1 PUSH1 0x1 PUSH1 0xA0 SHL SUB AND EQ ISZERO PUSH2 0xF94 JUMPI POP PUSH1 0x1 SWAP3 SWAP2 POP POP JUMP JUMPDEST DUP1 PUSH2 0xF9E DUP2 PUSH2 0x164D JUMP JUMPDEST SWAP2 POP POP PUSH2 0xF49 JUMP JUMPDEST POP PUSH1 0x0 SWAP3 SWAP2 POP POP JUMP JUMPDEST PUSH1 0x1 PUSH1 0x1 PUSH1 0xA0 SHL SUB DUP4 AND PUSH2 0x1011 JUMPI PUSH1 0x40 MLOAD PUSH3 0x461BCD PUSH1 0xE5 SHL DUP2 MSTORE PUSH1 0x20 PUSH1 0x4 DUP3 ADD MSTORE PUSH1 0x24 DUP1 DUP3 ADD MSTORE PUSH32 0x45524332303A20617070726F76652066726F6D20746865207A65726F20616464 PUSH1 0x44 DUP3 ADD MSTORE PUSH4 0x72657373 PUSH1 0xE0 SHL PUSH1 0x64 DUP3 ADD MSTORE PUSH1 0x84 ADD PUSH2 0x5F6 JUMP JUMPDEST PUSH1 0x1 PUSH1 0x1 PUSH1 0xA0 SHL SUB DUP3 AND PUSH2 0x1072 JUMPI PUSH1 0x40 MLOAD PUSH3 0x461BCD PUSH1 0xE5 SHL DUP2 MSTORE PUSH1 0x20 PUSH1 0x4 DUP3 ADD MSTORE PUSH1 0x22 PUSH1 0x24 DUP3 ADD MSTORE PUSH32 0x45524332303A20617070726F766520746F20746865207A65726F206164647265 PUSH1 0x44 DUP3 ADD MSTORE PUSH2 0x7373 PUSH1 0xF0 SHL PUSH1 0x64 DUP3 ADD MSTORE PUSH1 0x84 ADD PUSH2 0x5F6 JUMP JUMPDEST PUSH1 0x1 PUSH1 0x1 PUSH1 0xA0 SHL SUB DUP4 DUP2 AND PUSH1 0x0 DUP2 DUP2 MSTORE PUSH1 0x1 PUSH1 0x20 SWAP1 DUP2 MSTORE PUSH1 0x40 DUP1 DUP4 KECCAK256 SWAP5 DUP8 AND DUP1 DUP5 MSTORE SWAP5 DUP3 MSTORE SWAP2 DUP3 SWAP1 KECCAK256 DUP6 SWAP1 SSTORE SWAP1 MLOAD DUP5 DUP2 MSTORE PUSH32 0x8C5BE1E5EBEC7D5BD14F71427D1E84F3DD0314C0F7B2291E5B200AC8C7C3B925 SWAP2 ADD PUSH1 0x40 MLOAD DUP1 SWAP2 SUB SWAP1 LOG3 POP POP POP JUMP JUMPDEST PUSH1 0x0 PUSH2 0x10DF DUP5 DUP5 PUSH2 0xD90 JUMP JUMPDEST SWAP1 POP PUSH1 0x0 NOT DUP2 EQ PUSH2 0x1147 JUMPI DUP2 DUP2 LT ISZERO PUSH2 0x113A JUMPI PUSH1 0x40 MLOAD PUSH3 0x461BCD PUSH1 0xE5 SHL DUP2 MSTORE PUSH1 0x20 PUSH1 0x4 DUP3 ADD MSTORE PUSH1 0x1D PUSH1 0x24 DUP3 ADD MSTORE PUSH32 0x45524332303A20696E73756666696369656E7420616C6C6F77616E6365000000 PUSH1 0x44 DUP3 ADD MSTORE PUSH1 0x64 ADD PUSH2 0x5F6 JUMP JUMPDEST PUSH2 0x1147 DUP5 DUP5 DUP5 DUP5 SUB PUSH2 0xFAF JUMP JUMPDEST POP POP POP POP JUMP JUMPDEST PUSH1 0x1 PUSH1 0x1 PUSH1 0xA0 SHL SUB DUP4 AND PUSH2 0x11B1 JUMPI PUSH1 0x40 MLOAD PUSH3 0x461BCD PUSH1 0xE5 SHL DUP2 MSTORE PUSH1 0x20 PUSH1 0x4 DUP3 ADD MSTORE PUSH1 0x25 PUSH1 0x24 DUP3 ADD MSTORE PUSH32 0x45524332303A207472616E736665722066726F6D20746865207A65726F206164 PUSH1 0x44 DUP3 ADD MSTORE PUSH5 0x6472657373 PUSH1 0xD8 SHL PUSH1 0x64 DUP3 ADD MSTORE PUSH1 0x84 ADD PUSH2 0x5F6 JUMP JUMPDEST PUSH1 0x1 PUSH1 0x1 PUSH1 0xA0 SHL SUB DUP3 AND PUSH2 0x1213 JUMPI PUSH1 0x40 MLOAD PUSH3 0x461BCD PUSH1 0xE5 SHL DUP2 MSTORE PUSH1 0x20 PUSH1 0x4 DUP3 ADD MSTORE PUSH1 0x23 PUSH1 0x24 DUP3 ADD MSTORE PUSH32 0x45524332303A207472616E7366657220746F20746865207A65726F2061646472 PUSH1 0x44 DUP3 ADD MSTORE PUSH3 0x657373 PUSH1 0xE8 SHL PUSH1 0x64 DUP3 ADD MSTORE PUSH1 0x84 ADD PUSH2 0x5F6 JUMP JUMPDEST PUSH1 0x1 PUSH1 0x1 PUSH1 0xA0 SHL SUB DUP4 AND PUSH1 0x0 SWAP1 DUP2 MSTORE PUSH1 0x20 DUP2 SWAP1 MSTORE PUSH1 0x40 SWAP1 KECCAK256 SLOAD DUP2 DUP2 LT ISZERO PUSH2 0x128B JUMPI PUSH1 0x40 MLOAD PUSH3 0x461BCD PUSH1 0xE5 SHL DUP2 MSTORE PUSH1 0x20 PUSH1 0x4 DUP3 ADD MSTORE PUSH1 0x26 PUSH1 0x24 DUP3 ADD MSTORE PUSH32 0x45524332303A207472616E7366657220616D6F756E7420657863656564732062 PUSH1 0x44 DUP3 ADD MSTORE PUSH6 0x616C616E6365 PUSH1 0xD0 SHL PUSH1 0x64 DUP3 ADD MSTORE PUSH1 0x84 ADD PUSH2 0x5F6 JUMP JUMPDEST PUSH1 0x1 PUSH1 0x1 PUSH1 0xA0 SHL SUB DUP1 DUP6 AND PUSH1 0x0 SWAP1 DUP2 MSTORE PUSH1 0x20 DUP2 SWAP1 MSTORE PUSH1 0x40 DUP1 DUP3 KECCAK256 DUP6 DUP6 SUB SWAP1 SSTORE SWAP2 DUP6 AND DUP2 MSTORE SWAP1 DUP2 KECCAK256 DUP1 SLOAD DUP5 SWAP3 SWAP1 PUSH2 0x12C2 SWAP1 DUP5 SWAP1 PUSH2 0x161F JUMP JUMPDEST SWAP3 POP POP DUP2 SWAP1 SSTORE POP DUP3 PUSH1 0x1 PUSH1 0x1 PUSH1 0xA0 SHL SUB AND DUP5 PUSH1 0x1 PUSH1 0x1 PUSH1 0xA0 SHL SUB AND PUSH32 0xDDF252AD1BE2C89B69C2B068FC378DAA952BA7F163C4A11628F55A4DF523B3EF DUP5 PUSH1 0x40 MLOAD PUSH2 0x130E SWAP2 DUP2 MSTORE PUSH1 0x20 ADD SWAP1 JUMP JUMPDEST PUSH1 0x40 MLOAD DUP1 SWAP2 SUB SWAP1 LOG3 PUSH2 0x1147 JUMP JUMPDEST PUSH1 0x5 SLOAD PUSH1 0x1 PUSH1 0x1 PUSH1 0xA0 SHL SUB AND CALLER EQ PUSH2 0x719 JUMPI PUSH1 0x40 MLOAD PUSH3 0x461BCD PUSH1 0xE5 SHL DUP2 MSTORE PUSH1 0x20 PUSH1 0x4 DUP3 ADD DUP2 SWAP1 MSTORE PUSH1 0x24 DUP3 ADD MSTORE PUSH32 0x4F776E61626C653A2063616C6C6572206973206E6F7420746865206F776E6572 PUSH1 0x44 DUP3 ADD MSTORE PUSH1 0x64 ADD PUSH2 0x5F6 JUMP JUMPDEST PUSH1 0x1 PUSH1 0x1 PUSH1 0xA0 SHL SUB DUP3 DUP2 AND PUSH1 0x0 DUP2 DUP2 MSTORE PUSH1 0x7 PUSH1 0x20 SWAP1 DUP2 MSTORE PUSH1 0x40 SWAP2 DUP3 SWAP1 KECCAK256 DUP1 SLOAD PUSH1 0x1 PUSH1 0x1 PUSH1 0xA0 SHL SUB NOT AND SWAP5 DUP7 AND SWAP5 DUP6 OR SWAP1 SSTORE DUP2 MLOAD CALLER DUP2 MSTORE SWAP1 DUP2 ADD SWAP3 SWAP1 SWAP3 MSTORE DUP2 ADD SWAP2 SWAP1 SWAP2 MSTORE PUSH32 0x1C753AF13D78BC810497ABD3AA7D5895DF193F107A47A4ED4C08940F0AC39CE3 SWAP1 PUSH1 0x60 ADD PUSH2 0x680 JUMP JUMPDEST PUSH1 0x5 DUP1 SLOAD PUSH1 0x1 PUSH1 0x1 PUSH1 0xA0 SHL SUB DUP4 DUP2 AND PUSH1 0x1 PUSH1 0x1 PUSH1 0xA0 SHL SUB NOT DUP4 AND DUP2 OR SWAP1 SWAP4 SSTORE PUSH1 0x40 MLOAD SWAP2 AND SWAP2 SWAP1 DUP3 SWAP1 PUSH32 0x8BE0079C531659141344CD1FD0A4F28419497F9722A3DAAFE3B4186F6B6457E0 SWAP1 PUSH1 0x0 SWAP1 LOG3 POP POP JUMP JUMPDEST POP DUP1 SLOAD PUSH1 0x0 DUP3 SSTORE SWAP1 PUSH1 0x0 MSTORE PUSH1 0x20 PUSH1 0x0 KECCAK256 SWAP1 DUP2 ADD SWAP1 PUSH2 0xF42 SWAP2 SWAP1 JUMPDEST DUP1 DUP3 GT ISZERO PUSH2 0x1462 JUMPI PUSH1 0x0 DUP2 SSTORE PUSH1 0x1 ADD PUSH2 0x144E JUMP JUMPDEST POP SWAP1 JUMP JUMPDEST PUSH1 0x0 PUSH1 0x20 DUP1 DUP4 MSTORE DUP4 MLOAD DUP1 DUP3 DUP6 ADD MSTORE PUSH1 0x0 JUMPDEST DUP2 DUP2 LT ISZERO PUSH2 0x1493 JUMPI DUP6 DUP2 ADD DUP4 ADD MLOAD DUP6 DUP3 ADD PUSH1 0x40 ADD MSTORE DUP3 ADD PUSH2 0x1477 JUMP JUMPDEST DUP2 DUP2 GT ISZERO PUSH2 0x14A5 JUMPI PUSH1 0x0 PUSH1 0x40 DUP4 DUP8 ADD ADD MSTORE JUMPDEST POP PUSH1 0x1F ADD PUSH1 0x1F NOT AND SWAP3 SWAP1 SWAP3 ADD PUSH1 0x40 ADD SWAP4 SWAP3 POP POP POP JUMP JUMPDEST DUP1 CALLDATALOAD PUSH1 0x1 PUSH1 0x1 PUSH1 0xA0 SHL SUB DUP2 AND DUP2 EQ PUSH2 0x14D2 JUMPI PUSH1 0x0 DUP1 REVERT JUMPDEST SWAP2 SWAP1 POP JUMP JUMPDEST PUSH1 0x0 DUP1 PUSH1 0x40 DUP4 DUP6 SUB SLT ISZERO PUSH2 0x14EA JUMPI PUSH1 0x0 DUP1 REVERT JUMPDEST PUSH2 0x14F3 DUP4 PUSH2 0x14BB JUMP JUMPDEST SWAP5 PUSH1 0x20 SWAP4 SWAP1 SWAP4 ADD CALLDATALOAD SWAP4 POP POP POP JUMP JUMPDEST PUSH1 0x0 PUSH1 0x20 DUP3 DUP5 SUB SLT ISZERO PUSH2 0x1513 JUMPI PUSH1 0x0 DUP1 REVERT JUMPDEST PUSH2 0x151C DUP3 PUSH2 0x14BB JUMP JUMPDEST SWAP4 SWAP3 POP POP POP JUMP JUMPDEST PUSH1 0x0 DUP1 PUSH1 0x0 PUSH1 0x60 DUP5 DUP7 SUB SLT ISZERO PUSH2 0x1538 JUMPI PUSH1 0x0 DUP1 REVERT JUMPDEST PUSH2 0x1541 DUP5 PUSH2 0x14BB JUMP JUMPDEST SWAP3 POP PUSH2 0x154F PUSH1 0x20 DUP6 ADD PUSH2 0x14BB JUMP JUMPDEST SWAP2 POP PUSH1 0x40 DUP5 ADD CALLDATALOAD SWAP1 POP SWAP3 POP SWAP3 POP SWAP3 JUMP JUMPDEST PUSH1 0x0 PUSH1 0x20 DUP3 DUP5 SUB SLT ISZERO PUSH2 0x1571 JUMPI PUSH1 0x0 DUP1 REVERT JUMPDEST POP CALLDATALOAD SWAP2 SWAP1 POP JUMP JUMPDEST PUSH1 0x0 DUP1 PUSH1 0x40 DUP4 DUP6 SUB SLT ISZERO PUSH2 0x158B JUMPI PUSH1 0x0 DUP1 REVERT JUMPDEST DUP3 CALLDATALOAD SWAP2 POP PUSH2 0x159B PUSH1 0x20 DUP5 ADD PUSH2 0x14BB JUMP JUMPDEST SWAP1 POP SWAP3 POP SWAP3 SWAP1 POP JUMP JUMPDEST PUSH1 0x0 DUP1 PUSH1 0x40 DUP4 DUP6 SUB SLT ISZERO PUSH2 0x15B7 JUMPI PUSH1 0x0 DUP1 REVERT JUMPDEST PUSH2 0x15C0 DUP4 PUSH2 0x14BB JUMP JUMPDEST SWAP2 POP PUSH2 0x159B PUSH1 0x20 DUP5 ADD PUSH2 0x14BB JUMP JUMPDEST PUSH1 0x1 DUP2 DUP2 SHR SWAP1 DUP3 AND DUP1 PUSH2 0x15E2 JUMPI PUSH1 0x7F DUP3 AND SWAP2 POP JUMPDEST PUSH1 0x20 DUP3 LT DUP2 EQ ISZERO PUSH2 0x1603 JUMPI PUSH4 0x4E487B71 PUSH1 0xE0 SHL PUSH1 0x0 MSTORE PUSH1 0x22 PUSH1 0x4 MSTORE PUSH1 0x24 PUSH1 0x0 REVERT JUMPDEST POP SWAP2 SWAP1 POP JUMP JUMPDEST PUSH4 0x4E487B71 PUSH1 0xE0 SHL PUSH1 0x0 MSTORE PUSH1 0x11 PUSH1 0x4 MSTORE PUSH1 0x24 PUSH1 0x0 REVERT JUMPDEST PUSH1 0x0 DUP3 NOT DUP3 GT ISZERO PUSH2 0x1632 JUMPI PUSH2 0x1632 PUSH2 0x1609 JUMP JUMPDEST POP ADD SWAP1 JUMP JUMPDEST PUSH4 0x4E487B71 PUSH1 0xE0 SHL PUSH1 0x0 MSTORE PUSH1 0x32 PUSH1 0x4 MSTORE PUSH1 0x24 PUSH1 0x0 REVERT JUMPDEST PUSH1 0x0 PUSH1 0x0 NOT DUP3 EQ ISZERO PUSH2 0x1661 JUMPI PUSH2 0x1661 PUSH2 0x1609 JUMP JUMPDEST POP PUSH1 0x1 ADD SWAP1 JUMP JUMPDEST PUSH1 0x1 DUP2 DUP2 JUMPDEST DUP1 DUP6 GT ISZERO PUSH2 0x16A3 JUMPI DUP2 PUSH1 0x0 NOT DIV DUP3 GT ISZERO PUSH2 0x1689 JUMPI PUSH2 0x1689 PUSH2 0x1609 JUMP JUMPDEST DUP1 DUP6 AND ISZERO PUSH2 0x1696 JUMPI SWAP2 DUP2 MUL SWAP2 JUMPDEST SWAP4 DUP5 SHR SWAP4 SWAP1 DUP1 MUL SWAP1 PUSH2 0x166D JUMP JUMPDEST POP SWAP3 POP SWAP3 SWAP1 POP JUMP JUMPDEST PUSH1 0x0 DUP3 PUSH2 0x16BA JUMPI POP PUSH1 0x1 PUSH2 0x4F6 JUMP JUMPDEST DUP2 PUSH2 0x16C7 JUMPI POP PUSH1 0x0 PUSH2 0x4F6 JUMP JUMPDEST DUP2 PUSH1 0x1 DUP2 EQ PUSH2 0x16DD JUMPI PUSH1 0x2 DUP2 EQ PUSH2 0x16E7 JUMPI PUSH2 0x1703 JUMP JUMPDEST PUSH1 0x1 SWAP2 POP POP PUSH2 0x4F6 JUMP JUMPDEST PUSH1 0xFF DUP5 GT ISZERO PUSH2 0x16F8 JUMPI PUSH2 0x16F8 PUSH2 0x1609 JUMP JUMPDEST POP POP PUSH1 0x1 DUP3 SHL PUSH2 0x4F6 JUMP JUMPDEST POP PUSH1 0x20 DUP4 LT PUSH2 0x133 DUP4 LT AND PUSH1 0x4E DUP5 LT PUSH1 0xB DUP5 LT AND OR ISZERO PUSH2 0x1726 JUMPI POP DUP2 DUP2 EXP PUSH2 0x4F6 JUMP JUMPDEST PUSH2 0x1730 DUP4 DUP4 PUSH2 0x1668 JUMP JUMPDEST DUP1 PUSH1 0x0 NOT DIV DUP3 GT ISZERO PUSH2 0x1744 JUMPI PUSH2 0x1744 PUSH2 0x1609 JUMP JUMPDEST MUL SWAP4 SWAP3 POP POP POP JUMP JUMPDEST PUSH1 0x0 PUSH2 0x151C DUP4 DUP4 PUSH2 0x16AB JUMP JUMPDEST PUSH1 0x0 DUP2 PUSH1 0x0 NOT DIV DUP4 GT DUP3 ISZERO ISZERO AND ISZERO PUSH2 0x1772 JUMPI PUSH2 0x1772 PUSH2 0x1609 JUMP JUMPDEST POP MUL SWAP1 JUMP JUMPDEST PUSH1 0x0 DUP3 PUSH2 0x1794 JUMPI PUSH4 0x4E487B71 PUSH1 0xE0 SHL PUSH1 0x0 MSTORE PUSH1 0x12 PUSH1 0x4 MSTORE PUSH1 0x24 PUSH1 0x0 REVERT JUMPDEST POP DIV SWAP1 JUMP JUMPDEST PUSH1 0x0 PUSH1 0x20 DUP3 DUP5 SUB SLT ISZERO PUSH2 0x17AB JUMPI PUSH1 0x0 DUP1 REVERT JUMPDEST DUP2 MLOAD DUP1 ISZERO ISZERO DUP2 EQ PUSH2 0x151C JUMPI PUSH1 0x0 DUP1 REVERT JUMPDEST PUSH1 0x0 DUP3 DUP3 LT ISZERO PUSH2 0x17CD JUMPI PUSH2 0x17CD PUSH2 0x1609 JUMP JUMPDEST POP SUB SWAP1 JUMP JUMPDEST PUSH4 0x4E487B71 PUSH1 0xE0 SHL PUSH1 0x0 MSTORE PUSH1 0x31 PUSH1 0x4 MSTORE PUSH1 0x24 PUSH1 0x0 REVERT JUMPDEST DUP1 MLOAD PUSH10 0xFFFFFFFFFFFFFFFFFFFF DUP2 AND DUP2 EQ PUSH2 0x14D2 JUMPI PUSH1 0x0 DUP1 REVERT JUMPDEST PUSH1 0x0 DUP1 PUSH1 0x0 DUP1 PUSH1 0x0 PUSH1 0xA0 DUP7 DUP9 SUB SLT ISZERO PUSH2 0x181A JUMPI PUSH1 0x0 DUP1 REVERT JUMPDEST PUSH2 0x1823 DUP7 PUSH2 0x17E8 JUMP JUMPDEST SWAP5 POP PUSH1 0x20 DUP7 ADD MLOAD SWAP4 POP PUSH1 0x40 DUP7 ADD MLOAD SWAP3 POP PUSH1 0x60 DUP7 ADD MLOAD SWAP2 POP PUSH2 0x1846 PUSH1 0x80 DUP8 ADD PUSH2 0x17E8 JUMP JUMPDEST SWAP1 POP SWAP3 SWAP6 POP SWAP3 SWAP6 SWAP1 SWAP4 POP JUMP JUMPDEST PUSH1 0x0 PUSH1 0x20 DUP3 DUP5 SUB SLT ISZERO PUSH2 0x1864 JUMPI PUSH1 0x0 DUP1 REVERT JUMPDEST DUP2 MLOAD PUSH1 0xFF DUP2 AND DUP2 EQ PUSH2 0x151C JUMPI PUSH1 0x0 DUP1 REVERT INVALID LOG2 PUSH5 0x6970667358 0x22 SLT KECCAK256 PUSH26 0x3C90C8E12B0E7CCCD8A3AC0E7F13E408AC0E921A08B5E43A6940 0xE4 0x2B 0xF7 AND POP PUSH5 0x736F6C6343 STOP ADDMOD 0xC STOP CALLER ",
  "sha1": "e973c2f5f1f6b09ac3e83f00a300bb1f54a89174",
  "source": "// SPDX-License-Identifier: MIT\npragma solidity ^0.8.0;\n\nimport \"@openzeppelin/contracts/token/ERC20/ERC20.sol\";\nimport \"@openzeppelin/contracts/token/ERC20/IERC20.sol\";\nimport \"./AllowTokens.sol\";\nimport \"./TokenValue.sol\";\n\ncontract RewardToken is ERC20, AllowTokens, TokenValue {\n    uint256 public buyableRWD;\n    address[] public tokenWithDeposits;\n    mapping(address => uint256) public token_deposit;\n\n    event Exchange(\n        address from,\n        address exchangeToken,\n        uint256 amountIn,\n        uint256 amountRwdOut\n    );\n    event CashOut(address admin);\n\n    constructor(uint256 initialSupply) ERC20(\"Reward\", \"RWD\") {\n        buyableRWD = initialSupply / 2;\n        _mint(address(this), buyableRWD);\n        _mint(msg.sender, initialSupply - buyableRWD);\n    }\n\n    function buy(uint256 amount, address exchangeToken) public {\n        require(\n            isTokenAllowed(exchangeToken),\n            \"Cannot buy RWD with this token\"\n        );\n        require(amount > 0, \"Amount must be more than 0 tokens\");\n\n        IERC20(exchangeToken).transferFrom(msg.sender, address(this), amount);\n        tokenWithDeposits.push(exchangeToken);\n        token_deposit[exchangeToken] = amount;\n\n        uint256 valueSent = getValueFromToken(amount, exchangeToken);\n        uint256 buyedRwdTokens = getTokenFromValue(valueSent, address(this));\n        _transfer(address(this), msg.sender, buyedRwdTokens);\n        buyableRWD -= buyedRwdTokens;\n\n        emit Exchange(msg.sender, exchangeToken, amount, buyedRwdTokens);\n    }\n\n    function cashOut() public onlyOwner {\n        for (uint256 i = 0; i < tokenWithDeposits.length; i++) {\n            IERC20(tokenWithDeposits[i]).transfer(\n                owner(),\n                token_deposit[tokenWithDeposits[i]]\n            );\n            delete token_deposit[tokenWithDeposits[i]];\n        }\n\n        delete tokenWithDeposits;\n        emit CashOut(msg.sender);\n    }\n\n    function setTokenPriceFeed(address token, address priceFeed)\n        public\n        override\n        onlyOwner\n    {\n        super.setTokenPriceFeed(token, priceFeed);\n    }\n}\n",
  "sourcePath": "contracts/RewardToken.sol",
  "type": "contract"
}