{
  "abi": [
    {
      "anonymous": false,
      "inputs": [
        {
          "indexed": false,
          "internalType": "address",
          "name": "admin",
          "type": "address"
        },
        {
          "indexed": false,
          "internalType": "address",
          "name": "token",
          "type": "address"
        },
        {
          "indexed": false,
          "internalType": "address",
          "name": "priceFeed",
          "type": "address"
        }
      ],
      "name": "AddedPriceFeed",
      "type": "event"
    },
    {
      "anonymous": false,
      "inputs": [
        {
          "indexed": false,
          "internalType": "address",
          "name": "admin",
          "type": "address"
        },
        {
          "indexed": false,
          "internalType": "address",
          "name": "token",
          "type": "address"
        }
      ],
      "name": "RemovedPriceFeed",
      "type": "event"
    },
    {
      "inputs": [
        {
          "internalType": "uint256",
          "name": "amount",
          "type": "uint256"
        },
        {
          "internalType": "address",
          "name": "token",
          "type": "address"
        }
      ],
      "name": "getTokenFromValue",
      "outputs": [
        {
          "internalType": "uint256",
          "name": "",
          "type": "uint256"
        }
      ],
      "stateMutability": "view",
      "type": "function"
    },
    {
      "inputs": [
        {
          "internalType": "address",
          "name": "token",
          "type": "address"
        }
      ],
      "name": "getTokenValue",
      "outputs": [
        {
          "internalType": "uint256",
          "name": "",
          "type": "uint256"
        },
        {
          "internalType": "uint256",
          "name": "",
          "type": "uint256"
        }
      ],
      "stateMutability": "view",
      "type": "function"
    },
    {
      "inputs": [
        {
          "internalType": "uint256",
          "name": "amount",
          "type": "uint256"
        },
        {
          "internalType": "address",
          "name": "token",
          "type": "address"
        }
      ],
      "name": "getValueFromToken",
      "outputs": [
        {
          "internalType": "uint256",
          "name": "",
          "type": "uint256"
        }
      ],
      "stateMutability": "view",
      "type": "function"
    },
    {
      "inputs": [
        {
          "internalType": "address",
          "name": "token",
          "type": "address"
        }
      ],
      "name": "removeTokenPriceFeed",
      "outputs": [],
      "stateMutability": "nonpayable",
      "type": "function"
    },
    {
      "inputs": [
        {
          "internalType": "address",
          "name": "token",
          "type": "address"
        },
        {
          "internalType": "address",
          "name": "priceFeed",
          "type": "address"
        }
      ],
      "name": "setTokenPriceFeed",
      "outputs": [],
      "stateMutability": "nonpayable",
      "type": "function"
    },
    {
      "inputs": [
        {
          "internalType": "address",
          "name": "",
          "type": "address"
        }
      ],
      "name": "token_priceFeed",
      "outputs": [
        {
          "internalType": "address",
          "name": "",
          "type": "address"
        }
      ],
      "stateMutability": "view",
      "type": "function"
    }
  ],
  "bytecode": "608060405234801561001057600080fd5b5061060a806100206000396000f3fe608060405234801561001057600080fd5b50600436106100625760003560e01c806346db69a71461006757806360819168146100ad578063674417ae146100ce578063920a4243146100e3578063ce2ff6aa146100f6578063f1c5d6c214610109575b600080fd5b610090610075366004610388565b6000602081905290815260409020546001600160a01b031681565b6040516001600160a01b0390911681526020015b60405180910390f35b6100c06100bb3660046103aa565b610131565b6040519081526020016100a4565b6100e16100dc3660046103d6565b61016e565b005b6100c06100f13660046103aa565b6101e0565b6100e1610104366004610388565b610209565b61011c610117366004610388565b61026b565b604080519283526020830191909152016100a4565b600080600061013f8461026b565b909250905061014f81600a6104fa565b6101598387610506565b6101639190610525565b925050505b92915050565b6001600160a01b038281166000818152602081815260409182902080546001600160a01b03191694861694851790558151338152908101929092528101919091527f1c753af13d78bc810497abd3aa7d5895df193f107a47a4ed4c08940f0ac39ce39060600160405180910390a15050565b60008060006101ee8461026b565b9092509050816101ff82600a6104fa565b6101599087610506565b6001600160a01b0381166000818152602081815260409182902080546001600160a01b03191690558151338152908101929092527f98e8580445f1a29f2f0fe34378d51b3eccb66acec25df96a0e2e69ebb1f43ec7910160405180910390a150565b6001600160a01b03808216600090815260208190526040808220548151633fabe5a360e21b815291519293849391169182918491839163feaf968c9160048082019260a0929091908290030181865afa1580156102cc573d6000803e3d6000fd5b505050506040513d601f19601f820116820180604052508101906102f09190610561565b5050509150506000826001600160a01b031663313ce5676040518163ffffffff1660e01b8152600401602060405180830381865afa158015610336573d6000803e3d6000fd5b505050506040513d601f19601f8201168201806040525081019061035a91906105b1565b919760ff909216965090945050505050565b80356001600160a01b038116811461038357600080fd5b919050565b60006020828403121561039a57600080fd5b6103a38261036c565b9392505050565b600080604083850312156103bd57600080fd5b823591506103cd6020840161036c565b90509250929050565b600080604083850312156103e957600080fd5b6103f28361036c565b91506103cd6020840161036c565b634e487b7160e01b600052601160045260246000fd5b600181815b8085111561045157816000190482111561043757610437610400565b8085161561044457918102915b93841c939080029061041b565b509250929050565b60008261046857506001610168565b8161047557506000610168565b816001811461048b5760028114610495576104b1565b6001915050610168565b60ff8411156104a6576104a6610400565b50506001821b610168565b5060208310610133831016604e8410600b84101617156104d4575081810a610168565b6104de8383610416565b80600019048211156104f2576104f2610400565b029392505050565b60006103a38383610459565b600081600019048311821515161561052057610520610400565b500290565b60008261054257634e487b7160e01b600052601260045260246000fd5b500490565b805169ffffffffffffffffffff8116811461038357600080fd5b600080600080600060a0868803121561057957600080fd5b61058286610547565b94506020860151935060408601519250606086015191506105a560808701610547565b90509295509295909350565b6000602082840312156105c357600080fd5b815160ff811681146103a357600080fdfea26469706673582212204e92e94b771a20099baebdae4320d208cde1665359ff14e621037d224b8415b364736f6c634300080c0033",
  "bytecodeSha1": "74602c4b9910d4610619c2eab0e0912463510821",
  "compiler": {
    "evm_version": "istanbul",
    "optimizer": {
      "enabled": true,
      "runs": 200
    },
    "version": "0.8.12+commit.f00d7308"
  },
  "contractName": "TokenValue",
  "language": "Solidity",
  "natspec": {
    "kind": "dev",
    "methods": {},
    "version": 1
  },
  "opcodes": "PUSH1 0x80 PUSH1 0x40 MSTORE CALLVALUE DUP1 ISZERO PUSH2 0x10 JUMPI PUSH1 0x0 DUP1 REVERT JUMPDEST POP PUSH1 0x4 CALLDATASIZE LT PUSH2 0x62 JUMPI PUSH1 0x0 CALLDATALOAD PUSH1 0xE0 SHR DUP1 PUSH4 0x46DB69A7 EQ PUSH2 0x67 JUMPI DUP1 PUSH4 0x60819168 EQ PUSH2 0xAD JUMPI DUP1 PUSH4 0x674417AE EQ PUSH2 0xCE JUMPI DUP1 PUSH4 0x920A4243 EQ PUSH2 0xE3 JUMPI DUP1 PUSH4 0xCE2FF6AA EQ PUSH2 0xF6 JUMPI DUP1 PUSH4 0xF1C5D6C2 EQ PUSH2 0x109 JUMPI JUMPDEST PUSH1 0x0 DUP1 REVERT JUMPDEST PUSH2 0x90 PUSH2 0x75 CALLDATASIZE PUSH1 0x4 PUSH2 0x388 JUMP JUMPDEST PUSH1 0x0 PUSH1 0x20 DUP2 SWAP1 MSTORE SWAP1 DUP2 MSTORE PUSH1 0x40 SWAP1 KECCAK256 SLOAD PUSH1 0x1 PUSH1 0x1 PUSH1 0xA0 SHL SUB AND DUP2 JUMP JUMPDEST PUSH1 0x40 MLOAD PUSH1 0x1 PUSH1 0x1 PUSH1 0xA0 SHL SUB SWAP1 SWAP2 AND DUP2 MSTORE PUSH1 0x20 ADD JUMPDEST PUSH1 0x40 MLOAD DUP1 SWAP2 SUB SWAP1 RETURN JUMPDEST PUSH2 0xC0 PUSH2 0xBB CALLDATASIZE PUSH1 0x4 PUSH2 0x3AA JUMP JUMPDEST PUSH2 0x131 JUMP JUMPDEST PUSH1 0x40 MLOAD SWAP1 DUP2 MSTORE PUSH1 0x20 ADD PUSH2 0xA4 JUMP JUMPDEST PUSH2 0xE1 PUSH2 0xDC CALLDATASIZE PUSH1 0x4 PUSH2 0x3D6 JUMP JUMPDEST PUSH2 0x16E JUMP JUMPDEST STOP JUMPDEST PUSH2 0xC0 PUSH2 0xF1 CALLDATASIZE PUSH1 0x4 PUSH2 0x3AA JUMP JUMPDEST PUSH2 0x1E0 JUMP JUMPDEST PUSH2 0xE1 PUSH2 0x104 CALLDATASIZE PUSH1 0x4 PUSH2 0x388 JUMP JUMPDEST PUSH2 0x209 JUMP JUMPDEST PUSH2 0x11C PUSH2 0x117 CALLDATASIZE PUSH1 0x4 PUSH2 0x388 JUMP JUMPDEST PUSH2 0x26B JUMP JUMPDEST PUSH1 0x40 DUP1 MLOAD SWAP3 DUP4 MSTORE PUSH1 0x20 DUP4 ADD SWAP2 SWAP1 SWAP2 MSTORE ADD PUSH2 0xA4 JUMP JUMPDEST PUSH1 0x0 DUP1 PUSH1 0x0 PUSH2 0x13F DUP5 PUSH2 0x26B JUMP JUMPDEST SWAP1 SWAP3 POP SWAP1 POP PUSH2 0x14F DUP2 PUSH1 0xA PUSH2 0x4FA JUMP JUMPDEST PUSH2 0x159 DUP4 DUP8 PUSH2 0x506 JUMP JUMPDEST PUSH2 0x163 SWAP2 SWAP1 PUSH2 0x525 JUMP JUMPDEST SWAP3 POP POP POP JUMPDEST SWAP3 SWAP2 POP POP JUMP JUMPDEST PUSH1 0x1 PUSH1 0x1 PUSH1 0xA0 SHL SUB DUP3 DUP2 AND PUSH1 0x0 DUP2 DUP2 MSTORE PUSH1 0x20 DUP2 DUP2 MSTORE PUSH1 0x40 SWAP2 DUP3 SWAP1 KECCAK256 DUP1 SLOAD PUSH1 0x1 PUSH1 0x1 PUSH1 0xA0 SHL SUB NOT AND SWAP5 DUP7 AND SWAP5 DUP6 OR SWAP1 SSTORE DUP2 MLOAD CALLER DUP2 MSTORE SWAP1 DUP2 ADD SWAP3 SWAP1 SWAP3 MSTORE DUP2 ADD SWAP2 SWAP1 SWAP2 MSTORE PUSH32 0x1C753AF13D78BC810497ABD3AA7D5895DF193F107A47A4ED4C08940F0AC39CE3 SWAP1 PUSH1 0x60 ADD PUSH1 0x40 MLOAD DUP1 SWAP2 SUB SWAP1 LOG1 POP POP JUMP JUMPDEST PUSH1 0x0 DUP1 PUSH1 0x0 PUSH2 0x1EE DUP5 PUSH2 0x26B JUMP JUMPDEST SWAP1 SWAP3 POP SWAP1 POP DUP2 PUSH2 0x1FF DUP3 PUSH1 0xA PUSH2 0x4FA JUMP JUMPDEST PUSH2 0x159 SWAP1 DUP8 PUSH2 0x506 JUMP JUMPDEST PUSH1 0x1 PUSH1 0x1 PUSH1 0xA0 SHL SUB DUP2 AND PUSH1 0x0 DUP2 DUP2 MSTORE PUSH1 0x20 DUP2 DUP2 MSTORE PUSH1 0x40 SWAP2 DUP3 SWAP1 KECCAK256 DUP1 SLOAD PUSH1 0x1 PUSH1 0x1 PUSH1 0xA0 SHL SUB NOT AND SWAP1 SSTORE DUP2 MLOAD CALLER DUP2 MSTORE SWAP1 DUP2 ADD SWAP3 SWAP1 SWAP3 MSTORE PUSH32 0x98E8580445F1A29F2F0FE34378D51B3ECCB66ACEC25DF96A0E2E69EBB1F43EC7 SWAP2 ADD PUSH1 0x40 MLOAD DUP1 SWAP2 SUB SWAP1 LOG1 POP JUMP JUMPDEST PUSH1 0x1 PUSH1 0x1 PUSH1 0xA0 SHL SUB DUP1 DUP3 AND PUSH1 0x0 SWAP1 DUP2 MSTORE PUSH1 0x20 DUP2 SWAP1 MSTORE PUSH1 0x40 DUP1 DUP3 KECCAK256 SLOAD DUP2 MLOAD PUSH4 0x3FABE5A3 PUSH1 0xE2 SHL DUP2 MSTORE SWAP2 MLOAD SWAP3 SWAP4 DUP5 SWAP4 SWAP2 AND SWAP2 DUP3 SWAP2 DUP5 SWAP2 DUP4 SWAP2 PUSH4 0xFEAF968C SWAP2 PUSH1 0x4 DUP1 DUP3 ADD SWAP3 PUSH1 0xA0 SWAP3 SWAP1 SWAP2 SWAP1 DUP3 SWAP1 SUB ADD DUP2 DUP7 GAS STATICCALL ISZERO DUP1 ISZERO PUSH2 0x2CC JUMPI RETURNDATASIZE PUSH1 0x0 DUP1 RETURNDATACOPY RETURNDATASIZE PUSH1 0x0 REVERT JUMPDEST POP POP POP POP PUSH1 0x40 MLOAD RETURNDATASIZE PUSH1 0x1F NOT PUSH1 0x1F DUP3 ADD AND DUP3 ADD DUP1 PUSH1 0x40 MSTORE POP DUP2 ADD SWAP1 PUSH2 0x2F0 SWAP2 SWAP1 PUSH2 0x561 JUMP JUMPDEST POP POP POP SWAP2 POP POP PUSH1 0x0 DUP3 PUSH1 0x1 PUSH1 0x1 PUSH1 0xA0 SHL SUB AND PUSH4 0x313CE567 PUSH1 0x40 MLOAD DUP2 PUSH4 0xFFFFFFFF AND PUSH1 0xE0 SHL DUP2 MSTORE PUSH1 0x4 ADD PUSH1 0x20 PUSH1 0x40 MLOAD DUP1 DUP4 SUB DUP2 DUP7 GAS STATICCALL ISZERO DUP1 ISZERO PUSH2 0x336 JUMPI RETURNDATASIZE PUSH1 0x0 DUP1 RETURNDATACOPY RETURNDATASIZE PUSH1 0x0 REVERT JUMPDEST POP POP POP POP PUSH1 0x40 MLOAD RETURNDATASIZE PUSH1 0x1F NOT PUSH1 0x1F DUP3 ADD AND DUP3 ADD DUP1 PUSH1 0x40 MSTORE POP DUP2 ADD SWAP1 PUSH2 0x35A SWAP2 SWAP1 PUSH2 0x5B1 JUMP JUMPDEST SWAP2 SWAP8 PUSH1 0xFF SWAP1 SWAP3 AND SWAP7 POP SWAP1 SWAP5 POP POP POP POP POP JUMP JUMPDEST DUP1 CALLDATALOAD PUSH1 0x1 PUSH1 0x1 PUSH1 0xA0 SHL SUB DUP2 AND DUP2 EQ PUSH2 0x383 JUMPI PUSH1 0x0 DUP1 REVERT JUMPDEST SWAP2 SWAP1 POP JUMP JUMPDEST PUSH1 0x0 PUSH1 0x20 DUP3 DUP5 SUB SLT ISZERO PUSH2 0x39A JUMPI PUSH1 0x0 DUP1 REVERT JUMPDEST PUSH2 0x3A3 DUP3 PUSH2 0x36C JUMP JUMPDEST SWAP4 SWAP3 POP POP POP JUMP JUMPDEST PUSH1 0x0 DUP1 PUSH1 0x40 DUP4 DUP6 SUB SLT ISZERO PUSH2 0x3BD JUMPI PUSH1 0x0 DUP1 REVERT JUMPDEST DUP3 CALLDATALOAD SWAP2 POP PUSH2 0x3CD PUSH1 0x20 DUP5 ADD PUSH2 0x36C JUMP JUMPDEST SWAP1 POP SWAP3 POP SWAP3 SWAP1 POP JUMP JUMPDEST PUSH1 0x0 DUP1 PUSH1 0x40 DUP4 DUP6 SUB SLT ISZERO PUSH2 0x3E9 JUMPI PUSH1 0x0 DUP1 REVERT JUMPDEST PUSH2 0x3F2 DUP4 PUSH2 0x36C JUMP JUMPDEST SWAP2 POP PUSH2 0x3CD PUSH1 0x20 DUP5 ADD PUSH2 0x36C JUMP JUMPDEST PUSH4 0x4E487B71 PUSH1 0xE0 SHL PUSH1 0x0 MSTORE PUSH1 0x11 PUSH1 0x4 MSTORE PUSH1 0x24 PUSH1 0x0 REVERT JUMPDEST PUSH1 0x1 DUP2 DUP2 JUMPDEST DUP1 DUP6 GT ISZERO PUSH2 0x451 JUMPI DUP2 PUSH1 0x0 NOT DIV DUP3 GT ISZERO PUSH2 0x437 JUMPI PUSH2 0x437 PUSH2 0x400 JUMP JUMPDEST DUP1 DUP6 AND ISZERO PUSH2 0x444 JUMPI SWAP2 DUP2 MUL SWAP2 JUMPDEST SWAP4 DUP5 SHR SWAP4 SWAP1 DUP1 MUL SWAP1 PUSH2 0x41B JUMP JUMPDEST POP SWAP3 POP SWAP3 SWAP1 POP JUMP JUMPDEST PUSH1 0x0 DUP3 PUSH2 0x468 JUMPI POP PUSH1 0x1 PUSH2 0x168 JUMP JUMPDEST DUP2 PUSH2 0x475 JUMPI POP PUSH1 0x0 PUSH2 0x168 JUMP JUMPDEST DUP2 PUSH1 0x1 DUP2 EQ PUSH2 0x48B JUMPI PUSH1 0x2 DUP2 EQ PUSH2 0x495 JUMPI PUSH2 0x4B1 JUMP JUMPDEST PUSH1 0x1 SWAP2 POP POP PUSH2 0x168 JUMP JUMPDEST PUSH1 0xFF DUP5 GT ISZERO PUSH2 0x4A6 JUMPI PUSH2 0x4A6 PUSH2 0x400 JUMP JUMPDEST POP POP PUSH1 0x1 DUP3 SHL PUSH2 0x168 JUMP JUMPDEST POP PUSH1 0x20 DUP4 LT PUSH2 0x133 DUP4 LT AND PUSH1 0x4E DUP5 LT PUSH1 0xB DUP5 LT AND OR ISZERO PUSH2 0x4D4 JUMPI POP DUP2 DUP2 EXP PUSH2 0x168 JUMP JUMPDEST PUSH2 0x4DE DUP4 DUP4 PUSH2 0x416 JUMP JUMPDEST DUP1 PUSH1 0x0 NOT DIV DUP3 GT ISZERO PUSH2 0x4F2 JUMPI PUSH2 0x4F2 PUSH2 0x400 JUMP JUMPDEST MUL SWAP4 SWAP3 POP POP POP JUMP JUMPDEST PUSH1 0x0 PUSH2 0x3A3 DUP4 DUP4 PUSH2 0x459 JUMP JUMPDEST PUSH1 0x0 DUP2 PUSH1 0x0 NOT DIV DUP4 GT DUP3 ISZERO ISZERO AND ISZERO PUSH2 0x520 JUMPI PUSH2 0x520 PUSH2 0x400 JUMP JUMPDEST POP MUL SWAP1 JUMP JUMPDEST PUSH1 0x0 DUP3 PUSH2 0x542 JUMPI PUSH4 0x4E487B71 PUSH1 0xE0 SHL PUSH1 0x0 MSTORE PUSH1 0x12 PUSH1 0x4 MSTORE PUSH1 0x24 PUSH1 0x0 REVERT JUMPDEST POP DIV SWAP1 JUMP JUMPDEST DUP1 MLOAD PUSH10 0xFFFFFFFFFFFFFFFFFFFF DUP2 AND DUP2 EQ PUSH2 0x383 JUMPI PUSH1 0x0 DUP1 REVERT JUMPDEST PUSH1 0x0 DUP1 PUSH1 0x0 DUP1 PUSH1 0x0 PUSH1 0xA0 DUP7 DUP9 SUB SLT ISZERO PUSH2 0x579 JUMPI PUSH1 0x0 DUP1 REVERT JUMPDEST PUSH2 0x582 DUP7 PUSH2 0x547 JUMP JUMPDEST SWAP5 POP PUSH1 0x20 DUP7 ADD MLOAD SWAP4 POP PUSH1 0x40 DUP7 ADD MLOAD SWAP3 POP PUSH1 0x60 DUP7 ADD MLOAD SWAP2 POP PUSH2 0x5A5 PUSH1 0x80 DUP8 ADD PUSH2 0x547 JUMP JUMPDEST SWAP1 POP SWAP3 SWAP6 POP SWAP3 SWAP6 SWAP1 SWAP4 POP JUMP JUMPDEST PUSH1 0x0 PUSH1 0x20 DUP3 DUP5 SUB SLT ISZERO PUSH2 0x5C3 JUMPI PUSH1 0x0 DUP1 REVERT JUMPDEST DUP2 MLOAD PUSH1 0xFF DUP2 AND DUP2 EQ PUSH2 0x3A3 JUMPI PUSH1 0x0 DUP1 REVERT INVALID LOG2 PUSH5 0x6970667358 0x22 SLT KECCAK256 0x4E SWAP3 0xE9 0x4B PUSH24 0x1A20099BAEBDAE4320D208CDE1665359FF14E621037D224B DUP5 ISZERO 0xB3 PUSH5 0x736F6C6343 STOP ADDMOD 0xC STOP CALLER ",
  "sha1": "aa4f50df1b151fdb54bce7698375809c2197a6be",
  "source": "// SPDX-License-Identifier: MIT\npragma solidity ^0.8.0;\n\nimport \"@chainlink/contracts/src/v0.8/interfaces/AggregatorV3Interface.sol\";\nimport \"./interfaces/ITokenValue.sol\";\n\ncontract TokenValue is ITokenValue {\n    mapping(address => address) public token_priceFeed;\n\n    event AddedPriceFeed(address admin, address token, address priceFeed);\n    event RemovedPriceFeed(address admin, address token);\n\n    function setTokenPriceFeed(address token, address priceFeed)\n        public\n        virtual\n        override\n    {\n        token_priceFeed[token] = priceFeed;\n        emit AddedPriceFeed(msg.sender, token, priceFeed);\n    }\n\n    function removeTokenPriceFeed(address token) public virtual override {\n        delete token_priceFeed[token];\n        emit RemovedPriceFeed(msg.sender, token);\n    }\n\n    function getValueFromToken(uint256 amount, address token)\n        public\n        view\n        override\n        returns (uint256)\n    {\n        (uint256 price, uint256 decimals) = getTokenValue(token);\n        return (amount * price) / 10**(decimals);\n    }\n\n    function getTokenFromValue(uint256 amount, address token)\n        public\n        view\n        override\n        returns (uint256)\n    {\n        (uint256 price, uint256 decimals) = getTokenValue(token);\n        return (amount * 10**decimals) / price;\n    }\n\n    function getTokenValue(address token)\n        public\n        view\n        override\n        returns (uint256, uint256)\n    {\n        address tokenPriceFeed = token_priceFeed[token];\n        AggregatorV3Interface priceFeed = AggregatorV3Interface(tokenPriceFeed);\n\n        (, int256 price, , , ) = priceFeed.latestRoundData();\n        uint256 decimals = priceFeed.decimals();\n\n        return (uint256(price), decimals);\n    }\n}\n",
  "sourcePath": "contracts/TokenValue.sol",
  "type": "contract"
}